:100000000C9410030C9441030C9441030C94410391
:100010000C9441030C9441030C9441030C94410350
:100020000C9441030C9441030C9441030C94410340
:100030000C9441030C9441030C9441030C94410330
:100040000C9441030C9477290C9441030C944103C4
:100050000C9441030C9441030C9441030C94152718
:100060000C9441030C9489270C945F270C94410352
:100070000C9441030C9441030C9441030C944103F0
:100080000C9449290C9441030C9441030C944103B2
:100090000C9441030C9441030C9441030C94CD2720
:1000A0000C9441030C9441030C941B290C944103C0
:1000B0000C9441030C9441030C9441030C94ED28DF
:1000C0000C9441030C9441030C9441030C944103A0
:1000D0000C9441030C9441030C9441030C94410390
:1000E0000C9441030C941C060C9401040C94DC1831
:1000F0000C94F6050C944C090C94FB030C942C12F4
:100100000C9416240C94F0130C94D3070C942B0429
:100110000C9478100C94A9160C9444090C940410B7
:100120000C94C6130C946A260C9405060C941904BE
:100130000C94761C0C9486080C9456070C94490574
:100140000C9411270C94A5290C9462050C945F2241
:100150000C94DB070C94E50B0C9476090C94350594
:100160000C9464100C943F130C940C190C944B19C0
:100170000C94D5070C9496220C94D7070C94530931
:100180000C949B230C94C9050C94B1060C942D057A
:100190000C94CF070C9494050C9472230C941D04BA
:1001A0000C94C80F0C94D1070C9461090C940B04A7
:1001B0000C9425050C9431080C94F8030C94F4036A
:1001C0000C9421040C9491220C94C21C0C942924AC
:1001D0000C9402260C9453050C94B2130C94251322
:1001E0000C9489190C943E240C94B8160C94800538
:1001F0000C94FA040C94CD070C94EC030C94520864
:100200000C9402220C946F090C9417120C94302554
:100210000C9493250C9426040C942A060C94050443
:100220000C948A050C946C050C9464060C941F19AC
:100230000C940B180C94A5130C9476050C94221CAA
:100240000C94A8070C9402050C94A7080C94411375
:100250000C94A0210C9438190C9470170C9413046E
:100260000C942D090C94D9070C9407050C94F318E1
:100270000C94F0030C94E6030C94EF080C94270400
:100280000C943F050C940F040C94D9080C941105A0
:100290000C94C4230C948A070C9468090C944E188F
:1002A0000C94160E0C945A090C941B056E2F6100C9
:1002B0004F4B004F4B004F4B00427574746F6E20D4
:1002C000646F6573206E6F742066697420696E2098
:1002D0004D656D6F7279004F757470757420646F21
:1002E0006573206E6F742066697420696E204D6599
:1002F0006D6F727900375365676D656E7420646F3A
:100300006573206E6F742066697420696E204D6578
:100310006D6F72792100536572766F20646F65731B
:10032000206E6F742066697420696E204D656D6F54
:10033000727921004C434420646F6573206E6F74A2
:100340002066697420696E204D656D6F7279210099
:100350004C434420646F6573206E6F74206669742B
:1003600020696E204D656D6F72792100416E616C60
:100370006F67496E20646F6573206E6F74206669C5
:100380007420696E204D656D6F7279004F757470C1
:1003900075745368696674657220646F6573206E46
:1003A0006F742066697420696E204D656D6F727977
:1003B00000496E7075745368696674657220646F65
:1003C0006573206E6F742066697420696E204D65B8
:1003D0006D6F7279004661696C757265206F6E2071
:1003E00072656164696E6720636F6E666967004558
:1003F0006E636F6465727320646F6573206E6F74D3
:100400002066697420696E204D656D6F7279007E7B
:10041000306D79335B5F707F7B771F0D3D4F4700F9
:1004200000000000000000000000000000000000CC
:100430000000000000000000000000800180257E18
:10044000306D79335B5F707F7B0000000900000036
:10045000777F4E7E4F475F37307C000E00767E6799
:100460007E775B463E000000336D4E137800080037
:100470007D1F0D3D4F477B373038000600151D6747
:1004800073055B0F1C000000276D4E007800004DC7
:10049000465374657070657220646F6573206E6F6B
:1004A000742066697420696E204D656D6F727900E5
:1004B0005374657070657220646F6573206E6F741D
:1004C0002066697420696E204D656D6F7279210018
:1004D000446576696365427566666572204F766528
:1004E00072666C6F7721004C6F6164696E67206380
:1004F0006F6E666967206661696C65640000002143
:1005000000240027002A002D0030003300010100E4
:1005100000040107010A0100002200250028002B29
:10052000002E003100340002010000050108010B1B
:1005300001000020002300260029002C002F00329B
:10054000000001000003010601090105050505077A
:100550000508080808020202020A0A08080404043E
:10056000040101010101010101030303030303036A
:1005700003040707070C0C0C0C0C0C0C0C020202F9
:100580000206060606060606060B0B0B0B0B0B0BEC
:100590000B0102102020080810204010204080028B
:1005A00001020108040201010204081020408080B9
:1005B000402010080402018004020180402010083D
:1005C0000402010804020101020408102040800115
:1005D0000204081020408000000A0B02090C0D0ED6
:1005E00008070304010000000000000000000000F4
:1005F00000000000000000000000000000000000FB
:1006000000000012111000000000000000000000B7
:100610000000000000000000000000000000A5290C
:1006200011241FBECFEFD1E2DEBFCDBF00E00CBF73
:1006300013E0A0E0B2E0E0EAFFE600E00BBF02C09A
:1006400007900D92A637B107D9F723E1A6E7B3E0EB
:1006500001C01D92AC3CB207E1F713E0C0E1D3E06A
:1006600000E006C021970109802FFE010E9433326D
:10067000CF30D10780E00807A9F70E942A2A0C94FE
:10068000CE370C940000AC011092B51290918513F6
:1006900080918413FA01BF01641B750B2091B51280
:1006A00030813093B512931304C0921302C010929C
:1006B000B5123081311104C0921721F0CB01089599
:1006C0003817D1F33196E7CF0F931F93CF93DF9372
:1006D00080917913882309F446C0D0E0C0E08130CE
:1006E00029F482E080937913C9EBD2E180917A13E7
:1006F000882341F1209721F4C0917E13D0917F137C
:100700008E01CE010E944303892B29F42196F80122
:1007100080818111F5CFF8018081882309F1C8011A
:100720000E944303F801E80FF91F8081882311F02C
:1007300010823196F0937F13E0937E1310937D1314
:1007400000937C1380917C1390917D13892B59F039
:1007500081E080937A13DF91CF911F910F910895DB
:1007600010E000E0EBCF80E0F6CF0E946403882326
:1007700051F081E080937A1380937B1380917C13F6
:1007800090917D13089510927B1390E080E008957E
:100790008150823108F05AC0E82FF0E08827EC52EF
:1007A000FC4F8F4F0C943332F403F803E603EC0351
:1007B000F0032604FB03010405040B040F041304D7
:1007C00019041D042604210427042B0480918000B1
:1007D0008F77809380000895809180008F7DF9CF7E
:1007E00080918000877FF5CF84B58F7784BD089591
:1007F00084B58F7DFBCF8091B0008F778093B00060
:1008000008958091B0008F7DF9CF809190008F770F
:10081000809390000895809190008F7DF9CF809112
:100820009000877FF5CF8091A0008F778093A00004
:1008300008958091A0008F7DF9CF8091A000877FDF
:10084000F5CF809120018F778093200108958091CA
:1008500020018F7DF9CF80912001877FF5CFCF9345
:10086000DF93282F30E0F901E952FA4F8491F90122
:10087000EF56FA4FD491F901E55BFA4FC491CC23BE
:10088000A1F081110E94C803EC2FF0E0EE0FFF1FD2
:10089000EF5CFA4FA591B491EC91ED2381E090E0EB
:1008A00009F480E0DF91CF91089580E090E0FACFE5
:1008B0001F93CF93DF93282F30E0F901E952FA4FCD
:1008C0008491F901EF56FA4FD491F901E55BFA4FA3
:1008D000C491CC23A9F0162F81110E94C803EC2FDC
:1008E000F0E0EE0FFF1FE95EFA4FA591B4918FB7CC
:1008F000F894EC91111108C0D095DE23DC938FBFE2
:10090000DF91CF911F910895DE2BF8CFCF93DF9326
:1009100090E0FC01EF56FA4F2491855B9A4FFC0161
:1009200084918823C9F090E0880F991FFC01E3505F
:10093000FB4FA591B491FC01E95EFA4FC591D491AA
:1009400061110DC09FB7F8948C91209582238C93F0
:100950008881282328839FBFDF91CF91089562303B
:1009600051F49FB7F8943C91822F809583238C9308
:10097000E8812E2BEFCF8FB7F894EC912E2B2C9390
:100980008FBFEACF1F93CF93DF93182FEB0161E066
:100990000E948604209739F460E0812FDF91CF9187
:1009A0001F910C945804CF3FD10511F461E0F5CFAD
:1009B000E12FF0E0E952FA4FE491E150E23108F022
:1009C000B3C0F0E08827E851FB4F8F4F0C943332CF
:1009D000FA040205070511051B05940525052D05DB
:1009E00035053F054905530562056C0594057605F7
:1009F00080058A0584B5806884BDC7BDDF91CF912D
:100A00001F91089584B5806284BDC8BDF7CF8091E1
:100A10008000806880938000D0938900C093880014
:100A2000EDCF80918000806280938000D0938B0016
:100A3000C0938A00E3CF809180008860809380001B
:100A4000D0938D00C0938C00D9CF8091B000806886
:100A50008093B000C093B300D1CF8091B00080628A
:100A60008093B000C093B400C9CF8091900080689B
:100A700080939000D0939900C0939800BFCF80914D
:100A80009000806280939000D0939B00C0939A0066
:100A9000B5CF80919000886080939000D0939D00A6
:100AA000C0939C00ABCF8091A00080688093A00091
:100AB0008091A0008F7B8093A000D093A900C09369
:100AC000A8009CCF8091A00080628093A000D0936A
:100AD000AB00C093AA0092CF8091A0008860809361
:100AE000A000D093AD00C093AC0088CF80912001CE
:100AF000806880932001D0932901C09328017ECF84
:100B000080912001806280932001D0932B01C093BB
:100B10002A0174CF80912001886080932001D093B6
:100B20002D01C0932C016ACFC038D1050CF03ECF07
:100B300033CF863308F0865320917B00982F98702E
:100B4000277F922B90937B008770806480937C003A
:100B500080917A00806480937A0080917A0086FD8B
:100B6000FCCF809178009091790008952FB7F89488
:100B700060910E0C70910F0C8091100C9091110CE3
:100B80002FBF0895DC01ED91FC910190F081E02DE3
:100B90001994AF92BF92CF92DF92EF92FF920F9390
:100BA0001F93CF93DF936C017B018B01040F151F03
:100BB000EB015E01AE18BF08C017D10759F069916B
:100BC000D601ED91FC910190F081E02DC6011995BF
:100BD000892B79F7C501DF91CF911F910F91FF907C
:100BE000EF90DF90CF90BF90AF900895FC01538DB0
:100BF000448D252F30E0842F90E0821B930B5417F7
:100C000010F0CF96089501970895FC01918D828D83
:100C1000981779F0A28DAE0FBF2FB11D5D962C9164
:100C2000828D8F5F60E60E94F131928F822F90E07B
:100C300008958FEF9FEF0895FC01918D828D981795
:100C400031F0828DE80FF11D858D90E008958FEFD2
:100C50009FEF0895FC01918D228D892F90E0805A9D
:100C60009F4F821B910960E670E00E940B3208954D
:100C700083EF91E10E942A0621E0892B09F420E00C
:100C8000822F0895FC01A48DA80FB92FB11DA35880
:100C9000BF4F2C91848D90E001968F739927848F9C
:100CA000A689B7892C93A089B1898C9183708064BF
:100CB0008C93938D848D981306C00288F389E02D60
:100CC00080818F7D80830895EF92FF920F931F9311
:100CD000CF93DF93EC0181E0888F9B8D8C8D9813EF
:100CE0001AC0E889F989808185FF15C09FB7F894FB
:100CF000EE89FF896083E889F98980818370806447
:100D000080839FBF81E090E0DF91CF911F910F9191
:100D1000FF90EF900895F62E0B8D10E00F5F1F4FA0
:100D20000F731127E02E8C8D8E110CC00FB607FCAF
:100D3000FACFE889F989808185FFF5CFCE010E943D
:100D40004206F1CFEB8DEC0FFD2FF11DE358FF4F65
:100D5000F0829FB7F8940B8FEA89FB8980818062CB
:100D6000CFCFCF93DF93EC01888D8823B9F0AA8988
:100D7000BB89E889F9898C9185FD03C0808186FD56
:100D80000DC00FB607FCF7CF8C9185FFF2CF8081A5
:100D900085FFEDCFCE010E944206E9CFDF91CF91D2
:100DA000089580E090E0892B29F00E943806811197
:100DB0000E94000080E090E0892B49F080E090E004
:100DC000892B29F00E94000081110E94000080E020
:100DD00090E0892B49F080E090E0892B29F00E9477
:100DE000000081110E94000080E090E0892B49F012
:100DF00080E090E0892B29F00E94000081110C9482
:100E0000000008952091350B260F3327331F213220
:100E10003105ECF42091590BFC0190E080E0243086
:100E200069F082E00895A091350B2191AC014B5EF1
:100E3000544FA40FB52FB11D2C930196861798F32C
:100E40008091350B680F6093350B80E0089581E049
:100E5000089508958FEF9FEF08958FEF9FEF089506
:100E600080910E0B90E09195819591090895CF9313
:100E7000DF93CB01EA01642F0E940207CE01DF91CC
:100E8000CF910895CF93DF931F92CDB7DEB76983DB
:100E900061E0CE0101960E94020781E090E00F9090
:100EA000DF91CF91089590E080E00895CF93DF9394
:100EB000FC012381222359F1EC0161E084810E942D
:100EC000860461E08D810E9486048B81843011F05C
:100ED0008830B1F461E08E810E94860461E08F81E8
:100EE0000E9486048FA58F3F91F061E00E948604E6
:100EF0006EA581E068278FA5DF91CF910C945804EF
:100F0000833011F0863071F761E08E81E9CFDF9197
:100F1000CF910895CF93DF93FC0123812223A9F081
:100F2000EC010190F081E02D0480F581E02D60E07E
:100F300019958FA58F3F49F061E00E9486046EA548
:100F40008FA5DF91CF910C945804DF91CF91089534
:100F5000DC01ED91FC911197248135814770552773
:100F600066277727415051096109710947305105BA
:100F70006105710570F4FA018827EE53F84F8F4F21
:100F80000C943332CD07CF07D107D307D507D70746
:100F9000D90761E0CD01F901199465E0FBCF64E068
:100FA000F9CF66E0F7CF62E0F5CF6AE0F3CF68E013
:100FB000F1CF69E0EFCFCF93DF93EC01CB01BA0122
:100FC00026E030E040E050E00E94B0316230710530
:100FD0008105910589F16CF4611571058105910513
:100FE000D1F06130710581059105F9F0DF91CF9164
:100FF0000895643071058105910561F124F1653032
:1010000071058105910591F7E881F9810480F581E9
:10101000E02D66E006C0E881F9810480F581E02DCD
:1010200064E0CE01DF91CF911994E881F9810480C9
:10103000F581E02D65E0F5CFE881F9810480F58147
:10104000E02D61E0EECFE881F9810480F581E02DAB
:1010500063E0E7CFE881F9810480F581E02D62E06B
:10106000E0CFDC01ED91FC910480F581E02D43702F
:10107000552766277727423051056105710571F0C4
:10108000433051056105710559F041305105610545
:10109000710511F065E0199466E0FDCF6AE0FBCFC1
:1010A00069E0F9CFCF93DF93EC01CB01BA0123E0E4
:1010B00030E040E050E00E94B031613071058105C0
:1010C000910599F06230710581059105A9F0672BB2
:1010D000682B692BC1F4E881F9810480F581E02D4A
:1010E00064E0CE01DF91CF911994E881F981048009
:1010F000F581E02D61E0F5CFE881F9810480F5818B
:10110000E02D62E0EECFDF91CF910895DC01ED910B
:10111000FC910480F581E02D4370552766277727E1
:10112000423051056105710571F04330510561058B
:10113000710559F0413051056105710511F062E00A
:10114000199463E0FDCF61E0FBCF60E0F9CFCF936E
:10115000DF93EC01E881F9810480F581E02D8A813B
:1011600060E0811162E0CE011995E881F981048087
:10117000F581E02D8A8161E0811163E0CE0119954E
:101180008CA59DA58230910538F0880F991F880F96
:10119000991F05970197F1F7E881F9810480F5819E
:1011A000E02D8A8160E0811162E0CE01DF91CF9174
:1011B0001994CF93DF93EC0120E030E0A9016C8912
:1011C0007D898E899F890E94503318162CF4E8A9D6
:1011D000F9A9DF91CF911994EAA9FBA9FACFCF928F
:1011E000DF92EF92FF920F931F93CF93DF93DC0177
:1011F0001396CC91C43039F0C83059F1C33019F08E
:10120000C63049F1C2E08C010C5F1F4FF12CE12C7C
:10121000C62ED12CD1E0F8016481C6010E2C02C08B
:10122000959587950A94E2F780FD6D270F5F1F4F14
:1012300080810E945804BFEFEB1AFB0AEC1658F3AA
:10124000DF91CF911F910F91FF90EF90DF90CF90A2
:101250000895C4E0D8CFC3E0D6CFDC011396EC915B
:101260001397E93008F042C0F0E08827E55CF64FBC
:101270008F4F0C94333244094C0953095A096109C0
:101280007609680976096F09ED91FC911197008440
:10129000F185E02DCD011994ED91FC911197028417
:1012A000F385E02DF7CFED91FC9111970484F5853E
:1012B000E02DF0CFED91FC9111970684F785E02D9C
:1012C000E9CFED91FC9111970088F189E02DE2CFF3
:1012D000ED91FC9111970288F389E02DDBCFED9120
:1012E000FC9111970488F589E02DD4CF08954F9291
:1012F0005F926F927F928F929F92AF92BF92CF92A6
:10130000DF92EF92FF920F931F93CF93DF93EC0145
:10131000C888D988EA88FB888C859D85AE85BF857D
:10132000C81AD90AEA0AFB0A6C897D898E899F89C5
:101330009B01AC010E94A7304B015C016C8D7D8D3F
:101340008E8D9F8D9B01AC010E943C329B01AC01B4
:10135000C501B4010E94A8320E941A33C114D104FD
:10136000E104F10409F0B1C0623071058105910515
:101370000CF0CBC01CA21DA21EA21FA21C8A1D8A9B
:101380001E8A1F8A1CAA1DAA1EAA1FAADF91CF911E
:101390001F910F91FF90EF90DF90CF90BF90AF9093
:1013A0009F908F907F906F905F904F900895101650
:1013B000110612061306B4F46C157D058E059F0503
:1013C0001CF42A812111A1C09B01AC018827992717
:1013D000DC01821B930BA40BB50B8CAB9DABAEABAE
:1013E000BFAB93C0011511052105310509F48DC06E
:1013F0006C157D058E059F050CF087C08A818823BA
:1014000009F483C030952095109501951F4F2F4FFB
:101410003F4F0CAB1DAB2EAB3FAB77C00115110599
:101420002105310509F471C08824992454018C18D0
:101430009D08AE08BF08681579058A059B050CF064
:1014400064C08A81811161C0DDCFCCACDDACEEAC73
:10145000FFACA7019601C701B6010E943C322B01E7
:101460003C01C501B4010E94483020E030E040E872
:1014700050E40E94A73020E030E040E85FE30E94A3
:101480003C329B01AC01C301B2010E94A8329B0116
:10149000AC01C701B6010E943B323B016C01FE0169
:1014A000E05CFF4FE080F180028113819701A80189
:1014B0000E945033181614F473018601C701D80135
:1014C0008CAF9DAFAEAFBFAF3AC00CA91DA92EA97E
:1014D0003FA91C141D041E041F040CF468CF101631
:1014E0001106120613060CF099CF00271127980158
:1014F0000C191D092E093F09601771078207930710
:101500000CF062CF2A8121115FCF8CA89DA8AEA8D4
:10151000BFA881149104A104B10409F096CF88AD4D
:1015200099ADAAADBBAD8CAF9DAFAEAFBFAF81E003
:101530001C141D041E041F040CF080E08A833FEF7E
:10154000831A930AA30AB30A8CAA9DAAAEAABFAAB9
:10155000CCACDDACEEACFFACC701B6010E942133D0
:101560006CA37DA38EA39FA3A701960160E074E204
:1015700084E799E40E94A8326C8B7D8B8E8B9F8BC5
:101580002A81211103CF90586C8B7D8B8E8B9F8B82
:10159000FDCEAF92BF92CF92DF92EF92FF920F9368
:1015A0001F93CF93DF936B017A01EC01C65FD44F99
:1015B00028813CE0389F8001399F100D1124A090B4
:1015C000090BB12C27FF1FC0FB01118210828881FB
:1015D0008F5F888388819801280F311D87FD3A9598
:1015E000F6012A153B051CF488818C30C4F18081FA
:1015F0009181049680349C4908F473C0F60180817F
:101600009181049670C088819801280F311D87FD53
:101610003A952A153B05DCF68881A801480F511D33
:1016200087FD5A95FA01EE0FFF1FE40FF51FE758EB
:10163000F54F808186FFCBCF8881F801E80FF11D3F
:1016400087FDFA95CF01EE0FFF1FE80FF91FE7584E
:10165000F54F808160E08F730E945804B8CF80817D
:1016600091812881A801420F511D27FD5A959A01A9
:10167000FA01EE0FFF1FE20FF31FE758F54F21812C
:101680003281820F931FF7019183808388819801B3
:10169000280F311D87FD3A95F901EE0FFF1FE20F6C
:1016A000F31FE758F54F808186FF22C08881080F1D
:1016B000111D87FD1A95F801EE0FFF1FE00FF11FB6
:1016C000E758F54F808161E08F73DF91CF911F91D3
:1016D0000F91FF90EF90DF90CF90BF90AF900C9460
:1016E000580480E49CE9F701918380838FEF88831D
:1016F000DF91CF911F910F91FF90EF90DF90CF90EE
:10170000BF90AF9008958F929F92AF92BF92EF9249
:10171000FF920F931F93CF937C018B01C42F0E94E4
:10172000B605F80180809180A280B380DC01CB01F6
:1017300088199909AA09BB094C2F50E070E060E0B4
:1017400084179507A607B70748F0F70119950E9477
:10175000B605F8016083718382839383CF911F91D3
:101760000F91FF90EF90BF90AF909F908F90089552
:101770002091770A3091780A280F311D81E02D3DA4
:10178000354008F080E00895FC0184818823E1F071
:101790008181811119C081E0818382819381FC0163
:1017A0004089518962897389403659476E4F7F4F0E
:1017B00059F040E659E76EEF7FEFFC01408B518B0B
:1017C000628B738B0C94770908954F925F926F929E
:1017D0007F928F929F92AF92BF92DF92EF92FF9291
:1017E0000F931F93CF93DF93D12C08E810E0B8E557
:1017F000EB2EB2E0FB2EC4EB4C2E512C612C712C45
:1018000080919A04D81608F096C0ED2DF0E0EE0F06
:10181000FF1FEA57FB4FC081D18189899A89AB8923
:10182000BC894D855E856F85788984179507A607E5
:10183000B70709F47AC0481759076A077B070CF005
:1018400076C00197A109B109898B9A8BAB8BBC8BB0
:10185000A989BA89A03282E0B807ACF52B85480186
:10186000821A910827FD9394880C991C880C991C66
:10187000092C000CAA08BB082C85C701821B910902
:1018800027FD93959C01220F331F220F331F032E38
:10189000000C440B550B281939094A095B09A53B73
:1018A000B10514F0A4EBB0E0B7FF02C0B0E0A0E0D7
:1018B0000E94DA31A30192010E94B031820E931E80
:1018C000A41EB51ED401EA85E03378F52B85C80146
:1018D000821B910927FD93959C01220F331F220F34
:1018E000331FA217B3077CF02C85C701821B910917
:1018F00027FD93959C01220F331F220F331FA21740
:10190000B3070CF49D0122503109220F331F4FB74A
:10191000F8948E2F90E0FC01EE0FFF1FE80FF91FE7
:10192000E758F54F328321834FBFD39469CF019697
:10193000A11DB11D89CFDF91CF911F910F91FF9014
:10194000EF90DF90BF90AF909F908F907F906F90BF
:101950005F904F900895EF92FF921F93CF93DF9384
:10196000EC01162F8C8180FF10C0603170F46D8304
:101970007E0184E0E80EF11C612F617089910E9464
:1019800058041695EC16FD06B9F7DF91CF911F911B
:10199000FF90EF900895DF92EF92FF920F931F93C5
:1019A000CF93DF937C01D62FD42EC0E00BE410E060
:1019B00060E0F70182810E945804C8010197F1F7A5
:1019C0006D2F661F6627661FF70181810E945804EC
:1019D000C8010197F1F761E0F70182810E94580484
:1019E000C8010197F1F7CF5FDD0FDC12E1CFDF9186
:1019F000CF911F910F91FF90EF90DF9008951F936B
:101A0000CF93DF93EC01162F60E088810E94580489
:101A100044E060E8CE010E94CB0C48E0612FCE018B
:101A20000E94CB0C61E08881DF91CF911F910C94D3
:101A30005804AF92BF92CF92DF92EF92FF920F9332
:101A40001F93CF93DF93EC01162F69017A0160E0B9
:101A500088810E94580443E060EACE010E94CB0CCA
:101A6000612F660F660F46E0CE010E94CB0C10E09E
:101A70009BE4A92EB12C60E08A810E945804C50124
:101A80000197F1F76C2D617089810E945804C5019E
:101A90000197F1F761E08A810E945804C50101971E
:101AA000F1F71F5FF694E794D794C7940113E3CF3F
:101AB00061E08881DF91CF911F910F91FF90EF90AE
:101AC000DF90CF90BF90AF900C9458040F93FC011F
:101AD000E60FF11D23A130E050E040E0660F08E082
:101AE0000E94190D0F9108959C014D3008F04BE0B4
:101AF000D901A60FB11D93969C9193979170E42FF5
:101B0000F0E0E457FD4F8081982B93969C93C90198
:101B10000C94660DCF92DF92EF92FF920F931F937A
:101B2000CF93DF938C01EB01683E734010F0C7EE5A
:101B3000D3E08AE0E82EF12CCE01B7010E940B32EF
:101B40006B01482F62E0C8010E94740DC601B70105
:101B50000E940B32482F61E0C8010E94740DCE0133
:101B600064E670E00E940B32462F60E0C801DF910E
:101B7000CF911F910F91FF90EF90DF90CF900C9439
:101B8000740D0F93FC01E60FF11D23A130E050E02E
:101B900040E0660F08E00E94190D0F9108959C0126
:101BA000DC01A60FB11D93969C91939790714E30D6
:101BB00008F04DE0E42FF0E0E258FD4F8081982BD3
:101BC00093969C93C9010C94C10DCF93DF93EC01C4
:101BD00061E089810E94860461E08A810E94860416
:101BE00061E088810E94860461E088810E94580437
:101BF00061E08A810E94580461E089810E94580452
:101C0000FE013396A3961192EC17FD07E1F7DF91E1
:101C1000CF910895DC01842FE0916704F09168046E
:101C2000309719F04D915C91199408954F925F92FD
:101C30006F927F928F929F92AF92BF92CF92DF92DC
:101C4000FF920F931F93CF93DF93F12C80915D044C
:101C5000F81608F0EEC0EF2DF0E0EE0FFF1FEB5C82
:101C6000FB4FC081D1818A81882309F4B3C0888168
:101C70000E942F048C0189810E942F046C010E9414
:101C8000B6054B015C0181E090E0CD2811F090E0B9
:101C900080E0880F991F21E0012B09F020E0922FAE
:101CA000982B4B8D5C8D6D8D7E8D95018401041B71
:101CB000150B260B370BB901A801453651056105F7
:101CC000710508F489C08885823008F485C08B8E40
:101CD0009C8EAD8EBE8E81508887EE859E1709F44E
:101CE00045C0888503E310E0873010F401E010E080
:101CF0006D8524E0E202F0011124492F092E000C29
:101D0000550BE42BF52BE259FD4F708170039001C8
:101D1000719F300D1124062E02C0220F331F0A942A
:101D2000E2F7EF85F8892E0F3F1F388B2F874C0F76
:101D30005D1FFA0141854423C1F04B885C886D88A2
:101D40007E884F8A588E698E7A8E8B8A9C8AAD8A5D
:101D5000BE8A02C0359527956A95E2F73A8B298BA2
:101D60008C3008F08BE08F5F88879E8709891A89FD
:101D70008D819E810817190769F19801281B390B7D
:101D8000C901E0913304F09134046901CC0CDD1CED
:101D9000309709F44BC04B815C812F5C3F4F233659
:101DA0003105E0F597FD30C0688180E01995C00EDF
:101DB000D11E31E4C3163FE1D30654F08F859889D4
:101DC00083709927988B8F871A8A198A10E000E010
:101DD0001E830D83F3943ACF4F89588D698D7A8D88
:101DE00095018401041B150B260B370BB901A801C3
:101DF000453F51406105710508F46FCF8B8E9C8E75
:101E0000AD8EBE8E188669CF698182E01995C801B2
:101E10008C199D09803C904E8CF2DACF97FD03C05F
:101E2000688181E0C3CF698183E0F0CF37FDEFCFD8
:101E3000BECFDF91CF911F910F91FF90DF90CF9098
:101E4000BF90AF909F908F907F906F905F904F90DA
:101E50000895CF92DF92EF92FF920F931F93CF934B
:101E6000DF936C017A018091310490913204892BC7
:101E700031F1D60113968C9100E181FD08E0EB0170
:101E8000CE25DF2510E0C0FF13C080913104909172
:101E90003204892B69F0E0912F04F09130043097DF
:101EA00039F0D6014D915C91612F8E2D817019957D
:101EB000D695C795F694E7941F5F0113E4CFDF91A1
:101EC000CF911F910F91FF90EF90DF90CF900895E9
:101ED000AF92BF92CF92DF92EF92FF920F931F9338
:101EE000CF93DF931F92CDB7DEB7C0903104D0906F
:101EF0003204C114D10409F43FC0FC01238130E154
:101F0000B32E21FF02C028E0B22EA62E8C01F601CE
:101F100085818683F12CE12CBA946B2DC6010E9439
:101F2000AB0CF80182810E942F048983F801828121
:101F30000E942F048983EE0CFF1C298181E090E030
:101F4000211102C090E080E0E82AF92AB110E4CF24
:101F5000F6016681C6010E94AB0CF80164817581AF
:101F60006E157F0549F0AA2021F0A701C8010E9443
:101F7000290FF801F582E4820F90DF91CF911F9134
:101F80000F91FF90EF90DF90CF90BF90AF900895AA
:101F9000CF93C0E080912E04C81768F4EC2FF0E0D6
:101FA000EE0FFF1FEA5DFB4F61E0808191810E948F
:101FB000680FCF5FEFCFCF910895DC01E09124044B
:101FC000F0912504309761F013968C911397882334
:101FD00039F04D915C91119712966C9181E01994B2
:101FE0000895DC01E0912404F0912504309759F024
:101FF00013968C911397811106C04D915C911197A6
:1020000012966C91199408951F93CF93DF9310E06B
:10201000809123041817F0F4E12FF0E0EE0FFF1F7A
:10202000E556FC4FC081D1818A810E942F049B819B
:10203000891751F091E0811101C090E09B838111DB
:1020400005C0CE010E94F10F1F5FE2CFCE010E94BA
:10205000DD0FFACFDF91CF911F910895CF93DF93DA
:10206000EC01E88DF0E03396EE0FFF1FEC0FFD1F43
:102070008E899F8920813181821B930B9F8B8E8B50
:102080008A810E949905E88DF0E03396EE0FFF1FDC
:10209000EC0FFD1F91838083E88DF0E03396EE0F07
:1020A000FF1FEC0FFD1F8E899F8920813181820FD8
:1020B000931F9F8B8E8B888D8F5F888F888D877005
:1020C000888FDF91CF910895CF93C0E080919A03DC
:1020D000C81760F4EC2FF0E0EE0FFF1FE658FC4F3E
:1020E000808191810E942E10CF5FF0CFCF91089513
:1020F000CF93C0E080919A03C817B8F5EC2FF0E0B9
:10210000EE0FFF1FE658FC4FA081B18156968D91CE
:102110009C91579723E0969587952A95E1F713961A
:102120002D913C911497AC01421B530B9A0157FF20
:1021300003C031952195310915964C911597421799
:10214000130609F084F414969C938E931397E091F0
:102150007803F0917903309731F04D915C911197AC
:1021600012966C911995CF5FC5CFCF9108950E94BB
:10217000B6056093D20B7093D30B8093D40B9093DE
:10218000D50B08950F931F93CF93DF93082F162F2E
:10219000D42FC8E06D2F661F6627661F802F0E9410
:1021A0005804DD0F61E0812F0E94580460E0812F08
:1021B0000E945804C15071F7DF91CF911F910F9188
:1021C0000895EF92FF920F931F93CF93DF931F9287
:1021D0001F92CDB7DEB78C0149832A83660F771F24
:1021E000F801E688F788EE0CFF1CCF01801B910BED
:1021F0008E159F0514F41192F8CF8981F801E60F2E
:10220000F71F81838A81808360E0F80184890E94BE
:1022100058041E141F046CF4F1E0EF1AF108F801E1
:10222000EE0DFF1D4081F801628980890E94C21075
:10223000F0CF61E0F80184890F900F90DF91CF918A
:102240001F910F91FF90EF900C94580477FD0DC0F3
:10225000FC0126893789621773073CF420E041119D
:1022600001C021E04CE00C94E1100895FF920F931F
:102270001F93CF93DF93F82EC0E080917D04C817A1
:10228000B8F4EC2FF0E0EE0FFF1FE258FB4F008197
:102290001181D0E0F801808D8D1741F06D2F70E035
:1022A0004F2DC8010E942611DF5FF4CFCF5FE5CF2D
:1022B000DF91CF911F910F91FF9008950F931F937E
:1022C000CF93DF93FC01208D2223F9F06217E8F40D
:1022D000062F10E04423B1F0EC0186899789081796
:1022E00019073CF42FEF240F4AE0B801CF010E94F8
:1022F000E11040E0B801CE01DF91CF911F910F9125
:102300000C94261141E0B801F7CFDF91CF911F91D6
:102310000F910895FF920F931F93CF93DF93EC01DA
:1023200060E088810E945804FB800F2D10E00C5F54
:102330001F4F0C0F1D1FFF2049F0F80142918F0124
:1023400069818A810E94C210FA94F5CF61E0888188
:10235000DF91CF911F910F91FF900C9458049F92A1
:10236000AF92BF92CF92DF92EF92FF920F931F93A3
:10237000CF93DF93EC01C62E61E08B810E9458045D
:1023800061E08A810E94580410E08D81181708F0DE
:102390003FC0DB80BC8087E0E82EF12C00E061E0EC
:1023A0008D2D0E9458048B2D0E942F040E2C01C0ED
:1023B000880F0A94EAF7082B60E08D2D0E945804DC
:1023C00081E0E81AF10858F75E01A10EB11CF50191
:1023D000D780D016D9F0CC20B9F0912E990C990C59
:1023E000990CE02EF12C8D2D8E2580FF07C04E2DEF
:1023F0004170692D6F0DCE010E940A0ED694E694AD
:10240000F394F8E0FF12EFCFF50107831F5FBDCF14
:1024100060E08A81DF91CF911F910F91FF90EF9043
:10242000DF90CF90BF90AF909F900C945804CF93C3
:10243000C0E080916604C81768F4EC2FF0E0EE0F5E
:10244000FF1FE25AFB4F61E0808191810E94AF1132
:10245000CF5FEFCFCF9108957F928F929F92AF92EF
:10246000BF92CF92DF92EF92FF920F931F93CF9381
:10247000DF93C0E080912304C81760F4EC2FF0E0F4
:10248000EE0FFF1FE556FC4F808191810E94DD0F0A
:10249000CF5FF0CFC0E080912304C81760F4EC2F29
:1024A000F0E0EE0FFF1FE556FC4F808191810E9406
:1024B000F10FCF5FF0CF10E080916604181708F09D
:1024C00057C0E12FF0E0EE0FFF1FE25AFB4FC08133
:1024D000D18160E0CE010E94AF116E0187E0C80E8D
:1024E000D11C4601712CF12CE12C8D818E151F041D
:1024F000D9F0D4F0F40181914F0100E0A82EB12C65
:1025000080FF06C041E0672D600FCE010E940A0ED9
:10251000B594A7948A2D0F5F083081F7FFEFEF1A6B
:10252000FF0A88E0780EE1CFF12C912C812C8D816F
:1025300088151904D9F0D4F0F60181916F0100E0FB
:10254000A82EB12C80FD06C040E06F2D600FCE019B
:102550000E940A0EB594A7948A2D0F5F083081F768
:10256000FFEF8F1A9F0A88E0F80EE1CF1F5FA4CF1C
:102570000E94B71010E080912E041817E0F4E12FAC
:10258000F0E0EE0FFF1FEA5DFB4FC081D18160E0FC
:10259000CE010E94680F4C815D8170E060E0CE0149
:1025A0000E94290F4C815D816FEF7FEFCE010E9469
:1025B000290F1F5FE0CFC0E080919A03C81718F57C
:1025C000EC2FF0E0EE0FFF1FE658FC4FA081B18129
:1025D00056968D919C91579723E0969587952A95CD
:1025E000E1F714969C938E931397E0917803F09102
:1025F0007903309731F04D915C91119712966C915F
:102600001995CF5FD9CFDF91CF911F910F91FF9097
:10261000EF90DF90CF90BF90AF909F908F907F9082
:1026200008950E946403882359F081E080937A130F
:1026300080937B1380917C1390917D130C94AB2F2E
:1026400010927B1390E080E008951F93CF93DF9367
:102650000E941113EC010E941113182F0E941113F4
:10266000CC0FDD1FC258DB4F482F612F8881998125
:102670000E945E11DF91CF911F910C94B7100C94C2
:1026800025137F928F929F92AF92BF92CF92DF924B
:10269000EF92FF920F931F93CF93DF930E9411133A
:1026A000EC010E9411138C010E94B5034C010E94A1
:1026B00011135C010E941113CC0FDD1FC258DB4FB8
:1026C000E880F980F701208D222381F1C7E0D0E076
:1026D000712C6C01DD241127BB244C2F4F5F960118
:1026E0000C2E02C0359527950A94E2F720FF1CC0F6
:1026F000F7012689378902171307ACF4F401E70DB7
:10270000F11DE081F0E0E15FFB4F2491B5010C2E5B
:1027100002C0759567950A94E2F760FD2068B801DC
:10272000C7010E94E11073942197B8F6DF91CF9111
:102730001F910F91FF90EF90DF90CF90BF90AF90DF
:102740009F908F907F900C94B710CF930E9411139D
:10275000C82F0E941113BC018C2F0E94C204CF917C
:102760000C94B7100E9411132091EC0B2817190636
:1027700061F05CF0880F991FFC01E852F44F8081F2
:1027800091810E94C40B0C94B71008950E941113FC
:102790002091EC0B2817190611F10CF1880F991FE5
:1027A000FC01E852F44F0190F081E02D0280F381AA
:1027B000E02D1486158616861786108A118A128ACD
:1027C000138A14AA15AA16AA17AA14A215A216A249
:1027D00017A2148A158A168A178A0C94B7100895BE
:1027E0008F929F92AF92BF92CF92DF92EF92FF9221
:1027F0001F93CF93DF930E941113EC010E941113DA
:10280000BC0180919A048C171D0609F00CF4DCC001
:10281000CC0FDD1FCA57DB4F0990D881C02DCD806A
:10282000DE800D2C000CEE08FF0889809A80092CB0
:10283000000CAA08BB082F813885032E000C440B1E
:10284000550B2C193D094E095F09072E000C880B0A
:10285000990B681979098A099B090E947E312B819D
:102860003C81032E000C440B550B281939094A09E9
:102870005B090E94B031BA01A9014C0D5D1D6E1DAE
:102880007F1D052E000C660B770B8D859E85AF8511
:10289000B88984179507A607B70709F45CC04D8768
:1028A0005E876F87788B8985811155C08A858033D3
:1028B00008F04FC0188161E0812F0E9486048A854C
:1028C000282F30E0F901EE0FFF1FE20FF31FE7584A
:1028D000F54F1F739081907C912B90831B861C86F3
:1028E0002CE0622F0E94F131829FB001112430E070
:1028F00020E0AB01420F531FFA01EE0FFF1FE40F60
:10290000F51FE758F54F908196FD16C02F5F3F4F9A
:102910002C30310571F7813059F51092800082E03A
:10292000809381001092850010928400B19A80916A
:102930006F00826080936F00EA858E2F90E0FC012B
:10294000EE0FFF1FE80FF91FE758F54F80818064F5
:10295000808381E08987DF91CF911F91FF90EF9075
:10296000DF90CF90BF90AF909F908F900C94B71056
:10297000823061F410929000809391001092950043
:102980001092940088BB80937100D6CF833069F495
:102990001092A00082E08093A1001092A5001092F6
:1029A000A40089BB80937200C7CF8111C5CF10925C
:1029B000200182E0809321011092250110922401D0
:1029C0008ABB80937300B8CFDF91CF911F91FF90A6
:1029D000EF90DF90CF90BF90AF909F908F90089531
:1029E0002091F1113091F2118217930710F40C9499
:1029F000683180E008950F931F93CF93DF938C018C
:102A0000EB01F801808191819C012F5F3F4F318361
:102A100020830E94F01428813981A9014F5F5F4F04
:102A2000598348832E5E334FF90180832881398191
:102A3000283EF3E03F0760F48A3319F72F5E334FE7
:102A4000F901108281E0DF91CF911F910F910895DC
:102A500080E0F9CFEF92FF920F931F93CF93DF9314
:102A6000EC01E090F111F090F211888199818C01D4
:102A70000F5F1F4F198308830E94F014E016F106C0
:102A800050F08A3391F781E0DF91CF911F910F9140
:102A9000FF90EF90089580E0F7CFAF92BF92CF9272
:102AA000DF92EF92FF920F931F93CF93DF9300D0AB
:102AB0001F92CDB7DEB75C0119821A821B821C827D
:102AC000CE0101967C0110E000E06C01F5018081EF
:102AD00091819C012F5F3F4F318320830E94F0142E
:102AE000F7018083F8018E3241F00F5F1F4F8FEFA7
:102AF000E81AF80A0430110549F7EC0DFD1D1082A3
:102B0000C6010E94AB2F0F900F900F900F90DF9196
:102B1000CF911F910F91FF90EF90DF90CF90BF90DA
:102B2000AF900895DF92EF92FF920F931F93CF9390
:102B3000DF938C019C01240F351F8091F11190913E
:102B4000F21182179307E0F0EB017B01E40EF51E12
:102B5000D990C8010E946831D81621F06D2DC801A6
:102B60000E9470310F5F1F4FEC16FD0689F781E060
:102B7000DF91CF911F910F91FF90EF90DF9008951B
:102B800080E0F6CFFB0101900020E9F73197AF011B
:102B9000461B570BDC01ED91FC910280F381E02D87
:102BA00019948091B0128823A1F0609183138091D1
:102BB0008113909182130E94C2058091B8128823DC
:102BC00041F065EC72E080918113909182130E9434
:102BD000C2151092B7121092B01280E008958F9231
:102BE0009F92AF92BF92EF92FF920F931F93CF935A
:102BF000DF93CDB7DEB7A1970FB6F894DEBF0FBE57
:102C0000CDBF7C01FA01CB0119A2223008F42AE0E1
:102C10008E010F5D1F4F822E912CB12CA12CBF0174
:102C2000A50194010E948E31F901CA016A300CF5A8
:102C3000605DD8016E938D01232B242B252B79F712
:102C400090E080E0109721F0BD01C7010E94C215FD
:102C5000A1960FB6F894DEBF0FBECDBFDF91CF9126
:102C60001F910F91FF90EF90BF90AF909F908F902A
:102C70000895695CDECFCF939091B0129923A9F0AB
:102C8000C82F6091841380918113909182130E94C8
:102C9000C2054C2F50E070E060E02AE08091811383
:102CA00090918213CF910C94EF15CF91089590914C
:102CB000B012911110C091E09093B0129093B7129E
:102CC000482F50E070E060E02AE0809181139091FD
:102CD00082130C94EF150895EF92FF920F931F93B8
:102CE000CF93DF939091B01291112BC08B010E9472
:102CF00057168091B0128823E1F06091841380917F
:102D00008113909182130E94C205E0908113F0908C
:102D10008213E801FE016491662359F0D701ED9119
:102D2000FC910190F081E02DC70119952196892B26
:102D300089F7DF91CF911F910F91FF90EF900C9445
:102D4000D11580E0DF91CF911F910F91FF90EF900F
:102D500008950E94B6056093D20B7093D30B8093B5
:102D6000D40B9093D50B6CEA72E085E00C946C1652
:102D70001F93CF93DF931092230410925D0410925F
:102D8000D10B90917D04EEE7F4E080E0981731F0EC
:102D9000A191B19158961C928F5FF8CF10927D044B
:102DA00030919A04C6E8D4E020E03217D1F0A9911E
:102DB000B99119968C911997882389F01A96EC91FC
:102DC0001A978E2F90E0FC01EE0FFF1FE80FF91FFE
:102DD000E758F54F80818F7B808319961C922F5F77
:102DE000E4CF10929A049091EC0BE8EDFBE080E0C8
:102DF000981729F0A191B1911C928F5FF9CF109291
:102E0000EC0B2091760330E0A9E6B4E0CFE6D4E005
:102E100090E080E08217930784F4E991F99130976C
:102E200019F044A9411114AAED91FD91309719F0C0
:102E300043A9411113AA0196EDCF10927603109287
:102E40009A0390917703E5E7F4E080E0981759F052
:102E5000A191B19118962C911897222311F01896F0
:102E60001C928F5FF3CF1092770390916604EEE58A
:102E7000F4E080E0981731F0A191B19116961C9280
:102E80008F5FF8CF1092660410E0E0912E041E17B9
:102E900098F4F0E0EE0FFF1FEA5DFB4FC081D18197
:102EA0008B8180FF07C062E08A810E9486048B814B
:102EB0008E7F8B831F5FE9CF10922E041092800BC0
:102EC00010927F0B1092D70B1092780A1092770A0B
:102ED00060EB72E085E0DF91CF911F910C946C164E
:102EE00063EB72E08FE00C946C162091770A3091BE
:102EF000780A820F932F911D9093780A8093770A16
:102F00008C3D954040F060ED74E085E00E946C16C9
:102F100090E080E00895C90185569B4F0895CF92B7
:102F2000DF92EF92FF920F931F93CF93DF939091D5
:102F30005D04943109F45EC07901142FC62ED82E99
:102F40008FE10E94B80B81110DC06FEE73E085E038
:102F5000DF91CF911F910F91FF90EF90DF90CF9075
:102F60000C946C168FE10E947517EC01892B09F007
:102F70001A8200915D04E02FF0E0EE0FFF1FEB5C82
:102F8000FB4FD183C0831E821D82FC82EB82D882DC
:102F9000C98285E0819FF0011124EB5AFD4FDE01CB
:102FA000199601900D928A95E1F762E08D2D0E94AD
:102FB000860462E089810E9486041E86188A1F8624
:102FC0001A8A198A18861F8A188E198E1A8E84EF0B
:102FD00091E0A0E0B0E08B8B9C8BAD8BBE8B81E051
:102FE0008A838CE099E190933404809333040F5FDB
:102FF00000935D04DF91CF911F910F91FF90EF90AF
:10300000DF90CF90089581E08093D70B66EB72E05C
:1030100081E10C946C16CF93DF930E94B7108AE085
:103020000E94571680917F0B9091800B892B91F114
:103030008BE390E00E94F014C82F8091B012882397
:1030400079F06091841380918113909182130E9492
:10305000C2056C2F80918113909182130E94C2054A
:10306000C1E0D0E080917F0B9091800BC817D90709
:1030700088F4CE01CB960E94F0149091B01299235F
:1030800039F0682F80918113909182130E94C205BC
:103090002196E8CFDF91CF910C94D115CF93DF9398
:1030A0000E94B7100E94B503BC01EC0109900020FA
:1030B000E9F72197C81BD90BDD2780917F0B9091F1
:1030C000800B9C012F5F3F4F2C0F3D1F283D35404B
:1030D00088F5AE014F5F5F4FCB960E9492154091ED
:1030E0007F0B5091800BC40FD51FD093800BC093E2
:1030F0007F0B8091B01281113FC085E00E9457166E
:103100008091B012882391F0609184138091811393
:10311000909182130E94C205AE0170E060E02AE047
:1031200080918113909182130E94EF15DF91CF91CE
:103130000C94D1158091B01281111EC085E00E94BF
:1031400057168091B012882389F36091841380917F
:103150008113909182130E94C205C0918113D09176
:1031600082136DE2CE010E94C2052AE041E050E0E8
:1031700060E070E0CE01D8CFDF91CF910895CF937A
:10318000DF932091B0122223A1F0EC01609184130F
:1031900080918113909182130E94C205209749F07B
:1031A000BE018091811390918213DF91CF910C9495
:1031B000C215DF91CF9108950E94B7108AE00E9456
:1031C000571685E492E00E94BF188BE092E00E94BF
:1031D000BF1880E092E00E94BF1888EC92E00E9445
:1031E000BF180C94D1150F931F93CF93DF93C82F63
:1031F000D62F8A018DE10E945716C8010E94BF1880
:103200008D2F0E943B168C2F0E943B16DF91CF9191
:103210001F910F910C94D1150F931F93CF93C82F2B
:103220008A0186E00E945716C8010E94BF188C2FA1
:103230000E943B16CF911F910F910C94D1150F93C3
:103240001F93CF93DF93C82FD62F8A018EE10E9460
:103250005716C8010E94BF188D2F0E943B168C2F55
:103260000E943B16DF91CF911F910F910C94D115C5
:103270000F931F93CF93C82F8A0187E00E945716A0
:10328000C8010E94BF188C2F0E943B16CF911F913E
:103290000F910C94D115CF92DF92EF92FF92CF93C2
:1032A000DF936C01EA018CE10E945716CE010E9467
:1032B000BF188091B012882321F16091841380910E
:1032C0008113909182130E94C205C0918113D09105
:1032D00082130D2C000CEE08FF082AE0B701A601AE
:1032E000F7FE0CC06DE2CE010E94C20544275527AF
:1032F000BA014C195D096E097F092AE0CE010E94CE
:10330000EF15DF91CF91FF90EF90DF90CF900C946D
:10331000D115CF93DF931F921F92CDB7DEB70E94D6
:10332000B503FC0190E3ABE0B2E001900D929A95F9
:10333000E1F783E290E09A83898341E050E0BE01A7
:103340006F5F7F4F90E080E00E9492154FE250E067
:103350006BE072E081E090E00E9492158091B012E3
:10336000811109C085E00E9457168BE092E00E940F
:10337000BF180E94D1150F900F90DF91CF91089543
:103380001F93CF93DF9385ED8093BC008091110B49
:103390009091120BA091130BB091140B0796A11DE5
:1033A000B11D23E0B695A795979587952A95D1F7F6
:1033B0002091BC0024FD03C01092590B52C04091D3
:1033C000110B5091120B6091130B7091140B452B44
:1033D000462B472B69F30097A105B10541F025E382
:1033E0002A95F1F700000197A109B109E1CF809179
:1033F000100BC1E0C0930F0B882399F1D091B80056
:103400001091BA008091BC008A7B8093BC0060E080
:1034100084E10E94580460E085E10E945804109203
:10342000590BC0935B0B10925A0B61E084E10E9430
:10343000580461E085E10E9458048091B9008E7FB4
:103440008093B9008091B9008D7F8093B90088E4A2
:103450008093B80085E48093BC001093BA00D093A9
:10346000B800DF91CF911F9108954F925F926F92B4
:103470007F928F929F92AF92BF92CF92DF92EF9204
:10348000FF92CF93DF93EC016A017B0120E030E0F3
:10349000A901CB01B6010E94413087FF04C0F7FAB1
:1034A000F094F7F8F0948C8C9D8CAE8CBF8CA701B7
:1034B0009601C501B4010E944130882309F449C036
:1034C0006CA97DA98EA99FA90E9448302B013C01BF
:1034D000A7019601C501B4010E94A8329B01AC016D
:1034E000C301B2010E94A7300E941A336CAB7DABBE
:1034F0008EAB9FABA701960160E070E080E090E4A6
:103500000E94A8320E945B3326E53EE04DE25FE375
:103510000E94A73020E034E244E759E40E94A7303B
:1035200068AF79AF8AAF9BAFCC8EDD8EEE8EFF8E0B
:10353000CE01DF91CF91FF90EF90DF90CF90BF90C1
:10354000AF909F908F907F906F905F904F900C9472
:103550007709DF91CF91FF90EF90DF90CF90BF90F0
:10356000AF909F908F907F906F905F904F90089555
:103570008F929F92AF92BF92CF92DF92EF92FF9283
:103580000F931F93CF93DF939091EC0B9A3009F434
:103590009DC0C22ED42EA62EB82E8AE00E94B80B53
:1035A000811111C060EB74E085E0DF91CF911F9134
:1035B0000F91FF90EF90DF90CF90BF90AF909F90D2
:1035C0008F900C946C168AE00E9475177C0100970E
:1035D00011F0FC011082E091EC0BF0E0EE0FFF1F08
:1035E000E852F44FF182E08284E40E94B80B81112A
:1035F0007AC06FE874E085E00E946C16F090EC0BE6
:10360000EF2DF0E0EE0FFF1FE852F44FC080D180A5
:10361000F601C281D38120E030E048EC53E4688DAC
:10362000798D8A8D9B8D0E9441308823E9F180E05D
:1036300090E0A8ECB3E4888F998FAA8FBB8F80E0CD
:1036400090E4ACE1B5E4FE01E05CFF4F8083918340
:10365000A283B3838CA99DA9AEA9BFA91816190688
:103660001A061B060CF56C897D898E899F899B0142
:10367000AC010E94A7304B015C016C8D7D8D8E8D5D
:103680009F8D9B01AC010E943C329B01AC01C501A6
:10369000B4010E94A8320E941A336CAB7DAB8EAB92
:1036A0009FABCE010E94770940E050E068E474E4EB
:1036B000F601828193810E94351A101611061CF4BE
:1036C000C6010E94C40BF394F092EC0BDF91CF91F2
:1036D0001F910F91FF90EF90DF90CF90BF90AF9030
:1036E0009F908F90089584E4CA1072C0DB1070C060
:1036F0000E947517EC01892B09F459C08DE992E0FD
:103700009983888381E08B831C861D861E861F8695
:10371000188A198A1A8A1B8A1C8A1D8A1E8A1F8A7D
:1037200080E090E0A0E8BFE3888F998FAA8FBB8FDD
:103730001C8E1D8E1E8E1F8E88A399A3AAA3BBA3C9
:103740001CA21DA21EA21FA221E030E03DA72CA7B3
:103750002FEF2FA718A619A61AA61BA6DC82CD82CA
:1037600024E02E8325E02F831EA61CAA1DAA1EAAD4
:103770001FAA18AE19AE1AAE1BAE1CAE1DAE1EAE01
:103780001FAEFE01E05CFF4F80839183A283B38371
:103790001A82188619861A861B86CE010E94560741
:1037A00040E050E060E87FE3CE010E94351AF70167
:1037B000D383C283048381E08583002321F062E008
:1037C000802F0E94860481E0F7018083118216CF4A
:1037D0000E947517EC01892B51F38DE992E09983D2
:1037E000888384E08B831C861D861E861F86188A2C
:1037F000198A1A8A1B8A1C8A1D8A1E8A1F8A80E0DF
:1038000090E0A0E8BFE3888F998FAA8FBB8F1C8EB2
:103810001D8E1E8E1F8E88A399A3AAA3BBA31CA2D4
:103820001DA21EA21FA221E030E03DA72CA72FEF72
:103830002FA718A619A61AA61BA6CC82AD82BE82F7
:10384000DF8292CF0F931F93CF93DF930E941113C8
:10385000EC010E9464038823F1F181E080937A13E4
:1038600080937B1380917C1390917D130E94C92FCC
:103870002091EC0B2C171D06A1F19CF1CC0FDD1F44
:10388000C852D44FE881F9811182068117812085C1
:1038900031856017710782079307B9F066837783D4
:1038A000808791870280F381E02D00891189228928
:1038B0003389601771078207930739F0608B718B2A
:1038C000828B938BCF010E947709DF91CF911F915B
:1038D0000F910C94B71010927B1360E070E0CB0155
:1038E000C7CFDF91CF911F910F910895FF920F9352
:1038F0001F93CF93DF930E941113EC010E94B50335
:103900008C010E941113F82ECC0FDD1FCB58DB4F1A
:103910000990D881C02D8885882369F16EEC72E00A
:10392000C8010E94F92F01E010E0009709F10E9400
:10393000AB2F9885992391F0982F9770980101C02B
:10394000220F9A95EAF7869586958695FE01E80FEF
:10395000F11D8481FF2049F0282B24836EEC72E056
:1039600090E080E00E94F92FE0CF20952823F5CF4A
:10397000CE010E948A11DF91CF911F910F91FF908C
:103980000C94B7102F923F924F925F926F927F925A
:103990008F929F92AF92BF92CF92DF92EF92FF925F
:1039A0000F931F93CF93DF93CDB7DEB7A4970FB6D6
:1039B000F894DEBF0FBECDBF0E9411130E94B50365
:1039C0007C01CE0101969CA38BA380E2EBA1FCA11C
:1039D00011928A95E9F74FE150E0B701CE010196C7
:1039E0000E94E93400916F0410917004F80184A9D9
:1039F000882309F4E7C260ED72E0C7010E94F92F45
:103A00006C01EAE04E2E512C612C712CC114D104B2
:103A100009F4D8C26DE370E0C6010E94D5349AA3C0
:103A200089A30097B1F1FC011192CF01FAA3E9A398
:103A30004AE050E0BE016F5D7F4F0E94A82EF62E37
:103A4000E72E1C0162ED72E0C6010E94E034892B72
:103A500029F5F80182A9806882AB6FE0C8010E9455
:103A6000660DF80182A98F7B82AB84A18E7F84A32F
:103A70006FE0C8010E94660D6F2D7E2DC8010E9467
:103A80008A0D60ED72E090E080E00E94F92F6C01F9
:103A9000BDCFF12CE12C212C312CD4CF69ED72E07B
:103AA000C6010E94E034892B79F4F80182A98F774E
:103AB00082AB6FE0C8010E94660DF80182A98064A4
:103AC00082AB84A18160D3CF61EE72E0C6010E9417
:103AD000E034892B69F5C701E92EF82EF8EEEF16D0
:103AE000F3E0FF0620F077EEE72E73E0F72E6AE0B2
:103AF000C62ED12CC701B6010E940B325B01482FA4
:103B000065E0C8010E94740DC501B6010E940B3228
:103B1000482F64E0C8010E94740DC70164E670E09C
:103B20000E940B32462F63E0C8010E94740DA9CF9A
:103B300068EE72E0C6010E94E034892B09F05BC098
:103B40008F2C9E2C510130EA831636E8930631E023
:103B5000A306B10438F05FE9852E56E8952EAA2415
:103B6000A394B12CC501B401A30192010E948E312E
:103B700069017A01462F6AE0C8010E94740DC701ED
:103B8000B601A30192010E948E31462F69E0C8015F
:103B90000E94740DC501B40124E630E040E050E01D
:103BA0000E948E31CA01B901A30192010E948E3197
:103BB000462F68E0C8010E94740DC501B40128EECB
:103BC00033E040E050E00E948E31CA01B901A30108
:103BD00092010E948E31462F67E0C8010E94740D49
:103BE000C501B40120E137E240E050E00E948E318F
:103BF000422F66E099CF6FEE72E0C6010E94E0347A
:103C0000892B09F054C0C701E92EF82EF80181A9CB
:103C100090A927A52E7F9E7F8E7FF0E1EF16F7E219
:103C2000FF06DCF531EFE31638EDF30644F0F7FC60
:103C30000AC0E114F104A9F5F80190AB0BC041EF03
:103C4000E42E48EDF42EF194E194F108F80190ABE4
:103C500093A9892B81AB27A74CE06EE0C8010E9495
:103C6000740D4CE06DE0C8010E94740DC70164E65C
:103C700070E00E941F32CB016AE070E00E941F32A8
:103C8000482F6CE0C8010E94740DC70168EE73E014
:103C90000E941F32462F6BE047CF3FE0E32E37E212
:103CA000F32EF80133A9932B90AB832BD3CF65EF81
:103CB00072E0C6010E94E034892BC9F58F2DF8010E
:103CC00091A920A937A543A984367CF58D392CF01C
:103CD000F7FC04C02E7F242B03C08DE981952E7F35
:103CE000F80120AB9E7F942B91AB316037A76AE03F
:103CF0000E94FD31F82E492F6CE0C8010E94740D1E
:103D00004F2D6BE0C8010E94740DF80180A98170ED
:103D100080AB81A9817081AB6DE0C8010E94660D06
:103D20006EE0C8010E94660DACCE83E6D3CF6CEF87
:103D300072E0C6010E94E034892BE1F4F11017C053
:103D40008BE0F82E4F2D60E0C8010E94740D4F2DBE
:103D500061E0C8010E94740D4F2D62E0C8010E940D
:103D6000740DF80184A18E7F84A36FE0DACFBAE0EE
:103D7000FB2EE8CF67E073E0C6010E94E034892B98
:103D8000A1F4F1100FC0ABE0FA2E4F2D63E0C80193
:103D90000E94740D4F2D64E0C8010E94740D4F2DD8
:103DA00065E0C2CEFAE0FF2EF0CF62E173E0C6011B
:103DB0000E94E034892BF1F4F11019C0EBE0FE2EE3
:103DC0004F2D66E0C8010E94740D4F2D67E0C801B9
:103DD0000E94740D4F2D68E0C8010E94740D4F2D94
:103DE00069E0C8010E94740D4F2D6AE09DCE7AE013
:103DF000F72EE6CF6DE173E0C6010E94E034892B17
:103E000011F5F80181A9F11016C08E7F81AB6BE02E
:103E1000F62E4F2D6BE0C8010E94740D4F2D6CE003
:103E2000C8010E94740D4F2D6DE0C8010E94740DF1
:103E30004F2D6EE079CE816081AB80A98E7F80AB03
:103E40005AE0F52EE6CF67E273E0C6010E94E03447
:103E5000892B61F4F80186A18E7F91E0F11001C0F9
:103E600090E0892BF80186A363E05BCF61E373E008
:103E7000C6010E94E034892B61F4F80180A58E7F91
:103E800091E0F11001C090E0892BF80180A765E076
:103E900048CF6BE373E0C6010E94E034892B61F4E4
:103EA000F80186A58E7F91E0F11001C090E0892B8A
:103EB000F80186A76BE035CF65E473E0C6010E9488
:103EC000E034892B09F0DDCDF80192A99F7D84A50E
:103ED0008E7FF1103CC0906292AB816084A76FE04E
:103EE000C8010E94660D69E0C8010E94660DF801D4
:103EF00082A98F7E82AB83A58E7F83A76FE0C801E6
:103F00000E94660D68E0C8010E94660DF80182A952
:103F1000846082AB82A5816082A76FE0C8010E94A5
:103F2000660D67E0C8010E94660DF80182A9877FCF
:103F300082AB81A58E7F81A76FE0C8010E94660DCC
:103F400066E0C8010E94660DF80110AE9ACD92ABF2
:103F500084A76FE0C8010E94660D69E0C8010E9455
:103F6000660DF80182A9806182AB83A5816083A779
:103F70006FE0C8010E94660D68E0C8010E94660DEE
:103F8000F80182A98B7F82AB82A58E7F82A76FE02A
:103F9000C8010E94660D67E0C8010E94660DF80125
:103FA00082A9886082AB81A5816081A76FE0C8018A
:103FB0000E94660D66E0C8010E94660D31E0F801BE
:103FC00030AF5FCD00916B0410916C04F80183A9B0
:103FD000882309F407C160ED72E0CE0101960E94CA
:103FE000F92F7C012AE0C22ED12C34E6832E912CAD
:103FF00048EEA42E43E0B42EE114F10409F4F2C01B
:104000006DE370E0C7010E94D534412C512C320180
:10401000009749F0FC011192CF010E94AB2F2C01B7
:10402000990F6608770862E573E0C7010E94E034E3
:10403000892B09F052C0F0E14F16F7E25F0620F03D
:104040009FE0492E97E2592EC201B6010E940B3221
:104050007B01482F63E0C8010E94CF0DC701B60164
:104060000E940B32482F62E0C8010E94CF0DC201AE
:10407000B4010E940B32CB01B6010E940B32482FD3
:1040800061E0C8010E94CF0DC201B5010E940B3250
:10409000462F60E0C8010E94CF0DF80184A18F7EF9
:1040A00084A361E0C8010E94C10DF80185A18F7E43
:1040B00085A362E0C8010E94C10DF80186A180615C
:1040C00086A363E0C8010E94C10D60ED72E090E03C
:1040D00080E00E94F92F7C018FCF69E573E0C70172
:1040E0000E94E034892B09F046C0F0E14F16F7E258
:1040F0005F0620F08FE0482E87E2582EC201B601FD
:104100000E940B327B01482F63E0C8010E94CF0D53
:10411000C701B6010E940B32482F62E0C8010E941D
:10412000CF0DC201B4010E940B32CB01B6010E9437
:104130000B32482F61E0C8010E94CF0DC201B501CA
:104140000E940B32462F60E0C8010E94CF0DF8019B
:1041500084A1806184A361E0C8010E94C10DF801BF
:1041600085A1806185A362E0C8010E94C10DF801AC
:1041700086A18F7EA5CF60E673E0C7010E94E03480
:10418000892B09F0A2CF4A94452801F545E060E06B
:10419000C8010E94CF0D4BE061E0C8010E94CF0D25
:1041A0004CE062E0C8010E94CF0D4DE063E0C80121
:1041B0000E94CF0DF80184A18F7E84A361E0C80125
:1041C0000E94C10DF80185A18F7ECCCF4DE060E04B
:1041D000C8010E94CF0D4DE061E0C8010E94CF0DE3
:1041E0004DE0DFCF0E94B710A4960FB6F894DEBF63
:1041F0000FBECDBFDF91CF911F910F91FF90EF9038
:10420000DF90CF90BF90AF909F908F907F906F90F6
:104210005F904F903F902F900895CF92DF92EF9252
:10422000FF921F93CF93DF93182F8091F1119091FC
:10423000F211CB9780F030E0E32E32E0F32EC0E3B2
:10424000D0E0CE010E94F014F70181937F01219606
:10425000CB33D105B1F7111109C08091000283352C
:1042600029F4809101028E3409F462C086E30E9431
:104270009905BC01990F880B990B61157105810592
:10428000910511F00E949F2E0E94502ECC24CA94BA
:104290002FE0D22EE12CF12CA70196010E94B03123
:1042A0007F936F9387E693E09F938F9380E092E0F4
:1042B0009F938F930E94F8340E94502EA70196017D
:1042C0000E94B0317F936F9380E793E09F938F9329
:1042D00087E092E09F938F930E94F8344BE050E088
:1042E00060E072E080E390E00E9492158DB79EB787
:1042F0000C960FB6F8949EBF0FBE8DBF111118C05B
:104300008091F1119091F211CC9790F08BE390E0B5
:104310000E946831882361F060E08BE390E0DF91D8
:10432000CF911F91FF90EF90DF90CF900C94703160
:10433000DF91CF911F91FF90EF90DF90CF90089584
:1043400081E00E940D218091B012811109C08AE0A4
:104350000E94571680E092E00E94BF180C94D1157D
:1043600008952F923F924F925F926F927F928F9219
:104370009F92AF92BF92CF92DF92EF92FF920F93F4
:104380001F93CF93DF9300D01F92CDB7DEB78091FC
:104390007F0B9091800B892B09F42CC58BE390E067
:1043A0009A8389831C821B82CE0101960E944D153F
:1043B000882309F41FC560E1F62E72E2D72EE1E2F0
:1043C000CE2EFCE0BF2EA4EB2A2E312CEFEFE80F0F
:1043D000EE3008F0A6C00E2E000CFF0B8827EC5024
:1043E000FE4D8F4F0C943332022216245F22962208
:1043F0007223C4233E2429249B239325302502269F
:1044000091226A26CE0101960E944D15A82E809118
:1044100023048434D9F184E00E94B80B69EB72E084
:10442000882309F40FC48B809C8084E00E94751758
:104430008C010097C1F0DC011296AC921297C40176
:104440008E5E934F8D939C9362E08A2D0E9486042A
:10445000F80182810E942F0421E0892B09F420E0D9
:10446000D80113962C9380912304E82FF0E0EE0FEF
:10447000FF1FE556FC4F11830083E8E3F9E1F09359
:104480002504E09324048F5F80932304BE016D5FB5
:104490007F4FCE0101960E94FB14182FCE0101968A
:1044A0000E944D15882309F4A2C411118FCF1092D8
:1044B000F90F65ED73E085E00E946C169BC4CE0198
:1044C00001960E944D15A82E8091D10B883249F19A
:1044D00082E00E94B80B67ED72E0882309F44AC0BD
:1044E00082E00E9475178C01009771F0DC01AC929C
:1044F00011961C9261E08A2D0E948604F801618168
:1045000070E080810E94C2048091D10BE82FF0E01E
:10451000EE0FFF1FEF57F44F118300838F5F8093DF
:10452000D10BCE0101960E942A15B7CFCE0101967C
:104530000E944D15E82ECE0101960E944D15582E71
:10454000CE0101960E944D15482ECE0101960E9483
:104550004D15682ECE0101960E944D15782E809142
:104560007D048430F1F289E10E94B80B811106C00C
:1045700065EF72E085E00E946C16D3CF89E10E945E
:1045800075178C01009719F0DC0158961C928E2C3F
:104590000E2C000C9908A0907D04EA2DF0E0EE0F9F
:1045A000FF1FE258FB4F11830083F801918A808A34
:1045B000842D440C990B938B828B852D550C990B74
:1045C000958B848B272D2150330B2830310508F42F
:1045D0005CC088E090E0D80157969C938E935697E4
:1045E00061E08E2D0E94860461E0F80182890E94BC
:1045F000860461E0D80154968C910E94860461E0A3
:10460000F80184890E945804D80151969C928E9298
:104610005097912C812CF8018689978988169906E4
:10462000B4F520E04FE0B401C8010E94E110D801C8
:1046300056968D919C918816990634F427E04BE0AC
:10464000B401C8010E94E11020E049E0B401C801B2
:104650000E94E110F801868997898816990664F40A
:104660005524539420E0452DB401C8010E94E11067
:104670005394F9E05F12F6CF41E0B401C8010E9403
:1046800026112FEF821A920AC6CF872DA3CF708EE4
:10469000712CF801808D781608F5462D672DC8011C
:1046A0000E945E11872C912C40E0B401C8010E9449
:1046B0002611D80156968D919C918816990664F41E
:1046C0005524539420E0452DB401C8010E94E11007
:1046D0005394B9E05B12F6CF7394DBCFA394A0920E
:1046E0007D041FCFCE0101960E944D15A82ECE014C
:1046F00001960E944D15182FCE0101960E944D156E
:10470000082FCE0101960E944D15982ECE010196DC
:104710000E944D15292D990C330B402F000F550B7E
:10472000612F110F770B10E000E08A2DAA0C990B76
:104730000E94B81AF6CECE0101960E944D15982E11
:10474000CE0101960E944D15182FCE0101960E94B0
:104750004D15A82ECE0101960E944D15882ECE0132
:1047600001960E944D15082E000C990B282D880CDF
:10477000330B4A2DAA0C550B612F110F770B8C01AF
:10478000892D990C990BD4CFCE0101960E944D151D
:10479000182F80919A048A3009F4C3CE87E10E94D1
:1047A000B80B66E173E0882309F4E4CE87E10E9448
:1047B0007517FC01892BB9F08091090B803398F5AE
:1047C00091E0980F9093090B828790E0DC01AA0F8B
:1047D000BB1FA80FB91FA758B54F28EB3BE0129697
:1047E0003C932E93119780919A04A82FB0E0AA0FC2
:1047F000BB1FAA57BB4FED93FC93118615861686F7
:104800001786108A118A128A138A148A12821182D8
:1048100034822382168215823086278210838F5F2E
:1048200080939A047ECE8FEF8287DDCFCE010196F2
:104830000E944D15182FCE0101960E944D152B8117
:104840003C812E5E334F40E0682F812F0E948F17EE
:104850001DCECE0101960E944D15182FCE01019656
:104860000E944D15082FCE0101960E944D152B81F7
:104870003C812E5E334F482F602FE7CFCE0101964B
:104880000E944D15CE0101960E944D15CE01019654
:104890000E944D15082F813009F083C010917603D6
:1048A000133009F43ECE89E30E94B80B64E373E051
:1048B000882309F45FCE89E390E00E94B0334C0175
:1048C000DC01BC9288E011968C9311979BE01296C4
:1048D0009C931297D3960C93D397E12FF0E0EE0FB1
:1048E000FF1FE159FB4F91828082D596BC92D597EC
:1048F000D6969C93D697D7968C93D797D4960C93AD
:10490000C4010E94E50D60E3C4010E94FF0C62E552
:10491000C4010E94FF0C62E0C4010E94FF0C66E02B
:10492000C4010E94FF0CA12C04E020E030E0A901AA
:104930006A2DC4010E94190DA394B0E2AB12F4CF0A
:10494000F401B396DF012F2D1D922A95E9F761E05E
:104950008AE00E94860461E08AE00E945804D40143
:10496000D2968C91D2978160D2968C936FE0C401DD
:104970000E94660DF40182A9826082AB6FE0C401DF
:104980000E94660DD40197968C91979781609796B7
:104990008C9364E0C4010E94660D1F5F1093760340
:1049A000C0CD823009F0BDCD10917603133009F4EB
:1049B000B8CD87E30E94B80B60E573E0882309F463
:1049C000D9CD87E390E00E94B0334C0120E2FC0196
:1049D0002083D182C282E12FF0E0EE0FFF1FE75962
:1049E000FB4F91838083DC01D4962C93D497D5968A
:1049F000CC92D597D696DC92D69781E0D3968C93BD
:104A0000C4010E94E50D60E3C4010E94FF0C62E551
:104A1000C4010E94FF0C62E0C4010E94FF0C66E02A
:104A2000C4010E94FF0CA12C04E020E030E0A901A9
:104A30006A2DC4010E94190DA394B0E2AB12F4CF09
:104A4000F401B396DF012F2D1D922A95E9F761E05D
:104A500085E20E94860461E085E20E9458049DCFB1
:104A6000CE0101960E944D15A82ECE0101960E94FE
:104A70004D15782E80919A03803109F407CD8DE190
:104A80000E94B80B6CE673E0882309F4DBC08B80CE
:104A90009C808DE10E9475178C01009781F1FC01CB
:104AA0003696DF012F2D1D922A95E9F7DC015796E6
:104AB0001C921E92569758961C92589715967C9267
:104AC00015971296AC921297C4018E5E934F8D93F8
:104AD0009C9362E08A2D0E94860458E0A52EC801AE
:104AE0000E942E10AA94A110FACFF8018689978906
:104AF00043E0969587954A95E1F794838383809167
:104B00009A03E82FF0E0EE0FFF1FE658FC4F1183E9
:104B100000832BE439E130937903209378038F5F8E
:104B200080939A03B3CCCE0101960E944D15782E46
:104B3000CE0101960E944D15482ECE0101960E948D
:104B40004D15582ECE0101960E944D15682E80916C
:104B50007703843009F4E5CC89E00E94B80B6CE857
:104B600073E0882309F406CD89E00E9475178C0153
:104B7000A09077038A2C912C880C991CF401EB5897
:104B8000FB4F9183808381E0D80118968C9318970E
:104B90007C9211964C92119712965C9212971396F2
:104BA0006C9261E0872D0E94860461E0F8018181AA
:104BB0000E94860461E0D80112968C910E948604BE
:104BC000F8019381349680E0981719F011928F5F65
:104BD000FBCFC8010E948A11F401EB58FB4F808182
:104BE0009181DC0113963C91FC01349620E0321750
:104BF00019F011922F5FFBCF0E948A11A394A0920B
:104C000077038FCCCE0101960E944D15A82ECE01C0
:104C100001960E944D15582ECE0101960E944D1509
:104C2000682ECE0101960E944D15782E8091660463
:104C3000843009F42BCC8BE00E94B80B811106C0A4
:104C400061EB73E085E00E946C1620CC8B809C8029
:104C50008BE00E9475178C01009731F0FC011682E1
:104C60001782108611861286E0916604F0E0EE0F3E
:104C7000FF1FE25AFB4F11830083F801A282538287
:104C80006482C4018E5E934F91838083758261E05C
:104C90008A2D0E94860461E0D80113968C910E94AF
:104CA000860460E0F80184810E94860481E0D801D6
:104CB00016968C9360E0C8010E94AF11E3EFF8E113
:104CC000F0936804E0936704809166048F5F80939B
:104CD0006604DCCBCE0101960E944D15A82ECE01B4
:104CE00001960E944D15982ECE0101960E944D15F9
:104CF000082FCE0101960E944D15182FCE01019666
:104D00000E944D159092EA110093EB111093EC1153
:104D10008093ED111092EE110AEE11E161E0D801DD
:104D20008D918D010E948604B1E10E3E1B07B1F703
:104D30008091EE1181608093EE1160E08AEE91E146
:104D40000E94AB0CCE0101960E944D15782E8091E9
:104D50002E04843009F49ACB8B809C8086E00E94DC
:104D600075178C01009759F0EAEEF1E1F0933204E7
:104D7000E0933104DC0115961C921E921497E09189
:104D80002E04F0E0EE0FFF1FEA5DFB4F118300835E
:104D9000F801A282C4018E5E934F91838083F1E07B
:104DA0007F1609F1D80113961C9262E08A2D0E94A9
:104DB0008604D80113968C911397816013968C9377
:104DC00060E0C8010E94680FF801158214822FE18B
:104DD00039E13093300420932F0480912E048F5FAB
:104DE00080932E0453CB82E0F8018383DECF11231E
:104DF00009F45DCB0F900F900F900F90DF91CF9142
:104E00001F910F91FF90EF90DF90CF90BF90AF90E8
:104E10009F908F907F906F905F904F903F902F90DA
:104E200008950E94B1210C9403181F920F920FB69F
:104E30000F9211242F933F938F939F93AF93BF9320
:104E400080910E0C90910F0CA091100CB091110C50
:104E500030910D0C23E0230F2D3758F50196A11D3D
:104E6000B11D20930D0C80930E0C90930F0CA0930A
:104E7000100CB093110C8091090C90910A0CA09128
:104E80000B0CB0910C0C0196A11DB11D8093090C67
:104E900090930A0CA0930B0CB0930C0CBF91AF91A4
:104EA0009F918F913F912F910F900FBE0F901F9068
:104EB000189526E8230F0296A11DB11DD2CF1F928F
:104EC0000F920FB60F9211240BB60F922F933F93B0
:104ED0004F935F936F937F938F939F93AF93BF9302
:104EE000EF93FF9383EF91E10E944206FF91EF91D0
:104EF000BF91AF919F918F917F916F915F914F91F2
:104F00003F912F910F900BBE0F900FBE0F901F90EF
:104F100018951F920F920FB60F9211240BB60F9295
:104F20002F935F936F937F938F939F93AF93BF93D1
:104F3000EF93FF93E0910312F09104128081E091CE
:104F40000912F0910A1282FD26C0208180910C1274
:104F500090E0019660E670E00E940B3290910D1295
:104F6000981741F0E0910C12F0E0ED50FE4E258FC5
:104F700080930C12FF91EF91BF91AF919F918F9110
:104F80007F916F915F912F910F900BBE0F900FBE8D
:104F90000F901F9018958081EDCF1F920F920FB642
:104FA0000F9211240BB60F922F933F934F935F9361
:104FB0006F937F938F939F93AF93BF93EF93FF93E1
:104FC0008091B900887F803609F44DC008F040C058
:104FD000883209F4A7C028F5803109F49BC0C8F4D1
:104FE000882309F4F7C0883009F494C0FF91EF9149
:104FF000BF91AF919F918F917F916F915F914F91F1
:105000003F912F910F900BBE0F900FBE0F901F90EE
:105010001895883109F486C0803241F78093580B87
:1050200014C0803409F49BC040F48033B9F3883352
:10503000E9F68093580B85ECAEC0803509F483C047
:10504000883509F494C0883489F60E94C019CECFFF
:10505000883909F48AC038F5883729F050F4883641
:1050600011F0803719F683E08093590B1092570B9B
:1050700055C0883809F479C0803919F0803809F0B2
:10508000B5CF8091570B803208F06FC0E091570B7D
:1050900081E08E0F8093570B8091BB00F0E0E95CBC
:1050A000F44F80833BC0803B39F0D0F4803A09F460
:1050B00077C0883A09F09ACF84E08093590B109218
:1050C000360B1092350BF0E0E0E019958091350B2E
:1050D00081110FC081E08093350B1092150B09C030
:1050E000803C09F4A8CF883C09F4A5CF883B09F09F
:1050F0007DCFE091360B81E08E0F8093360BF0E090
:10510000EB5EF44F80818093BB009091360B8091D1
:10511000350B29C080917E0B8093BB0085EC80937A
:10512000BC0064CF90917D0B80917C0B981758F553
:10513000E0917D0B81E08E0F80937D0BF0E0E45ACF
:10514000F44F8081E9CFE0917D0B81E08E0F809359
:105150007D0B8091BB00F0E0E45AF44F8083909186
:105160007D0B80917C0B9817C8F285E8D8CFE09131
:105170007D0B81E08E0F80937D0B8091BB00F0E072
:10518000E45AF44F808380915B0B81115ECF81E004
:1051900080935A0B84EA8093BC001092590B26CF5F
:1051A00085EC8093BC001092590B8091570B803294
:1051B00030F4E091570BF0E0E95CF44F108260911D
:1051C000570B70E087E39BE0F0E0E0E01995109268
:1051D000570B0CCF1092580B38CF1F920F920FB66F
:1051E0000F9211240BB60F922F933F934F935F931F
:1051F0006F937F938F939F93AF93BF93EF93FF939F
:1052000048E251E064E271E090E080E00E94C90A67
:10521000FF91EF91BF91AF919F918F917F916F918E
:105220005F914F913F912F910F900BBE0F900FBE4A
:105230000F901F9018951F920F920FB60F92112486
:105240000BB60F922F933F934F935F936F937F9380
:105250008F939F93AF93BF93EF93FF9348EA50E0F0
:1052600064EA70E083E090E00E94C90AFF91EF9148
:10527000BF91AF919F918F917F916F915F914F916E
:105280003F912F910F900BBE0F900FBE0F901F906C
:1052900018951F920F920FB60F9211240BB60F9212
:1052A0002F933F934F935F936F937F938F939F932E
:1052B000AF93BF93EF93FF9348E950E064E970E048
:1052C00082E090E00E94C90AFF91EF91BF91AF91F7
:1052D0009F918F917F916F915F914F913F912F910E
:1052E0000F900BBE0F900FBE0F901F9018951F923E
:1052F0000F920FB60F9211240BB60F922F933F937C
:105300004F935F936F937F938F939F93AF93BF93CD
:10531000EF93FF9348E850E064E870E081E090E0AC
:105320000E94C90AFF91EF91BF91AF919F918F9118
:105330007F916F915F914F913F912F910F900BBE95
:105340000F900FBE0F901F9018951092F6111092AB
:10535000F51188EE93E0A0E0B0E08093F711909310
:10536000F811A093F911B093FA1187EB92E09093A2
:10537000F4118093F31185EC90E0909300128093E8
:10538000FF1184EC90E0909302128093011280EC64
:1053900090E0909304128093031281EC90E090933C
:1053A00006128093051282EC90E09093081280938D
:1053B000071286EC90E090930A12809309121092E3
:1053C0000C1210920D1210920E1210920F121092D7
:1053D000EE118FEF8093EA118093EB118093EC1123
:1053E0008093ED111092F2111092F1111092871327
:1053F0001092861383EF91E190938213809381132F
:105400001092B8128CE2809384138BE38093831301
:105410008FE28093851380E68093B3128FE58093AB
:10542000B4121092B21210927D1310927C1310924B
:105430007F1310927E1381E080937A13E8E8F3E102
:1054400084EC93E1119211928E179F07D9F7109275
:10545000B7120895789484B5826084BD84B5816064
:1054600084BD85B5826085BD85B5816085BD80912F
:105470006E00816080936E001092810080918100A7
:10548000826080938100809181008160809381009F
:10549000809180008160809380008091B100846061
:1054A0008093B1008091B00081608093B0008091C2
:1054B000910082608093910080919100816080933F
:1054C0009100809190008160809390008091A10074
:1054D00082608093A1008091A10081608093A100EF
:1054E0008091A00081608093A00080912101826062
:1054F000809321018091210181608093210180911D
:10550000200181608093200180917A0084608093E3
:105510007A0080917A00826080937A0080917A008C
:10552000816080937A0080917A00806880937A000D
:105530001092C100E0910312F091041282E0808386
:10554000E091FF11F09100121082E0910112F091B0
:10555000021280E1808310920B12E0910712F09109
:10556000081286E08083E0910512F0910612808196
:1055700080618083E0910512F0910612808188603D
:105580008083E0910512F09106128081806880830B
:10559000E0910512F091061280818F7D808380E07A
:1055A00090E19093F2118093F11189EA96E1909342
:1055B00087138093861385E293E1909389138093F8
:1055C000881381E493E190938B1380938A138FE384
:1055D00093E19093BD138093BC1385EA93E190937C
:1055E0008D1380938C1382E29CE190938F138093B0
:1055F0008E1382EB93E19093B3138093B21386ECF6
:1056000093E19093B5138093B41380EF93E190935B
:105610009113809390138CED98E190939B1380935A
:105620009A138BE098E19093A1138093A0138EE4DA
:1056300098E190939F1380939E1388EB96E190934B
:10564000A3138093A21380E797E19093A51380930F
:10565000A41381E197E29093A9138093A81389E89A
:1056600099E19093AF138093AE1380EA91E2909307
:10567000B1138093B0138CE292E19093B7138093AF
:10568000B61382EC9CE19093BB138093BA1386E728
:105690009CE19093BF138093BE1381E08093B81276
:1056A00080E00E940D210E94B7100091F11110912D
:1056B000F21101151105C9F090E080E00E94F0148C
:1056C000833299F40033110580F0DBE0ED2ED2E057
:1056D000FD2ED0E0C0E02196CE010E94F014D7014B
:1056E0008D937D01CF32D105B1F71092800B1092CE
:1056F0007F0B8BE390E0EC0121960E94F014482F81
:1057000020917F0B3091800BC90101969093800B03
:1057100080937F0B0C171D0708F0F6C067EE74E04E
:1057200085E00E946C160E94B6056093ED0B7093A5
:10573000EE0B8093EF0B9093F00B0E94B6056093F5
:10574000F10B7093F20B8093F30B9093F40B0E9488
:10575000B6056E5F7F4F8F4F9F4F6093F50B709331
:10576000F60B8093F70B9093F80B0E94B6056C5FD5
:105770007F4F8F4F9F4F6093F90B7093FA0B80937D
:10578000FB0B9093FC0B0E94B6056C5F7F4F8F4F15
:105790009F4F6093FD0B7093FE0B8093FF0B9093D4
:1057A000000C0E94B6056A5F7F4F8F4F9F4F60933A
:1057B000010C7093020C8093030C9093040C0E94D4
:1057C000B605685F7F4F8F4F9F4F6093050C7093B6
:1057D000060C8093070C9093080CAA24A394BB2476
:1057E000B3948091B7128111D1C0809181139091AF
:1057F0008213DC01ED91FC910084F185E02D199577
:10580000892B09F4C3C08091811390918213DC012C
:10581000ED91FC910084F185E02D1995C0E6EC2E08
:10582000F12C8036910564F480918113909182135C
:10583000DC01ED91FC910084F185E02D19957C014E
:10584000C0918113D0918213B9E1CB2EB3E1DB2E4D
:10585000460110E000E0E016F10609F061C0D0E07A
:10586000C0E0EC16FD0609F4BCCFF60191916F0182
:1058700010927913309185132091B6129093B6123D
:10588000931304C0921302C01092B6128091B21208
:10589000E82FF0E040918313E055FD4E941363C070
:1058A000321709F460C01186882321F0B092791371
:1058B0001092B6121092B21210927D1310927C13B5
:1058C00010927F1310927E13B0927A138091791305
:1058D000813009F059C00E9411138093B1128E31AA
:1058E00008F04BC020917B13222309F446C0FC0131
:1058F000FF27EE0FFF1FE857FC4E0190F081E02DCF
:105900003097D9F1199540C0CE014111F4CE3093B2
:10591000800B20937F0B0E94B1210E94031803CFBC
:105920000E94B605688779878A879B87E881F98115
:105930000284F385E02DCE01199597FF3BC10E94AB
:10594000B605488459846A847B846419750986097C
:1059500097094C805D806E807F8064157505860593
:10596000970520F37CCF91878F5F8093B21290913F
:10597000B412891708F09ECFA9CFE0918613F09159
:105980008713309709F0BECF21966BCFC090D20B12
:10599000D090D30BE090D40BF090D50B8091D60B28
:1059A00081110EC10E94B6056C197D098E099F09EF
:1059B000613A7B4B8D409105D8F0A092D60BC0E0A8
:1059C0008091D10BC81788F4EC2FF0E0EE0FFF1F89
:1059D000EF57F44F0190F081E02D118270E060E00C
:1059E00080810E94C204CF5FEBCF81E00E9436111C
:1059F0008091D70B882309F4DAC04AE06DEE7BE092
:105A000084E090E10E94830B41E061EF7BE086E15E
:105A10009EE00E94830B912C8091EC0B981608F06D
:105A2000A3C0E92DF0E0EE0FFF1FE852F44F008114
:105A30001181D8011296CD91DC918CA19DA1AEA1CE
:105A4000BFA1892B8A2B8B2B09F458C03FB7F89440
:105A50008091090C90910A0CA0910B0CB0910C0C48
:105A600026B5A89B05C02F3F19F00196A11DB11DB9
:105A70003FBFBA2FA92F982F88276C017D01C20E36
:105A8000D11CE11CF11C42E0CC0CDD1CEE1CFF1C07
:105A90004A95D1F788A599A5AAA5BBA5B701A601E6
:105AA000481B590B6A0B7B0B8CA19DA1AEA1BFA11A
:105AB000481759076A077B0708F18C859D85AE85D5
:105AC000BF852A81222309F44BC00196A11DB11D77
:105AD0008C879D87AE87BF874C855D856E857F856A
