:100000000C942E030C945F030C945F030C945F0319
:100010000C945F030C945F030C945F030C945F03D8
:100020000C945F030C945F030C945F030C945F03C8
:100030000C945F030C945F030C945F030C945F03B8
:100040000C945F030C94992A0C945F030C945F0347
:100050000C945F030C945F030C945F030C9457297A
:100060000C945F030C94CB290C94A1290C945F038E
:100070000C945F030C945F030C945F030C945F0378
:100080000C946B2A0C945F030C945F030C945F0335
:100090000C945F030C945F030C945F030C94C72AC9
:1000A0000C945F030C945F030C943D2A0C945F0343
:1000B0000C945F030C945F030C945F030C940F2A61
:1000C0000C945F030C945F030C945F030C945F0328
:1000D0000C945F030C945F030C945F030C945F0318
:1000E0000C945F030C94BA080C943B040C946A12B1
:1000F0000C9467050C9418050C9486090C946509FA
:100100000C94F0130C94CF250C94320A0C94BA245E
:100110000C9416040C9429100C94751A0C94370442
:100120000C948A050C94241C0C9453050C943905EA
:100130000C9412280C943F040C9435080C94E3138F
:100140000C946F270C944B050C9494050C940C2480
:100150000C9487080C94E0180C94B8090C94B4081B
:100160000C9454270C9488180C9469080C94B608C5
:100170000C94D6060C942B0A0C942A060C94470A6D
:100180000C949E050C94A8050C94AE080C94A11830
:100190000C94D9220C9449040C944F060C94310908
:1001A0000C9420050C9404040C94CD180C94B20506
:1001B0000C946F250C94400A0C9423040C94C528CD
:1001C0000C9429240C9403140C94AC080C9443054F
:1001D0000C9419040C94B8080C941F040C944E0A47
:1001E0000C94EE050C9429040C948D170C94E923BF
:1001F0000C94CF240C941B060C940E040C94281819
:100200000C940B230C942D040C94B4180C947F13B1
:100210000C943B0E0C94A6260C940A0C0C94D71C40
:100220000C94550A0C9471050C94B5280C94412635
:100230000C94C6160C9425050C947C220C94450451
:100240000C94A7240C9431040C94390A0C94562471
:100250000C94B6100C9412040C9463130C94CE09F5
:100260000C94230A0C943F1E0C94A2100C940C0ABC
:100270000C94B0080C94E72B0C9441060C94800568
:100280000C9455120C9444040C945D050C94B20823
:100290000C94ED0F0C9489060C947D130C94D516D8
:1002A0000C9410230C9456140C9410090C942F05E4
:1002B0000C940A046E2F61004F4B004F4B004F4BC4
:1002C00000427574746F6E20646F6573206E6F7476
:1002D0002066697420696E204D656D6F7279004FDC
:1002E000757470757420646F6573206E6F7420660A
:1002F000697420696E204D656D6F727900375365A2
:10030000676D656E7420646F6573206E6F74206610
:10031000697420696E204D656D6F72792100536597
:1003200072766F20646F6573206E6F7420666974D7
:1003300020696E204D656D6F727921004C43442019
:10034000646F6573206E6F742066697420696E2017
:100350004D656D6F72792100416E616C6F67496EFA
:1003600020646F6573206E6F742066697420696EF7
:10037000204D656D6F7279004F7574707574536898
:10038000696674657220646F6573206E6F74206691
:10039000697420696E204D656D6F727900496E70C9
:1003A00075745368696674657220646F6573206E36
:1003B0006F742066697420696E204D656D6F727967
:1003C00000446967496E4D757820646F6573206ECF
:1003D0006F742066697420696E204D656D6F727947
:1003E000004661696C757265206F6E20726561648C
:1003F000696E6720636F6E666967004D6F6269465C
:100400006C69676874204D656761204B61760045B3
:100410006E636F6465727320646F6573206E6F74B2
:100420002066697420696E204D656D6F7279004C8D
:10043000434420646F6573206E6F74206669742076
:10044000696E204D656D6F727921007E306D793354
:100450005B5F707F7B771F0D3D4F47000000000002
:10046000000000000000000000000000000000008C
:1004700000000000000000800180257E306D79338F
:100480005B5F707F7B00000009000000777F4E7E7D
:100490004F475F37307C000E00767E677E775B4685
:1004A0003E000000336D4E13780008007D1F0D3DA7
:1004B0004F477B373038000600151D6773055B0F0B
:1004C0001C000000276D4E007800004D46537465F7
:1004D0007070657220646F6573206E6F742066693A
:1004E0007420696E204D656D6F727900537465706C
:1004F00070657220646F6573206E6F742066697416
:1005000020696E204D656D6F7279210044657669B2
:100510006365427566666572204F766572666C6FBC
:100520007721004C6F6164696E6720636F6E666946
:1005300067206661696C6564000000210024002763
:10054000002A002D003000330001010000040107E3
:10055000010A0100002200250028002B002E003196
:1005600000340002010000050108010B0100002019
:10057000002300260029002C002F0032000001007B
:10058000000301060109010505050507050808081E
:1005900008020202020A0A08080404040401010114
:1005A000010101010103030303030303030407071C
:1005B000070C0C0C0C0C0C0C0C02020202060606BA
:1005C00006060606060B0B0B0B0B0B0B0B010210A2
:1005D000202008081020401020408002010201085D
:1005E000040201010204081020408080402010080D
:1005F0000402018004020180402010080402010866
:1006000004020101020408102040800102040810C5
:1006100020408000000A0B02090C0D0E080703049D
:1006200001000000000000000000000000000000C9
:1006300000000000000000000000000000000012A8
:100640001110000000000000000000000000000089
:1006500000000000000000000000E72B11241FBE76
:10066000CFEFD1E2DEBFCDBF00E00CBF13E0A0E0D2
:10067000B2E0E8E0F5E700E00BBF02C007900D92A2
:10068000A837B107D9F723E1A8E7B3E001C01D926D
:10069000A13EB207E1F713E0CEE2D3E000E006C0EE
:1006A00021970109802FFE010E94E034CD32D1074D
:1006B00080E00807A9F70E94842C0C94823A0C94DD
:1006C0000000AC011092C0129091901380918F1392
:1006D000FA01BF01641B750B2091C0123081309369
:1006E000C012931304C0921302C01092C012308142
:1006F000311104C0921721F0CB0108953817D1F3BE
:100700003196E7CF0F931F93CF93DF93809184139C
:10071000882309F446C0D0E0C0E0813029F482E0AB
:1007200080938413C4ECD2E180918513882341F136
:10073000209721F4C0918913D0918A138E01CE01A4
:100740000E946103892B29F42196F801808181118F
:10075000F5CFF8018081882309F1C8010E94610367
:10076000F801E80FF91F8081882311F0108231967B
:10077000F0938A13E09389131093881300938713DF
:100780008091871390918813892B59F081E0809391
:100790008513DF91CF911F910F91089510E000E034
:1007A000EBCF80E0F6CF0E948203882351F081E0F6
:1007B000809385138093861380918713909188137B
:1007C00008951092861390E080E008958150823160
:1007D00008F05AC0E82FF0E08827EE50FC4F8F4F0A
:1007E0000C94E0341204160404040A040E044404B5
:1007F00019041F04230429042D04310437043B0485
:1008000044043F0445044904809180008F7780931D
:1008100080000895809180008F7DF9CF80918000C5
:10082000877FF5CF84B58F7784BD089584B58F7D9C
:10083000FBCF8091B0008F778093B00008958091B6
:10084000B0008F7DF9CF809190008F7780939000DA
:100850000895809190008F7DF9CF80919000877FDF
:10086000F5CF8091A0008F778093A00008958091AC
:10087000A0008F7DF9CF8091A000877FF5CF809178
:1008800020018F77809320010895809120018F7D32
:10089000F9CF80912001877FF5CFCF93DF93282F69
:1008A00030E0F901ED5EF94F8491F901E353FA4F1D
:1008B000D491F901E957FA4FC491CC23A1F08111E9
:1008C0000E94E603EC2FF0E0EE0FFF1FE359FA4F12
:1008D000A591B491EC91ED2381E090E009F480E0E2
:1008E000DF91CF91089580E090E0FACF1F93CF93EE
:1008F000DF93282F30E0F901ED5EF94F8491F90183
:10090000E353FA4FD491F901E957FA4FC491CC233C
:10091000A9F0162F81110E94E603EC2FF0E0EE0FF4
:10092000FF1FED5AFA4FA591B4918FB7F894EC914F
:10093000111108C0D095DE23DC938FBFDF91CF91DA
:100940001F910895DE2BF8CFCF93DF9390E0FC0149
:10095000E353FA4F249189579A4FFC0184918823DD
:10096000C9F090E0880F991FFC01E75CFA4FA59150
:10097000B491FC01ED5AFA4FC591D49161110DC0AB
:100980009FB7F8948C91209582238C93888128239B
:1009900028839FBFDF91CF910895623051F49FB7B4
:1009A000F8943C91822F809583238C93E8812E2BA1
:1009B000EFCF8FB7F894EC912E2B2C938FBFEACF0B
:1009C0001F93CF93DF93182FEB0161E00E94A404E3
:1009D000209739F460E0812FDF91CF911F910C9423
:1009E0007604CF3FD10511F461E0F5CFE12FF0E0BF
:1009F000ED5EF94FE491E150E23108F0B3C0F0E070
:100A00008827EA5FFA4F8F4F0C94E03418052005D1
:100A100025052F053905B20543054B0553055D0531
:100A20006705710580058A05B20594059E05A80530
:100A300084B5806884BDC7BDDF91CF911F910895B3
:100A400084B5806284BDC8BDF7CF80918000806886
:100A500080938000D0938900C0938800EDCF80916F
:100A60008000806280938000D0938B00C0938A00C6
:100A7000E3CF80918000886080938000D0938D00C8
:100A8000C0938C00D9CF8091B00080688093B00073
:100A9000C093B300D1CF8091B00080628093B0004A
:100AA000C093B400C9CF809190008068809390007B
:100AB000D0939900C0939800BFCF8091900080623E
:100AC00080939000D0939B00C0939A00B5CF809103
:100AD0009000886080939000D0939D00C0939C000C
:100AE000ABCF8091A00080688093A0008091A0008F
:100AF0008F7B8093A000D093A900C093A8009CCFC7
:100B00008091A00080628093A000D093AB00C0933E
:100B1000AA0092CF8091A00088608093A000D0931B
:100B2000AD00C093AC0088CF809120018068809395
:100B30002001D0932901C09328017ECF809120010C
:100B4000806280932001D0932B01C0932A0174CF3F
:100B500080912001886080932001D0932D01C09363
:100B60002C016ACFC038D1050CF03ECF33CF2FB760
:100B7000F8946091100C7091110C8091120C90916E
:100B8000130C2FBF0895DC01ED91FC910190F081D1
:100B9000E02D1994EF92FF920F931F93CF93DF9361
:100BA0008C017B01D0E0C0E0F701EC0FFD1F6491E8
:100BB000662361F0D801ED91FC910190F081E02D68
:100BC000C8011995892B11F02196EECFCE01DF9146
:100BD000CF911F910F91FF90EF900895AF92BF9228
:100BE000CF92DF92EF92FF920F931F93CF93DF93F9
:100BF0006C017B018B01040F151FEB015E01AE1828
:100C0000BF08C017D10759F06991D601ED91FC9149
:100C10000190F081E02DC6011995892B79F7C50166
:100C2000DF91CF911F910F91FF90EF90DF90CF90C8
:100C3000BF90AF900895FC01538D448D252F30E077
:100C4000842F90E0821B930B541710F0CF960895D9
:100C500001970895FC01918D828D981779F0A28DEE
:100C6000AE0FBF2FB11D5D962C91828D8F5F60E618
:100C70000E949E34928F822F90E008958FEF9FEF15
:100C80000895FC01918D828D981731F0828DE80FC7
:100C9000F11D858D90E008958FEF9FEF0895FC0181
:100CA000918D228D892F90E0805A9F4F821B910950
:100CB00060E670E00E94B83408958EEF91E10E94E2
:100CC0004F0621E0892B09F420E0822F0895FC01D2
:100CD000A48DA80FB92FB11DA358BF4F2C91848D9F
:100CE00090E001968F739927848FA689B7892C93FA
:100CF000A089B1898C91837080648C93938D848D4D
:100D0000981306C00288F389E02D80818F7D80834F
:100D10000895EF92FF920F931F93CF93DF93EC010F
:100D200081E0888F9B8D8C8D98131AC0E889F98992
:100D3000808185FF15C09FB7F894EE89FF89608395
:100D4000E889F98980818370806480839FBF81E016
:100D500090E0DF91CF911F910F91FF90EF90089558
:100D6000F62E0B8D10E00F5F1F4F0F731127E02E33
:100D70008C8D8E110CC00FB607FCFACFE889F9896B
:100D8000808185FFF5CFCE010E946706F1CFEB8D04
:100D9000EC0FFD2FF11DE358FF4FF0829FB7F89441
:100DA0000B8FEA89FB8980818062CFCFCF93DF935D
:100DB000EC01888D8823B9F0AA89BB89E889F98973
:100DC0008C9185FD03C0808186FD0DC00FB607FCA8
:100DD000F7CF8C9185FFF2CF808185FFEDCFCE01DB
:100DE0000E946706E9CFDF91CF91089580E090E0FF
:100DF000892B29F00E945D0681110E94000080E08D
:100E000090E0892B49F080E090E0892B29F00E9446
:100E1000000081110E94000080E090E0892B49F0E1
:100E200080E090E0892B29F00E94000081110E944F
:100E3000000080E090E0892B49F080E090E0892B71
:100E400029F00E94000081110C9400000895AF92D7
:100E5000BF92CF92DF92EF92FF920F931F93CF93A7
:100E6000DF936B017A01EC01C358D44F28813CE039
:100E7000389F8001399F100D1124A0907C0BB12C5C
:100E800027FF1FC0FB011182108288818F5F88833A
:100E900088819801280F311D87FD3A95F6012A15A2
:100EA0003B051CF488818C30C4F1808191810496CB
:100EB00080349C4908F473C0F601808191810496C6
:100EC00070C088819801280F311D87FD3A952A1539
:100ED0003B05DCF68881A801480F511D87FD5A9516
:100EE000FA01EE0FFF1FE40FF51FE451F54F80816B
:100EF00086FFCBCF8881F801E80FF11D87FDFA95B9
:100F0000CF01EE0FFF1FE80FF91FE451F54F80816D
:100F100060E08F730E947604B8CF80819181288130
:100F2000A801420F511D27FD5A959A01FA01EE0FB3
:100F3000FF1FE20FF31FE451F54F21813281820F31
:100F4000931FF7019183808388819801280F311DB9
:100F500087FD3A95F901EE0FFF1FE20FF31FE451F1
:100F6000F54F808186FF22C08881080F111D87FD03
:100F70001A95F801EE0FFF1FE00FF11FE451F54F36
:100F8000808161E08F73DF91CF911F910F91FF906E
:100F9000EF90DF90CF90BF90AF900C94760480E4F8
:100FA0009CE9F701918380838FEF8883DF91CF9154
:100FB0001F910F91FF90EF90DF90CF90BF90AF9077
:100FC00008952091A20A260F3327331F21323105BD
:100FD000ECF42091C60AFC0190E080E0243069F036
:100FE00082E00895A091A20A2191AC014E57554F7D
:100FF000A40FB52FB11D2C930196861798F38091FD
:10100000A20A680F6093A20A80E0089581E0089523
:1010100008958FEF9FEF08958FEF9FEF08958091D0
:101020007B0A90E09195819591090895CF93DF9384
:10103000CB01EA01642F0E94E107CE01DF91CF913D
:101040000895CF93DF931F92CDB7DEB7698361E038
:10105000CE0101960E94E10781E090E00F90DF91C0
:10106000CF91089590E080E00895CF93DF93FC0145
:101070002381222359F1EC0161E084810E94A404C0
:1010800061E08D810E94A4048B81843011F088304E
:10109000B1F461E08E810E94A40461E08F810E941E
:1010A000A4048FA58F3F91F061E00E94A4046EA577
:1010B00081E068278FA5DF91CF910C94760483306F
:1010C00011F0863071F761E08E81E9CFDF91CF9129
:1010D0000895CF93DF93FC0123812223A9F0EC0133
:1010E0000190F081E02D0480F581E02D60E01995FC
:1010F0008FA58F3F49F061E00E94A4046EA58FA5E3
:10110000DF91CF910C947604DF91CF910895DC01AB
:10111000ED91FC9111972481358147705527662701
:10112000772741505109610971094730510561051F
:10113000710570F4FA018827EF55F74F8F4F0C9423
:10114000E034AC08AE08B008B208B408B608B80875
:1011500061E0CD01F901199465E0FBCF64E0F9CFBE
:1011600066E0F7CF62E0F5CF6AE0F3CF68E0F1CF59
:1011700069E0EFCFCF93DF93EC01CB01BA0126E01A
:1011800030E040E050E00E945D346230710581053E
:10119000910589F16CF46115710581059105D1F016
:1011A0006130710581059105F9F0DF91CF910895C6
:1011B000643071058105910561F124F16530710597
:1011C0008105910591F7E881F9810480F581E02D91
:1011D00066E006C0E881F9810480F581E02D64E0D5
:1011E000CE01DF91CF911994E881F9810480F581D6
:1011F000E02D65E0F5CFE881F9810480F581E02DEF
:1012000061E0EECFE881F9810480F581E02D63E0B3
:10121000E7CFE881F9810480F581E02D62E0E0CF3D
:10122000DC01ED91FC910480F581E02D43705527A0
:1012300066277727423051056105710571F043300B
:1012400051056105710559F0413051056105710580
:1012500011F065E0199466E0FDCF6AE0FBCF69E02C
:10126000F9CFCF93DF93EC01CB01BA0123E030E05B
:1012700040E050E00E945D346130710581059105C8
:1012800099F06230710581059105A9F0672B682BF3
:10129000692BC1F4E881F9810480F581E02D64E0D7
:1012A000CE01DF91CF911994E881F9810480F58115
:1012B000E02D61E0F5CFE881F9810480F581E02D32
:1012C00062E0EECFDF91CF910895DC01ED91FC91CA
:1012D0000480F581E02D437055276627772742303B
:1012E00051056105710571F04330510561057105C6
:1012F00059F0413051056105710511F062E0199412
:1013000063E0FDCF61E0FBCF60E0F9CFCF93DF93E7
:10131000EC01E881F9810480F581E02D8A8160E0AB
:10132000811162E0CE011995E881F9810480F5818F
:10133000E02D8A8161E0811163E0CE0119958CA5D1
:101340009DA58230910538F0880F991F880F991F4D
:1013500005970197F1F7E881F9810480F581E02D87
:101360008A8160E0811162E0CE01DF91CF91199412
:10137000CF93DF93EC0120E030E0A9016C897D89F7
:101380008E899F890E94FD3518162CF4E8A9F9A9C9
:10139000DF91CF911994EAA9FBA9FACFCF92DF92FE
:1013A000EF92FF920F931F93CF93DF93DC0113967D
:1013B000CC91C43039F0C83059F1C33019F0C6307F
:1013C00049F1C2E08C010C5F1F4FF12CE12CC62EBD
:1013D000D12CD1E0F8016481C6010E2C02C0959594
:1013E00087950A94E2F780FD6D270F5F1F4F80817C
:1013F0000E947604BFEFEB1AFB0AEC1658F3DF915C
:10140000CF911F910F91FF90EF90DF90CF900895B3
:10141000C4E0D8CFC3E0D6CFDC011396EC9113978C
:10142000E93008F042C0F0E08827E65EF54F8F4FC4
:101430000C94E034230A2B0A320A390A400A550A6E
:10144000470A550A4E0AED91FC9111970084F185E7
:10145000E02DCD011994ED91FC9111970284F38553
:10146000E02DF7CFED91FC9111970484F585E02DE7
:10147000F0CFED91FC9111970684F785E02DE9CF2F
:10148000ED91FC9111970088F189E02DE2CFED916B
:10149000FC9111970288F389E02DDBCFED91FC914F
:1014A00011970488F589E02DD4CF08954F925F926B
:1014B0006F927F928F929F92AF92BF92CF92DF9264
:1014C000EF92FF920F931F93CF93DF93EC01C888A5
:1014D000D988EA88FB888C859D85AE85BF85C81A2A
:1014E000D90AEA0AFB0A6C897D898E899F899B014A
:1014F000AC010E9454334B015C016C8D7D8D8E8D4F
:101500009F8D9B01AC010E94E9349B01AC01C50198
:10151000B4010E9455350E94C735C114D104E104BD
:10152000F10409F0B1C062307105810591050CF03C
:10153000CBC01CA21DA21EA21FA21C8A1D8A1E8A2D
:101540001F8A1CAA1DAA1EAA1FAADF91CF911F9154
:101550000F91FF90EF90DF90CF90BF90AF909F9052
:101560008F907F906F905F904F90089510161106A6
:1015700012061306B4F46C157D058E059F051CF448
:101580002A812111A1C09B01AC0188279927DC0188
:10159000821B930BA40BB50B8CAB9DABAEABBFAB5F
:1015A00093C0011511052105310509F48DC06C1595
:1015B0007D058E059F050CF087C08A81882309F47C
:1015C00083C030952095109501951F4F2F4F3F4FA9
:1015D0000CAB1DAB2EAB3FAB77C001151105210540
:1015E000310509F471C08824992454018C189D0890
:1015F000AE08BF08681579058A059B050CF064C024
:101600008A81811161C0DDCFCCACDDACEEACFFAC2A
:10161000A7019601C701B6010E94E9342B013C01E4
:10162000C501B4010E94F53220E030E040E850E40A
:101630000E94543320E030E040E85FE30E94E93448
:101640009B01AC01C301B2010E9455359B01AC0165
:10165000C701B6010E94E8343B016C01FE01E05C69
:10166000FF4FE080F180028113819701A8010E9461
:10167000FD35181614F473018601C701D8018CAF2B
:101680009DAFAEAFBFAF3AC00CA91DA92EA93FA90F
:101690001C141D041E041F040CF468CF1016110640
:1016A000120613060CF099CF0027112798010C1988
:1016B0001D092E093F0960177107820793070CF077
:1016C00062CF2A8121115FCF8CA89DA8AEA8BFA8A8
:1016D00081149104A104B10409F096CF88AD99ADAD
:1016E000AAADBBAD8CAF9DAFAEAFBFAF81E01C1458
:1016F0001D041E041F040CF080E08A833FEF831A50
:10170000930AA30AB30A8CAA9DAAAEAABFAACCAC1C
:10171000DDACEEACFFACC701B6010E94CE356CA3C8
:101720007DA38EA39FA3A701960160E074E284E7E6
:1017300099E40E9455356C8B7D8B8E8B9F8B2A8113
:10174000211103CF90586C8B7D8B8E8B9F8BFDCEA0
:101750008F929F92AF92BF92EF92FF920F931F933F
:10176000CF937C018B01C42F0E94B705F8018080C4
:101770009180A280B380DC01CB0188199909AA0964
:10178000BB094C2F50E070E060E084179507A60776
:10179000B70748F0F70119950E94B705F801608373
:1017A000718382839383CF911F910F91FF90EF906C
:1017B000BF90AF909F908F9008952091790A3091BB
:1017C0007A0A280F311D81E02D3D354008F080E078
:1017D0000895FC0184818823E1F08181811119C081
:1017E00081E0818382819381FC01408951896289F2
:1017F0007389403659476E4F7F4F59F040E659E79D
:101800006EEF7FEFFC01408B518B628B738B0C94DE
:10181000560A08954F925F926F927F928F929F9295
:10182000AF92BF92DF92EF92FF920F931F93CF93ED
:10183000DF93D12C08E810E0B8E5EB2EB2E0FB2EE8
:10184000C4EB4C2E512C612C712C80919C04D81629
:1018500008F096C0ED2DF0E0EE0FFF1FE857FB4FAC
:10186000C081D18189899A89AB89BC894D855E8582
:101870006F85788984179507A607B70709F47AC09A
:10188000481759076A077B070CF076C00197A10932
:10189000B109898B9A8BAB8BBC8BA989BA89A03291
:1018A00082E0B807ACF52B854801821A910827FD24
:1018B0009394880C991C880C991C092C000CAA087C
:1018C000BB082C85C701821B910927FD93959C01BC
:1018D000220F331F220F331F032E000C440B550B16
:1018E000281939094A095B09A53BB10514F0A4EB95
:1018F000B0E0B7FF02C0B0E0A0E00E948734A301CF
:1019000092010E945D34820E931EA41EB51ED40166
:10191000EA85E03378F52B85C801821B910927FD04
:1019200093959C01220F331F220F331FA217B30779
:101930007CF02C85C701821B910927FD93959C01A2
:10194000220F331F220F331FA217B3070CF49D0180
:1019500022503109220F331F4FB7F8948E2F90E099
:10196000FC01EE0FFF1FE80FF91FE451F54F328322
:1019700021834FBFD39469CF0196A11DB11D89CF9B
:10198000DF91CF911F910F91FF90EF90DF90BF906B
:10199000AF909F908F907F906F905F904F90089541
:1019A000EF92FF921F93CF93DF93EC01162F8C8160
:1019B00080FF10C0603170F46D837E0184E0E80E1A
:1019C000F11C612F617089910E9476041695EC16C6
:1019D000FD06B9F7DF91CF911F91FF90EF90089529
:1019E000DF92EF92FF920F931F93CF93DF937C01CF
:1019F000D62FD42EC0E00BE410E060E0F701828126
:101A00000E947604C8010197F1F76D2F661F6627C3
:101A1000661FF70181810E947604C8010197F1F7E2
:101A200061E0F70182810E947604C8010197F1F715
:101A3000CF5FDD0FDC12E1CFDF91CF911F910F91CE
:101A4000FF90EF90DF9008951F93CF93DF93EC0109
:101A5000162F60E088810E94760444E060E8CE01A1
:101A60000E94F00C48E0612FCE010E94F00C61E072
:101A70008881DF91CF911F910C947604AF92BF9231
:101A8000CF92DF92EF92FF920F931F93CF93DF934A
:101A9000EC01162F69017A0160E088810E947604CA
:101AA00043E060EACE010E94F00C612F660F660FE2
:101AB00046E0CE010E94F00C10E09BE4A92EB12C70
:101AC00060E08A810E947604C5010197F1F76C2DD0
:101AD000617089810E947604C5010197F1F761E088
:101AE0008A810E947604C5010197F1F71F5FF69481
:101AF000E794D794C7940113E3CF61E08881DF9125
:101B0000CF911F910F91FF90EF90DF90CF90BF90FA
:101B1000AF900C9476040F93FC01E60FF11D23A106
:101B200030E050E040E0660F08E00E943E0D0F916B
:101B300008959C014D3008F04BE0D901A60FB11D6E
:101B400093969C9193979170E42FF0E0E957FD4FA5
:101B50008081982B93969C93C9010C948B0DCF9206
:101B6000DF92EF92FF920F931F93CF93DF938C013D
:101B7000EB01683E734010F0C7EED3E08AE0E82E38
:101B8000F12CCE01B7010E94B8346B01482F62E0FE
:101B9000C8010E94990DC601B7010E94B834482FB0
:101BA00061E0C8010E94990DCE0164E670E00E94D8
:101BB000B834462F60E0C801DF91CF911F910F919B
:101BC000FF90EF90DF90CF900C94990D0F93FC0154
:101BD000E60FF11D23A130E050E040E0660F08E081
:101BE0000E943E0D0F9108959C01DC01A60FB11DCE
:101BF00093969C91939790714E3008F04DE0E42FAE
:101C0000F0E0E758FD4F8081982B93969C93C90193
:101C10000C94E60DCF93DF93EC0161E089810E9483
:101C2000A40461E08A810E94A40461E088810E948A
:101C3000A40461E088810E94760461E08A810E94A8
:101C4000760461E089810E947604FE013396A396B2
:101C50001192EC17FD07E1F7DF91CF910895DC01B8
:101C6000842FE0916804F0916904309719F04D9148
:101C70005C91199408954F925F926F927F928F9228
:101C80009F92AF92BF92CF92DF92FF920F931F93DA
:101C9000CF93DF93F12C80915E04F81608F0EEC02C
:101CA000EF2DF0E0EE0FFF1FEA5CFB4FC081D1810A
:101CB0008A81882309F4B3C088810E944D048C0175
:101CC00089810E944D046C010E94B7054B015C01A3
:101CD00081E090E0CD2811F090E080E0880F991F1E
:101CE00021E0012B09F020E0922F982B4B8D5C8D89
:101CF0006D8D7E8D95018401041B150B260B370B12
:101D0000B901A801453651056105710508F489C07E
:101D10008885823008F485C08B8E9C8EAD8EBE8EF9
:101D200081508887EE859E1709F445C0888503E3B6
:101D300010E0873010F401E010E06D8524E0E2024D
:101D4000F0011124492F092E000C550BE42BF52B23
:101D5000E759FD4F708170039001719F300D112480
:101D6000062E02C0220F331F0A94E2F7EF85F8898E
:101D70002E0F3F1F388B2F874C0F5D1FFA014185B7
:101D80004423C1F04B885C886D887E884F8A588ECA
:101D9000698E7A8E8B8A9C8AAD8ABE8A02C03595FE
:101DA00027956A95E2F73A8B298B8C3008F08BE007
:101DB0008F5F88879E8709891A898D819E81081780
:101DC000190769F19801281B390BC901E091340406
:101DD000F09135046901CC0CDD1C309709F44BC03F
:101DE0004B815C812F5C3F4F23363105E0F597FD39
:101DF00030C0688180E01995C00ED11E31E4C31651
:101E00003FE1D30654F08F85988983709927988B8A
:101E10008F871A8A198A10E000E01E830D83F394DD
:101E20003ACF4F89588D698D7A8D95018401041BB5
:101E3000150B260B370BB901A801453F5140610531
:101E4000710508F46FCF8B8E9C8EAD8EBE8E18867A
:101E500069CF698182E01995C8018C199D09803C80
:101E6000904E8CF2DACF97FD03C0688181E0C3CF3A
:101E7000698183E0F0CF37FDEFCFBECFDF91CF9107
:101E80001F910F91FF90DF90CF90BF90AF909F90E8
:101E90008F907F906F905F904F900895CF92DF92D8
:101EA000EF92FF920F931F93CF93DF936C017A0110
:101EB0008091320490913304892B31F1D60113962D
:101EC0008C9100E181FD08E0EB01CE25DF2510E0DB
:101ED000C0FF13C08091320490913304892B69F0C4
:101EE000E0913004F0913104309739F0D6014D91F2
:101EF0005C91612F8E2D81701995D695C795F694BA
:101F0000E7941F5F0113E4CFDF91CF911F910F91F1
:101F1000FF90EF90DF90CF900895AF92BF92CF9255
:101F2000DF92EF92FF920F931F93CF93DF931F9255
:101F3000CDB7DEB7C0903204D0903304C114D104C1
:101F400009F43FC0FC01238130E1B32E21FF02C020
:101F500028E0B22EA62E8C01F60185818683F12C15
:101F6000E12CBA946B2DC6010E94D00CF80182813D
:101F70000E944D048983F80182810E944D04898367
:101F8000EE0CFF1C298181E090E0211102C090E05D
:101F900080E0E82AF92AB110E4CFF6016681C60193
:101FA0000E94D00CF801648175816E157F0549F09F
:101FB000AA2021F0A701C8010E944E0FF801F58266
:101FC000E4820F90DF91CF911F910F91FF90EF90DE
:101FD000DF90CF90BF90AF900895CF93C0E08091F5
:101FE0002F04C81768F4EC2FF0E0EE0FFF1FE95D37
:101FF000FB4F61E0808191810E948D0FCF5FEFCF19
:10200000CF910895DC01E0912504F09126043097EA
:1020100061F013968C911397882339F04D915C9160
:10202000119712966C9181E019940895DC01E0916A
:102030002504F0912604309759F013968C9113974C
:10204000811106C04D915C91119712966C91199473
:1020500008951F93CF93DF9310E080912404181705
:10206000F0F4E12FF0E0EE0FFF1FE456FC4FC081CB
:10207000D1818A810E944D049B81891751F091E0A2
:10208000811101C090E09B83811105C0CE010E94A7
:1020900016101F5FE2CFCE010E940210FACFDF912F
:1020A000CF911F910895FC01A08DB0E01396AA0F67
:1020B000BB1FA80FB91F868997892D913C91821B60
:1020C000930B978B868B8281863308F08653209101
:1020D0007B00982F9870277F922B90937B008770BE
:1020E000806480937C0080917A00806480937A0081
:1020F00080917A0086FDFCCF9091780080917900E4
:10210000A08DB0E01396AA0FBB1FAE0FBF1F89278B
:10211000982789278D939C93A08DB0E01396AA0FE2
:10212000BB1FAE0FBF1F868997892D913C91820FEF
:10213000931F978B868B808D8F5F808F808D8770AC
:10214000808F0895CF93C0E080919B03C81760F4FF
:10215000EC2FF0E0EE0FFF1FE558FC4F80819181DE
:102160000E945310CF5FF0CFCF910895CF93C0E07E
:1021700080919B03C817B8F5EC2FF0E0EE0FFF1F1E
:10218000E558FC4FA081B18156968D919C9157974F
:1021900023E0969587952A95E1F713962D913C912A
:1021A0001497AC01421B530B9A0157FF03C03195A2
:1021B0002195310915964C9115974217130609F090
:1021C00084F414969C938E931397E0917903F09185
:1021D0007A03309731F04D915C91119712966C9182
:1021E0001995CF5FC5CFCF9108950E94B705609331
:1021F000D40B7093D50B8093D60B9093D70B089587
:102200000F931F93CF93DF93082F162FD42FC8E07F
:102210006D2F661F6627661F802F0E947604DD0FD4
:1022200061E0812F0E94760460E0812F0E94760495
:10223000C15071F7DF91CF911F910F910895EF92E7
:10224000FF920F931F93CF93DF931F921F92CDB7EF
:10225000DEB78C0149832A83660F771FF801E68871
:10226000F788EE0CFF1CCF01801B910B8E159F058C
:1022700014F41192F8CF8981F801E60FF71F8183DA
:102280008A81808360E0F80184890E9476041E14AC
:102290001F046CF4F1E0EF1AF108F801EE0DFF1DD8
:1022A0004081F801628980890E940011F0CF61E0CD
:1022B000F80184890F900F90DF91CF911F910F91BA
:1022C000FF90EF900C94760477FD0DC0FC012689F9
:1022D0003789621773073CF420E0411101C021E007
:1022E0004CE00C941F110895FF920F931F93CF930E
:1022F000DF93F82EC0E080917F04C817B8F4EC2F6C
:10230000F0E0EE0FFF1FE058FB4F00811181D0E09D
:10231000F801808D8D1741F06D2F70E04F2DC801B1
:102320000E946411DF5FF4CFCF5FE5CFDF91CF91E3
:102330001F910F91FF9008950F931F93CF93DF93F9
:10234000FC01208D2223F9F06217E8F4062F10E03B
:102350004423B1F0EC0186899789081719073CF4EA
:102360002FEF240F4AE0B801CF010E941F1140E077
:10237000B801CE01DF91CF911F910F910C946411A0
:1023800041E0B801F7CFDF91CF911F910F910895F0
:10239000FF920F931F93CF93DF93EC0160E088814E
:1023A0000E947604FB800F2D10E00C5F1F4F0C0F76
:1023B0001D1FFF2049F0F80142918F0169818A8138
:1023C0000E940011FA94F5CF61E08881DF91CF91EE
:1023D0001F910F91FF900C9476049F92AF92BF9241
:1023E000CF92DF92EF92FF920F931F93CF93DF93E1
:1023F000EC01C62E61E08B810E94760461E08A8147
:102400000E94760410E08D81181708F03FC0DB8031
:10241000BC8087E0E82EF12C00E061E08D2D0E9469
:1024200076048B2D0E944D040E2C01C0880F0A9457
:10243000EAF7082B60E08D2D0E94760481E0E81A0F
:10244000F10858F75E01A10EB11CF501D780D01636
:10245000D9F0CC20B9F0912E990C990C990CE02E62
:10246000F12C8D2D8E2580FF07C04E2D4170692DDA
:102470006F0DCE010E942F0ED694E694F394F8E0EF
:10248000FF12EFCFF50107831F5FBDCF60E08A81A8
:10249000DF91CF911F910F91FF90EF90DF90CF9040
:1024A000BF90AF909F900C947604CF93C0E0809142
:1024B0006704C81768F4EC2FF0E0EE0FFF1FE15A35
:1024C000FB4F61E0808191810E94ED11CF5FEFCFE2
:1024D000CF9108957F928F929F92AF92BF92CF92A9
:1024E000DF92EF92FF920F931F93CF93DF93C0E0A1
:1024F00080912404C81760F4EC2FF0E0EE0FFF1F6A
:10250000E456FC4F808191810E940210CF5FF0CF92
:10251000C0E080912404C81760F4EC2FF0E0EE0FC7
:10252000FF1FE456FC4F808191810E941610CF5FFF
:10253000F0CF10E080916704181708F057C0E12F22
:10254000F0E0EE0FFF1FE15AFB4FC081D18160E048
:10255000CE010E94ED116E0187E0C80ED11C46012C
:10256000712CF12CE12C8D818E151F04D9F0D4F043
:10257000F40181914F0100E0A82EB12C80FF06C02C
:1025800041E0672D600FCE010E942F0EB594A794F5
:102590008A2D0F5F083081F7FFEFEF1AFF0A88E0FE
:1025A000780EE1CFF12C912C812C8D8188151904A6
:1025B000D9F0D4F0F60181916F0100E0A82EB12C82
:1025C00080FD06C040E06F2D600FCE010E942F0EEF
:1025D000B594A7948A2D0F5F083081F7FFEF8F1A0B
:1025E0009F0A88E0F80EE1CF1F5FA4CF0E94F5108C
:1025F00010E080912F041817E0F4E12FF0E0EE0FC7
:10260000FF1FE95DFB4FC081D18160E0CE010E94D8
:102610008D0F4C815D8170E060E0CE010E944E0F15
:102620004C815D816FEF7FEFCE010E944E0F1F5FE7
:10263000E0CFC0E080919B03C81718F5EC2FF0E0C5
:10264000EE0FFF1FE558FC4FA081B18156968D918A
:102650009C91579723E0969587952A95E1F71496D4
:102660009C938E931397E0917903F0917A033097BE
:1026700031F04D915C91119712966C911995CF5F45
:10268000D9CFDF91CF911F910F91FF90EF90DF9005
:10269000CF90BF90AF909F908F907F9008950E94B1
:1026A0008203882359F081E08093851380938613F9
:1026B00080918713909188130C945832109286134E
:1026C00090E080E008951F93CF93DF930E944F1313
:1026D000EC010E944F13182F0E944F13CC0FDD1FE7
:1026E000C058DB4F482F612F888199810E949C112F
:1026F000DF91CF911F910C94F5100C9463137F928E
:102700008F929F92AF92BF92CF92DF92EF92FF9201
:102710000F931F93CF93DF930E944F13EC010E94FE
:102720004F138C010E94D3034C010E944F135C0194
:102730000E944F13CC0FDD1FC058DB4FE880F9809B
:10274000F701208D222381F1C7E0D0E0712C6C01CC
:10275000DD241127BB244C2F4F5F96010C2E02C0A5
:10276000359527950A94E2F720FF1CC0F7012689CA
:10277000378902171307ACF4F401E70DF11DE0816E
:10278000F0E0E55BFB4F2491B5010C2E02C075957E
:1027900067950A94E2F760FD2068B801C7010E94BE
:1027A0001F1173942197B8F6DF91CF911F910F916C
:1027B000FF90EF90DF90CF90BF90AF909F908F9061
:1027C0007F900C94F510CF930E944F13C82F0E9456
:1027D0004F13BC018C2F0E94E004CF910C94F51094
:1027E0000E944F132091EE0B821760F4FC01FF272B
:1027F000EE0FFF1FE652F44F808191810E94E90B9A
:102800000C94F51008950F931F930E944F1320917D
:10281000EE0B821708F047C0FC01FF27EE0FFF1FE9
:10282000E652F44FA081B1811296ED91FC9113977D
:102830001486158616861786108A118A128A138ABC
:1028400014AA15AA16AA17AA14A215A216A217A2AC
:10285000148A158A168A178A1C968C911C978823CD
:10286000F1F012968D919C9113971A964C9150E02D
:10287000519541955109052E000C660B770BFC0113
:10288000008911892289338940175107620773072C
:1028900031F0408B518B628B738B0E94560A1F91D3
:1028A0000F910C94F5101F910F9108958F929F92A4
:1028B000AF92BF92CF92DF92EF92FF921F93CF938E
:1028C000DF930E944F13EC010E944F13BC018091D3
:1028D0009C048C171D0609F00CF4DCC0CC0FDD1F26
:1028E000C857DB4F0990D881C02DCD80DE800D2CDC
:1028F000000CEE08FF0889809A80092C000CAA08B9
:10290000BB082F813885032E000C440B550B2C1966
:102910003D094E095F09072E000C880B990B6819B9
:1029200079098A099B090E942B342B813C81032E53
:10293000000C440B550B281939094A095B090E9400
:102940005D34BA01A9014C0D5D1D6E1D7F1D052E64
:10295000000C660B770B8D859E85AF85B889841733
:102960009507A607B70709F45CC04D875E876F8798
:10297000788B8985811155C08A85803308F04FC0D6
:10298000188161E0812F0E94A4048A85282F30E0FD
:10299000F901EE0FFF1FE20FF31FE451F54F1F7314
:1029A0009081907C912B90831B861C862CE0622F5B
:1029B0000E949E34829FB001112430E020E0AB01E0
:1029C000420F531FFA01EE0FFF1FE40FF51FE451F2
:1029D000F54F908196FD16C02F5F3F4F2C3031058B
:1029E00071F7813059F51092800082E08093810068
:1029F0001092850010928400B19A80916F008260DD
:102A000080936F00EA858E2F90E0FC01EE0FFF1F90
:102A1000E80FF91FE451F54F80818064808381E0E5
:102A20008987DF91CF911F91FF90EF90DF90CF903A
:102A3000BF90AF909F908F900C94F510823061F40E
:102A40001092900080939100109295001092940043
:102A500088BB80937100D6CF833069F41092A000B8
:102A600082E08093A1001092A5001092A40089BB7F
:102A700080937200C7CF8111C5CF1092200182E0F0
:102A80008093210110922501109224018ABB80932A
:102A90007300B8CFDF91CF911F91FF90EF90DF903F
:102AA000CF90BF90AF909F908F9008952091FC1190
:102AB0003091FD118217930710F40C94153480E0C7
:102AC00008950F931F93CF93DF938C01EB01F801CF
:102AD000808191819C012F5F3F4F318320830E9431
:102AE000561528813981A9014F5F5F4F598348836B
:102AF0002C5E334FF901808328813981283EF3E031
:102B00003F0760F48A3319F72D5E334FF9011082C5
:102B100081E0DF91CF911F910F91089580E0F9CF6F
:102B2000EF92FF920F931F93CF93DF93EC01E0900E
:102B3000FC11F090FD11888199818C010F5F1F4F6E
:102B4000198308830E945615E016F10650F08A3367
:102B500091F781E0DF91CF911F910F91FF90EF905E
:102B6000089580E0F7CFAF92BF92CF92DF92EF92BD
:102B7000FF920F931F93CF93DF9300D01F92CDB797
:102B8000DEB75C0119821A821B821C82CE0101967B
:102B90007C0110E000E06C01F501808191819C01D5
:102BA0002F5F3F4F318320830E945615F7018083AA
:102BB000F8018E3241F00F5F1F4F8FEFE81AF80ACD
:102BC0000430110549F7EC0DFD1D1082C6010E946D
:102BD00058320F900F900F900F90DF91CF911F916F
:102BE0000F91FF90EF90DF90CF90BF90AF9008953E
:102BF000FB0101900020E9F73197AF01461B570B0D
:102C0000DC01ED91FC910280F381E02D199480911B
:102C1000BB128823A1F060918E1380918C13909148
:102C20008D130E94C3058091C312882341F060EC8C
:102C300072E080918C1390918D130E94F815109280
:102C4000C2121092BB1280E008958F929F92AF92B1
:102C5000BF92EF92FF920F931F93CF93DF93CDB765
:102C6000DEB7A1970FB6F894DEBF0FBECDBF7C01D3
:102C7000FA01CB0119A2223008F42AE08E010F5D7F
:102C80001F4F822E912CB12CA12CBF01A5019401C4
:102C90000E943B34F901CA016A300CF5605DD8012D
:102CA0006E938D01232B242B252B79F790E080E068
:102CB000109721F0BD01C7010E94F815A1960FB62B
:102CC000F894DEBF0FBECDBFDF91CF911F910F9162
:102CD000FF90EF90BF90AF909F908F900895695CA8
:102CE000DECFCF939091BB129923A9F0C82F6091AA
:102CF0008F1380918C1390918D130E94C3054C2FDC
:102D000050E070E060E02AE080918C1390918D1388
:102D1000CF910C942516CF9108959091BB129111EB
:102D200010C091E09093BB129093C212482F50E0D4
:102D300070E060E02AE080918C1390918D130C94E8
:102D400025160895CF93DF939091BB1291111AC06D
:102D5000EB010E948D168091BB12882379F060915F
:102D60008F1380918C1390918D130E94C305BE0127
:102D700080918C1390918D130E94CA05DF91CF91A1
:102D80000C94071680E0DF91CF9108950E94B7055B
:102D90006093D40B7093D50B8093D60B9093D70B85
:102DA00064EB72E085E00C94A2161F93CF93DF933F
:102DB0001092240410925E041092D30B90917F0421
:102DC000E0E8F4E080E0981731F0A191B1915896D5
:102DD0001C928F5FF8CF10927F0430919C04C8E85A
:102DE000D4E020E03217D1F0A991B99119968C91D5
:102DF0001997882389F01A96EC911A978E2F90E0F4
:102E0000FC01EE0FFF1FE80FF91FE451F54F808121
:102E10008F7B808319961C922F5FE4CF10929C04C5
:102E20009091EE0BEAEDFBE080E0981729F0A1917C
:102E3000B1911C928F5FF9CF1092EE0B20916A0432
:102E400030E0ABE6B4E0C1E7D4E090E080E0821788
:102E5000930784F4E991F991309719F044A941114D
:102E600014AAED91FD91309719F043A9411113AACD
:102E70000196EDCF10926A0410929B039091780313
:102E8000E7E7F4E080E0981759F0A191B191189626
:102E90002C911897222311F018961C928F5FF3CF74
:102EA0001092780390916704EFE5F4E080E09817C2
:102EB00031F0A191B19116961C928F5FF8CF1092CC
:102EC000670410E0E0912F041E1798F4F0E0EE0F75
:102ED000FF1FE95DFB4FC081D1818B8180FF07C05F
:102EE00062E08A810E94A4048B818E7F8B831F5FA6
:102EF000E9CF10922F041092820B1092810B109246
:102F0000D90B10927A0A1092790A68EB72E085E088
:102F1000DF91CF911F910C94A2166BEB72E08FE0C2
:102F20000C94A2162091790A30917A0A820F932F7D
:102F3000911D90937A0A8093790A8C3D954040F0D8
:102F40006CE075E085E00E94A21690E080E00895B4
:102F5000C90183569B4F0895CF92DF92EF92FF9263
:102F60000F931F93CF93DF9390915E04943109F4F4
:102F70005EC07901142FC62ED82E8FE10E94DD0B82
:102F800081110DC06FE074E085E0DF91CF911F915A
:102F90000F91FF90EF90DF90CF900C94A2168FE1ED
:102FA0000E949217EC01892B09F01A8200915E04AD
:102FB000E02FF0E0EE0FFF1FEA5CFB4FD183C083F0
:102FC0001E821D82FC82EB82D882C98285E0819FAD
:102FD000F0011124E05BFD4FDE01199601900D9286
:102FE0008A95E1F762E08D2D0E94A40462E0898158
:102FF0000E94A4041E86188A1F861A8A198A1886B7
:103000001F8A188E198E1A8E84EF91E0A0E0B0E02E
:103010008B8B9C8BAD8BBE8B81E08A8381EA98E1A0
:1030200090933504809334040F5F00935E04DF9126
:10303000CF911F910F91FF90EF90DF90CF90089567
:1030400081E08093D90B6EEB72E081E10C94A216C3
:10305000CF93DF930E94F5108AE00E948D16809135
:10306000810B9091820B892B91F18BE390E00E9470
:103070005615C82F8091BB12882379F060918F1369
:1030800080918C1390918D130E94C3056C2F8091B9
:103090008C1390918D130E94C305C1E0D0E0809104
:1030A000810B9091820BC817D90788F4CE01CB967B
:1030B0000E9456159091BB12992339F0682F809188
:1030C0008C1390918D130E94C3052196E8CFDF9158
:1030D000CF910C940716CF93DF932091BB1222233C
:1030E000A1F0EC0160918F1380918C1390918D135E
:1030F0000E94C305209749F0BE0180918C139091E6
:103100008D13DF91CF910C94F815DF91CF91089535
:103110000F931F93CF93DF93C82FD62F8A018DE192
:103120000E948D16C8010E946B188D2F0E94711687
:103130008C2F0E947116DF91CF911F910F910C94EB
:1031400007160F931F93CF93C82F8A0186E00E9422
:103150008D16C8010E946B188C2F0E947116CF919A
:103160001F910F910C9407160F931F93CF93DF932A
:10317000C82FD62F8A018EE10E948D16C8010E94A9
:103180006B188D2F0E9471168C2F0E947116DF9183
:10319000CF911F910F910C9407160F931F93CF930C
:1031A000C82F8A0187E00E948D16C8010E946B1803
:1031B0008C2F0E947116CF911F910F910C940716BE
:1031C000CF92DF92EF92FF92CF93DF936C01EA01EF
:1031D0008CE10E948D16CE010E946B188091BB126B
:1031E000882321F160918F1380918C1390918D131E
:1031F0000E94C305C0918C13D0918D130D2C000C2F
:10320000EE08FF082AE0B701A601F7FE0CC06DE248
:10321000CE010E94C30544275527BA014C195D0908
:103220006E097F092AE0CE010E942516DF91CF9119
:10323000FF90EF90DF90CF900C9407161F93CF93E1
:10324000DF9385ED8093BC0080917E0A90917F0A88
:10325000A091800AB091810A0796A11DB11D23E0BB
:10326000B695A795979587952A95D1F72091BC009B
:1032700024FD03C01092C60A52C040917E0A5091AC
:103280007F0A6091800A7091810A452B462B472B5B
:1032900069F30097A105B10541F025E32A95F1F7FF
:1032A00000000197A109B109E1CF80917D0AC1E039
:1032B000C0937C0A882399F1D091B8001091BA008C
:1032C0008091BC008A7B8093BC0060E084E10E9416
:1032D000760460E085E10E9476041092C60AC093ED
:1032E000C80A1092C70A61E084E10E94760461E096
:1032F00085E10E9476048091B9008E7F8093B900A9
:103300008091B9008D7F8093B90088E48093B800E4
:1033100085E48093BC001093BA00D093B800DF918D
:10332000CF911F9108954F925F926F927F928F92EB
:103330009F92AF92BF92CF92DF92EF92FF92CF9384
:10334000DF93EC016A017B0120E030E0A901CB01B1
:10335000B6010E94EE3287FF04C0F7FAF094F7F846
:10336000F0948C8C9D8CAE8CBF8CA7019601C5010E
:10337000B4010E94EE32882309F449C06CA97DA9EA
:103380008EA99FA90E94F5322B013C01A70196014D
:10339000C501B4010E9455359B01AC01C301B201C6
:1033A0000E9454330E94C7356CAB7DAB8EAB9FAB94
:1033B000A701960160E070E080E090E40E9455353E
:1033C0000E94083626E53EE04DE25FE30E9454335A
:1033D00020E034E244E759E40E94543368AF79AF07
:1033E0008AAF9BAFCC8EDD8EEE8EFF8ECE01DF914D
:1033F000CF91FF90EF90DF90CF90BF90AF909F90D4
:103400008F907F906F905F904F900C94560ADF9151
:10341000CF91FF90EF90DF90CF90BF90AF909F90B3
:103420008F907F906F905F904F900895EF920F93E1
:10343000CF93DF93EC0188E992E0998388836B83D3
:103440001C861D861E861F86188A198A1A8A1B8A60
:103450001C8A1D8A1E8A1F8A80E090E0A0E8BFE3D4
:10346000888F998FAA8FBB8F1C8E1D8E1E8E1F8EEC
:1034700088A399A3AAA3BBA31CA21DA21EA21FA23C
:1034800061E070E07DA76CA73FEF3FA718A619A6E3
:103490001AA61BA64C832D830E83EF821EA61CAAA0
:1034A0001DAA1EAA1FAA18AE19AE1AAE1BAE1CAEDC
:1034B0001DAE1EAE1FAEFE01E05CFF4F8083918308
:1034C000A283B3831A82188619861A861B86CE01B8
:1034D0000E94350840E050E060E87FE3CE01DF91D4
:1034E000CF910F91EF900C9493198F929F92AF927E
:1034F000BF92CF92DF92EF92FF920F931F93CF93E1
:10350000DF930E944F13EC010E944F138C010E9425
:103510004F137C018091EE0BC81708F078C0DD27AF
:10352000CC0FDD1FC652D44FC880D980F601C281AE
:10353000D381B80190E080E00E94F3324B015C013E
:10354000288D398D4A8D5B8D0E94EE328823F1F1F2
:10355000888E998EAA8EBB8E8E01005C1F4FA501AE
:10356000940160E074E284E799E40E945535F80123
:1035700060837183828393838CA99DA9AEA9BFA91F
:10358000181619061A061B060CF56C897D898E899A
:103590009F899B01AC010E9454334B015C016C8DEF
:1035A0007D8D8E8D9F8D9B01AC010E94E9349B0126
:1035B000AC01C501B4010E9455350E94C7356CAB02
:1035C0007DAB8EAB9FABCE010E94560AB70190E057
:1035D00080E00E94F3324B015C0120E030E0A90161
:1035E0000E94EE32882399F0B501A401F601828190
:1035F0009381DF91CF911F910F91FF90EF90DF901A
:10360000CF90BF90AF909F908F900C949319DF91C3
:10361000CF911F910F91FF90EF90DF90CF90BF90CF
:10362000AF909F908F9008954F925F926F927F928C
:103630008F929F92AF92BF92CF92DF92EF92FF92C2
:103640000F931F93CF93DF93D02E9091EE0B9A3070
:1036500009F44AC00E2DB22EE42E162FF82E8EE05D
:103660000E94DD0B811115C06CEE74E085E0DF91E6
:10367000CF911F910F91FF90EF90DF90CF90BF906F
:10368000AF909F908F907F906F905F904F900C9431
:10369000A2168EE00E949217EC01892B09F0188285
:1036A000E091EE0BF0E0EE0FFF1FE652F44FD183F6
:1036B000C08384E40E94DD0B811127C06BEC74E0B1
:1036C00085E00E94A216C091EE0BDD2051F0EC2F98
:1036D000F0E0EE0FFF1FE652F44F808191810E94CF
:1036E000E90BCF5FC093EE0BDF91CF911F910F914C
:1036F000FF90EF90DF90CF90BF90AF909F908F9012
:103700007F906F905F904F900895013009F48EC0C4
:1037100028F0023009F496C01882D5CF84E4FE1058
:103720000EC01B110CC00E9492174C01892B99F0FE
:1037300095E0E92E04E0212F4F2D61E009C00E94A1
:1037400092174C01892B39F00F2D212F4B2D64E05E
:10375000C4010E94161A9B828A82EA80FB8020E0C4
:1037600030E048EC53E4F701608D718D828D938DCC
:103770000E94EE32882309F440C080E090E0A8EC7B
:10378000B3E4F701808F918FA28FB38F80E090E434
:10379000ACE1B5E4E05CFF4F80839183A283B38307
:1037A000F70184A995A9A6A9B7A9181619061A069A
:1037B0001B061CF564897589868997899B01AC0174
:1037C0000E9454332B013C01F701648D758D868D69
:1037D000978D9B01AC010E94E9349B01AC01C301B0
:1037E000B2010E9455350E94C735F70164AB75AB35
:1037F00086AB97ABC7010E94560A40E050E068E4F0
:1038000074E48A819B810E949319DC8281E08D831C
:10381000DD2021F062E08D2D0E94A404CA86AB86D3
:1038200081E0888319828D878C874DCF84E40E9444
:1038300092174C01892B09F48ECF0F2D212F4B2D80
:1038400068E086CF84E46FCF8F929F92AF92BF9251
:10385000CF92DF92EF92FF92CF93DF930E944F13AC
:10386000EC01B82E0E948203882309F48FC081E006
:10387000809385138093861380918713909188138A
:103880000E9476326B017C018091EE0BB81608F035
:1038900083C0DD27CC0FDD1FC652D44F0990D881DD
:1038A000C02D19828E819F81A885B985C816D90639
:1038B000EA06FB0609F45EC08A819B81DC011C9646
:1038C0008D909D90AD90BC901F972B85222351F039
:1038D0002D85222339F0ED91FC910280F381E02DBA
:1038E00019951D868C85882379F0C814D904EA04BB
:1038F000FB0454F48E819F81A885B985C816D9062A
:10390000EA06FB060CF41C868C85811110C08C1411
:103910009D04AE04BF045CF48E819F81A885B985A7
:103920008C159D05AE05BF0514F481E08C878A8156
:103930009B814A852C85429FA0011124052E000CF5
:10394000660B770B4C0D5D1D6E1D7F1DFC01808885
:103950009188A288B388481559056A057B0531F01E
:10396000408B518B628B738B0E94560ACE82DF8212
:10397000E886F986DF91CF91FF90EF90DF90CF90AE
:10398000BF90AF909F908F900C94F510109286137B
:10399000C12CD12C760178CFDF91CF91FF90EF90A1
:1039A000DF90CF90BF90AF909F908F900895FF923F
:1039B0000F931F93CF93DF930E944F13EC010E944C
:1039C000D3038C010E944F13F82ECC0FDD1FC95872
:1039D000DB4F0990D881C02D8885882369F163EC7D
:1039E00072E0C8010E94A63201E010E0009709F1E0
:1039F0000E9458329885992391F0982F97709801DA
:103A000001C0220F9A95EAF7869586958695FE0164
:103A1000E80FF11D8481FF2049F0282B248363ECFB
:103A200072E090E080E00E94A632E0CF209528234B
:103A3000F5CFCE010E94C811DF91CF911F910F9158
:103A4000FF900C94F5106F927F928F929F92AF929D
:103A5000BF92CF92DF92EF92FF920F931F93CF937B
:103A6000DF93EC01CB0165EC72E00E94A6328C0181
:103A70002AE0E22EF12C34E6632E712C48EEC42E9F
:103A800043E0D42E0115110509F4EAC06DE370E09E
:103A9000C8010E948237812C912C5401009749F073
:103AA000FC011192CF010E9458324C01990FAA08D3
:103AB000BB0867EC72E0C8010E948D37892B09F0C2
:103AC0004FC0F0E18F16F7E29F0620F09FE0892EAD
:103AD00097E2992EC401B7010E94B8348B01482F98
:103AE00063E0CE010E94F40DC801B7010E94B83412
:103AF000482F62E0CE010E94F40DC401B3010E9480
:103B0000B834CB01B7010E94B834482F61E0CE0130
:103B10000E94F40DC401B6010E94B834462F60E043
:103B2000CE010E94F40D8CA18F7E8CA361E0CE01AA
:103B30000E94E60D8DA18F7E8DA362E0CE010E94D2
:103B4000E60D8EA180618EA363E0CE010E94E60D9A
:103B500065EC72E090E080E00E94A6328C0192CF8A
:103B60006EEC72E0C8010E948D37892B09F043C0CA
:103B700080E1881687E2980620F08FE0882E87E2A1
:103B8000982EC401B7010E94B8348B01482F63E01E
:103B9000CE010E94F40DC801B7010E94B834482F2D
:103BA00062E0CE010E94F40DC401B3010E94B8345A
:103BB000CB01B7010E94B834482F61E0CE010E94CA
:103BC000F40DC401B6010E94B834462F60E0CE0166
:103BD0000E94F40D8CA180618CA361E0CE010E9453
:103BE000E60D8DA180618DA362E0CE010E94E60DFD
:103BF0008EA18F7EA8CF65ED72E0C8010E948D373F
:103C0000892B09F0A5CF8A948928F1F445E060E07A
:103C1000CE010E94F40D4BE061E0CE010E94F40D54
:103C20004CE062E0CE010E94F40D4DE063E0CE0175
:103C30000E94F40D8CA18F7E8CA361E0CE010E94C6
:103C4000E60D8DA18F7ECFCF4DE060E0CE010E94CA
:103C5000F40D4DE061E0CE010E94F40D4DE0E1CFA6
:103C6000DF91CF911F910F91FF90EF90DF90CF9058
:103C7000BF90AF909F908F907F906F9008952F92FC
:103C80003F924F925F926F927F928F929F92AF92EC
:103C9000BF92CF92DF92EF92FF920F931F93CF9339
:103CA000DF93CDB7DEB7C854D1090FB6F894DEBFA5
:103CB0000FBECDBF0E944F1327969FAF8EAF2797A1
:103CC0000E94D3037C0180E29E012F5F3F4F259627
:103CD0003FAF2EAF2597F901282F11922A95E9F7CA
:103CE0001E0131E2230E311CF10111928A95E9F790
:103CF0004FE150E0B701CE0101960E949D374FE1A0
:103D000050E0B701C1010E949D37009171041091EC
:103D10007204F80184A9882309F4F9C265EC72E001
:103D2000C7010E94A6326C019AE0492E512C612CE9
:103D3000712CC114D10409F4EAC26DE370E0C6012C
:103D40000E94823723969FAF8EAF23970097E9F1A9
:103D5000FC011192CF012396FFAFEEAF23974AE00B
:103D600050E0BE016F5B7F4F0E945531F62EE72E6B
:103D700028968FAF289729969FAF29976CED72E010
:103D8000C6010E948D37892B49F5F80182A9806808
:103D900082AB6FE0C8010E948B0DF80182A98F7B76
:103DA00082AB84A18E7F84A36FE0C8010E948B0D3B
:103DB0006F2D7E2DC8010E94AF0D65EC72E090E082
:103DC00080E00E94A6326C01B4CFF12CE12C289641
:103DD0001FAE289729961FAE2997D0CF63EE72E0C9
:103DE000C6010E948D37892B79F4F80182A98F775B
:103DF00082AB6FE0C8010E948B0DF80182A980643C
:103E000082AB84A18160CFCF6BEE72E0C6010E94CD
:103E10008D37892B69F5C701C92EDE2CF8EECF1638
:103E2000F3E0DF0620F087EEC82E83E0D82EBAE05C
:103E3000EB2EF12CC601B7010E94B8345B01482F6C
:103E400065E0C8010E94990DC501B7010E94B83410
:103E5000482F64E0C8010E94990DC60164E670E035
:103E60000E94B834462F63E0C8010E94990DA5CF87
:103E700062EF72E0C6010E948D37892B09F060C0A5
:103E80008F2C9E2C2896AFAC28972996BFAC2997EB
:103E900020EA821626E8920621E0A206B10438F054
:103EA000AFE98A2EA6E89A2EAA24A394B12CC501C4
:103EB000B401A30192010E943B3469017A01462FAB
:103EC0006AE0C8010E94990DC701B601A3019201E1
:103ED0000E943B34462F69E0C8010E94990DC5013C
:103EE000B40124E630E040E050E00E943B34CA01D7
:103EF000B901A30192010E943B34462F68E0C8013A
:103F00000E94990DC501B40128EE33E040E050E075
:103F10000E943B34CA01B901A30192010E943B34C3
:103F2000462F67E0C8010E94990DC501B40120E148
:103F300037E240E050E00E943B34422F66E094CFED
:103F400069EF72E0C6010E948D37892B09F054C0D9
:103F5000C701E92EF82EF80181A990A927A52E7F87
:103F60009E7F8E7FF0E1EF16F7E2FF06DCF531EF82
:103F7000E31638EDF30644F0F7FC0AC0E114F1044F
:103F8000A9F5F80190AB0BC0F1EFEF2EF8EDFF2E85
:103F9000F194E194F108F80190AB93A9892B81ABDE
:103FA00027A74CE06EE0C8010E94990D4CE06DE03F
:103FB000C8010E94990DC70164E670E00E94CC34EC
:103FC000CB016AE070E00E94CC34482F6CE0C8015D
:103FD0000E94990DC70168EE73E00E94CC34462F11
:103FE0006BE042CFEFE0EE2EE7E2FE2EF80133A9C0
:103FF000932B90AB832BD3CF6FEF72E0C6010E945F
:104000008D37892BC9F58F2DF80191A920A937A5E6
:1040100043A984367CF58D392CF0F7FC04C02E7F43
:10402000242B03C08DE981952E7FF80120AB9E7F64
:10403000942B91AB316037A76AE00E94AA34F82E26
:10404000492F6CE0C8010E94990D4F2D6BE0C8010B
:104050000E94990DF80180A9817080AB81A98170BF
:1040600081AB6DE0C8010E948B0D6EE0C8010E941B
:104070008B0DA3CE83E6D3CF66E073E0C6010E942A
:104080008D37892BE1F4F11017C07BE0F72E4F2D0F
:1040900060E0C8010E94990D4F2D61E0C8010E94A7
:1040A000990D4F2D62E0C8010E94990DF80184A17D
:1040B0008E7F84A36FE0DACF6AE0F62EE8CF61E16D
:1040C00073E0C6010E948D37892BA1F4F1100FC057
:1040D0005BE0F52E4F2D63E0C8010E94990D4F2D36
:1040E00064E0C8010E94990D4F2D65E0BDCE4AE005
:1040F000F42EF0CF6CE173E0C6010E948D37892B5E
:10410000F1F4F11019C03BE0F32E4F2D66E0C80129
:104110000E94990D4F2D67E0C8010E94990D4F2D07
:1041200068E0C8010E94990D4F2D69E0C8010E9406
:10413000990D4F2D6AE098CE2AE0F22EE6CF67E285
:1041400073E0C6010E948D37892B11F5F80181A912
:10415000F11016C08E7F81AB9BE0F92E4F2D6BE0E6
:10416000C8010E94990D4F2D6CE0C8010E94990D65
:104170004F2D6DE0C8010E94990D4F2D6EE074CE59
:10418000816081AB80A98E7F80AB8AE0F82EE6CF7C
:1041900061E373E0C6010E948D37892B61F4F80159
:1041A00086A18E7F91E0F11001C090E0892BF8018B
:1041B00086A363E05BCF6BE373E0C6010E948D379B
:1041C000892B61F4F80180A58E7F91E0F11001C088
:1041D00090E0892BF80180A765E048CF65E473E0A3
:1041E000C6010E948D37892B61F4F80186A58E7F68
:1041F00091E0F11001C090E0892BF80186A76BE0F7
:1042000035CF6FE473E0C6010E948D37892B09F02A
:10421000D4CDF80192A99F7D84A58E7FF1103CC07A
:10422000906292AB816084A76FE0C8010E948B0D01
:1042300069E0C8010E948B0DF80182A98F7E82ABD4
:1042400083A58E7F83A76FE0C8010E948B0D68E075
:10425000C8010E948B0DF80182A9846082AB82A5FF
:10426000816082A76FE0C8010E948B0D67E0C801E2
:104270000E948B0DF80182A9877F82AB81A58E7F7A
:1042800081A76FE0C8010E948B0D66E0C8010E9403
:104290008B0DF80110AE91CD92AB84A76FE0C801F1
:1042A0000E948B0D69E0C8010E948B0DF80182A964
:1042B000806182AB83A5816083A76FE0C8010E9403
:1042C0008B0D68E0C8010E948B0DF80182A98B7FDD
:1042D00082AB82A58E7F82A76FE0C8010E948B0D02
:1042E00067E0C8010E948B0DF80182A9886082AB4B
:1042F00081A5816081A76FE0C8010E948B0D66E0F7
:10430000C8010E948B0D21E0F80120AF56CD279601
:104310008EAD9FAD2797019739F580916D049091EF
:104320006E04FC0123A9BE016F5F7F4F21112CC0D9
:104330000E94F510C85BDF4F0FB6F894DEBF0FBECA
:10434000CDBFDF91CF911F910F91FF90EF90DF9044
:10435000CF90BF90AF909F908F907F906F905F9025
:104360004F903F902F90089527962EAD3FAD279701
:1043700022303105E9F680916F0490917004FC01C0
:1043800023A92223A9F2B1010E94231DD1CFEF92CC
:10439000FF920F931F93CF93DF9310916A04133012
:1043A00009F451C0F42E062FE82E87E30E94DD0B9E
:1043B00081110BC06FE274E085E0DF91CF911F9116
:1043C0000F91FF90EF900C94A21687E390E00E946B
:1043D0005D36EC01E882F9820A83E12FF0E0EE0F0E
:1043E000FF1FE559FB4FD183C083ECAA0DABFEAA9A
:1043F00081E08BABCE010E940A0E60E3CE010E94E9
:10440000240D62E5CE010E94240D62E0CE010E94DF
:10441000240D66E0CE010E94240DF12C04E020E082
:1044200030E0A9016F2DCE010E943E0DF39480E291
:10443000F812F4CFA39680E1FE0111928A95E9F774
:104440001F5F10936A04DF91CF911F910F91FF902E
:10445000EF9008952F923F924F925F926F927F92CA
:104460008F929F92AF92BF92CF92DF92EF92FF9284
:104470000F931F93CF93DF9300D01F92CDB7DEB77A
:104480008091810B9091820B892B09F4F6C48BE308
:1044900090E09A8389831C821B82CE0101960E9440
:1044A000B315882309F4E9C420E1D22E3CE0B32EF1
:1044B00048E0942E54EB652E712C88248A94EFEFFB
:1044C000E80FEF3008F0A7C00E2E000CFF0B882776
:1044D000E359FD4D8F4F0C94E0347C22A724D92260
:1044E0001023E9235624CF24BA240C24CF256F258A
:1044F00041260B23A6262924CE0101960E94B3153E
:10450000C82E809124048434D9F184E00E94DD0B0C
:1045100061EC72E0882309F462C4EB80FC8084E0E3
:104520000E9492178C010097C1F0DC011296CC9288
:104530001297C7018C5E934F8D939C9362E08C2DF4
:104540000E94A404F80182810E944D0421E0892B7D
:1045500009F420E0D80113962C9380912404E82FCD
:10456000F0E0EE0FFF1FE456FC4F11830083EDECEB
:10457000F8E1F0932604E09325048F5F80932404F0
:10458000BE016D5F7F4FCE0101960E946115182F0D
:10459000CE0101960E94B315882309F46BC4111152
:1045A0008ECF1092FB0F61EE73E085E00E94A216A1
:1045B00064C4CE0101960E94B315F82E8091D30BEE
:1045C000883249F182E00E94DD0B6FED72E08823B2
:1045D00009F405C382E00E9492178C01009771F0E4
:1045E000DC01FC9211961C9261E08F2D0E94A404C4
:1045F000F801618170E080810E94E0048091D30B1A
:10460000E82FF0E0EE0FFF1FED57F44F118300830A
:104610008F5F8093D30BCE0101960E949015B7CF88
:10462000CE0101960E94B315282ECE0101960E945C
:10463000B315482ECE0101960E94B315382ECE0137
:1046400001960E94B315A82ECE0101960E94B315C3
:10465000582E80917F048430F1F289E10E94DD0BB5
:104660006DEF72E0882309F4BAC289E10E949217C3
:104670008C01009719F0DC0158961C92E22C022C58
:10468000000CFF08C0907F04EC2DF0E0EE0FFF1F40
:10469000E058FB4F11830083F801F18AE08A832DF3
:1046A000330C990B938B828B842D440C990B958B37
:1046B000848B252D2150330B2830310508F45CC044
:1046C00088E090E0D80157969C938E93569761E0CE
:1046D000822D0E94A40461E0F80182890E94A40452
:1046E00061E0D80154968C910E94A40461E0F80125
:1046F00084890E947604D8015196FC92EE925097DC
:10470000F12CE12CF80186899789E816F906B4F5B1
:1047100020E04FE0B701C8010E941F11D801569652
:104720008D919C91E816F90634F427E04BE0B7012F
:10473000C8010E941F1120E049E0B701C8010E9492
:104740001F11F80186899789E816F90664F4442454
:10475000439420E0442DB701C8010E941F114394E7
:10476000F9E04F12F6CF41E0B701C8010E94641191
:104770002FEFE21AF20AC6CF852DA3CF508E512C0F
:10478000F801808D581608F54A2D652DC8010E9444
:104790009C11E52CF12C40E0B701C8010E94641186
:1047A000D80156968D919C91E816F90664F444243C
:1047B000439420E0442DB701C8010E941F11439487
:1047C000B9E04B12F6CF5394DBCFC394C0927F0471
:1047D00022CFCE0101960E94B315182FCE0101966B
:1047E0000E94B315F82ECE0101960E94B315582EE3
:1047F000CE0101960E94B315482ECE0101960E946B
:10480000B315A12CC12CE12C00E0242D452D6F2DDA
:10481000812F0E94141BFFCECE0101960E94B3157A
:10482000182FCE0101960E94B315F82ECE010196E5
:104830000E94B315582ECE0101960E94B315482E42
:10484000CE0101960E94B315A12CC12CE12C082F9A
:10485000DCCFCE0101960E94B315182FCE01019630
:104860000E94B315F82ECE0101960E94B315582E62
:10487000CE0101960E94B315482ECE0101960E94EA
:10488000B315082FCE0101960E94B315E82ECE0174
:1048900001960E94B315C82ECE0101960E94B31551
:1048A000AA24A3948111B1CFA12CAFCFCE01019640
:1048B0000E94B315182F80919C048A3009F4ABCE66
:1048C00087E10E94DD0B6EE173E0882309F487C164
:1048D00087E10E949217FC01892BB9F080917C0B33
:1048E000803398F591E0980F90937C0B828790E04D
:1048F000DC01AA0FBB1FA80FB91FA451B54F28EBAD
:104900003BE012963C932E93119780919C04A82F24
:10491000B0E0AA0FBB1FA857BB4FED93FC931186C5
:10492000158616861786108A118A128A138A148AA7
:104930001282118274826382168215827086678267
:1049400010838F5F80939C0466CE8286DECFCE017B
:1049500001960E94B315182FCE0101960E94B3153F
:104960002B813C812C5E334F40E0682F812F0E94C9
:10497000AC1706CECE0101960E94B315182FCE01BA
:1049800001960E94B315082FCE0101960E94B3151F
:104990002B813C812C5E334F482F602FE7CFCE0117
:1049A00001960E94B315CE0101960E94B315CE0167
:1049B00001960E94B315082F813009F082C0109132
:1049C0006A04133009F427CE89E30E94DD0B6CE3FF
:1049D00073E0882309F403C189E390E00E945D3607
:1049E0007C01DC01BC9211969C9211978BE012968F
:1049F0008C931297D3960C93D397E12FF0E0EE0FA0
:104A0000FF1FEF58FB4FF182E082D596BC92D597FD
:104A1000D6968C93D697D7969C92D797D4960C938C
:104A2000C7010E940A0E60E3C7010E94240D62E5DF
:104A3000C7010E94240D62E0C7010E94240D66E0B8
:104A4000C7010E94240DC12C04E020E030E0A90140
:104A50006C2DC7010E943E0DC394B0E2CB12F4CF7F
:104A6000F701B396DF012D2D1D922A95E9F761E03C
:104A70008AE00E94A40461E08AE00E947604D701E3
:104A8000D2968C91D2978160D2968C936FE0C701B9
:104A90000E948B0DF70182A9826082AB6FE0C70193
:104AA0000E948B0DD70197968C919797816097966E
:104AB0008C9364E0C7010E948B0D1F5F10936A0402
:104AC000AACD42E261E280E2023031F0033009F027
:104AD000A2CD45E264E283E20E94C7219CCDCE01D3
:104AE00001960E94B315C82ECE0101960E94B315FF
:104AF000A82E80919B03803109F442CD8DE10E9464
:104B0000DD0B68E573E0882309F469C10B811C8122
:104B10008DE10E9492177C01009769F1FC013696A5
:104B2000DF012D2D1D922A95E9F7DC0157961C9285
:104B30001E92569758961C9258971596AC921597B8
:104B40001296CC9212970C5E134F0D931C9362E059
:104B50008C2D0E94A40418E0C7010E94531011502C
:104B6000D9F7F7018689978943E0969587954A9505
:104B7000E1F79483838380919B03E82FF0E0EE0FAD
:104B8000FF1FE558FC4FF182E08220EE38E13093C0
:104B90007A03209379038F5F80939B03F1CCCE013E
:104BA00001960E94B315A82ECE0101960E94B3155E
:104BB000382ECE0101960E94B315482ECE010196E3
:104BC0000E94B315582E80917803843009F423CDC8
:104BD00089E00E94DD0B811106C068E773E085E083
:104BE0000E94A21618CD89E00E9492178C01C090F5
:104BF0007803EC2CF12CEE0CFF1CF701E958FB4F6D
:104C00009183808381E0D80118968C931897AC9299
:104C100011963C92119712964C92129713965C92B1
:104C200061E08A2D0E94A40461E0F80181810E9464
:104C3000A40461E0D80112968C910E94A404F801AA
:104C40009381349680E0981719F011928F5FFBCF13
:104C5000C8010E94C811F701E958FB4F808191817A
:104C6000DC0113963C91FC01349620E0321719F0D8
:104C700011922F5FFBCF0E94C811C394C09278039A
:104C8000CACCCE0101960E94B315C82ECE01019662
:104C90000E94B315482ECE0101960E94B315582EDE
:104CA000CE0101960E94B315A82E8091670484302E
:104CB00009F466CC8BE00E94DD0B6DE973E088237C
:104CC00009F48DC0EB80FC808BE00E9492178C0170
:104CD000009731F0FC011682178210861186128629
:104CE000E0916704F0E0EE0FFF1FE15AFB4F1183E4
:104CF0000083F801C28243825482C7018C5E934FC5
:104D000091838083A58261E08C2D0E94A40461E0E0
:104D1000D80113968C910E94A40460E0F80184816C
:104D20000E94A40481E0D80116968C9360E0C8012B
:104D30000E94ED11E8E8F8E1F0936904E09368045B
:104D4000809167048F5F809367041ACCCE0101962F
:104D50000E94B315C82ECE0101960E94B315F82EFD
:104D6000CE0101960E94B315082FCE0101960E9434
:104D7000B315182FCE0101960E94B315F092F511CC
:104D80000093F6111093F7118093F8111092F91116
:104D900005EF11E161E0D8018D918D010E94A4041D
:104DA000B1E1093F1B07B1F78091F9118160809350
:104DB000F91160E085EF91E10E94D00CCE010196DF
:104DC0000E94B315A82E80912F04843009F4D8CB0B
:104DD00086E00E94DD0B811106C061EC73E085E086
:104DE0000E94A216CDCB0B811C8186E00E949217F7
:104DF0007C01009759F0E5EFF1E1F0933304E09383
:104E00003204DC0115961C921E921497E0912F0437
:104E1000F0E0EE0FFF1FE95DFB4FF182E082F7014A
:104E2000C2820C5E134F11830083F1E0AF16F1F0E4
:104E3000D70113961C9262E08C2D0E94A404D70126
:104E400013968C911397816013968C9360E0C70141
:104E50000E948D0FE4EBF8E1F0933104E09330040D
:104E600080912F048F5F80932F048ACB82E0F7011B
:104E70008383E1CF112309F494CB0F900F900F900F
:104E80000F90DF91CF911F910F91FF90EF90DF90E6
:104E9000CF90BF90AF909F908F907F906F905F90DA
:104EA0004F903F902F9008950E942A220C94201832
:104EB000FF920F931F93CF93DF938C01EB01F88048
:104EC0000E941534F81621F06F2DC8010E941D3480
:104ED000CE01DF91CF911F910F91FF900895AF9276
:104EE000BF92CF92DF92EF92FF920F931F93CF93D7
:104EF000DF930E94F5100E94D3036C01EC0109902E
:104F00000020E9F72197C81BD90BDD27E090810B22
:104F1000F090820BC70101968C0F9D1F883D954034
:104F200008F053C05E018FEFA81AB80A2BE3E20E17
:104F3000F11C95012E0D3F1D8091FC119091FD11EA
:104F40008217930778F010E000E0B601600F711F40
:104F5000C701800F911F0E9458270F5F1F4F0A152E
:104F60001B0598F34091810B5091820BC40FD51F04
:104F7000D093820BC093810B8091BB12811147C0EB
:104F800085E00E948D168091BB12882391F060917C
:104F90008F1380918C1390918D130E94C305AE01E5
:104FA00070E060E02AE080918C1390918D130E9454
:104FB0002516DF91CF911F910F91FF90EF90DF9019
:104FC000CF90BF90AF900C9407168091BB128111C7
:104FD0001EC085E00E948D168091BB12882349F384
:104FE00060918F1380918C1390918D130E94C30553
:104FF000C0918C13D0918D136DE2CE010E94C30538
:105000002AE041E050E060E070E0CE01D0CFDF91D7
:10501000CF911F910F91FF90EF90DF90CF90BF90B5
:10502000AF900895CF93DF930E94D303FC0190E3E8
:10503000A6E1B2E001900D929A95E1F78091FC1102
:105040009091FD11892B29F063E290E080E00E94AD
:105050001D348091FC119091FD11C09760F0D0E05B
:10506000C0E0BE016A5E7D4F2196CE010E945827A6
:10507000CF32D105B1F78091BB1281110BC085E011
:105080000E948D1686E192E00E946B18DF91CF910D
:105090000C940716DF91CF9108954F925F926F9213
:1050A0007F928F929F92AF92BF92CF92DF92EF92B8
:1050B000FF92CF93DF930E94B705611571058105BB
:1050C000910511F00E944C310E94FD302B013C01F2
:1050D0000E94FD304B015C01CC24CA948FE0D82E95
:1050E000E12CF12CC301B201A70196010E945D34AD
:1050F0007F936F93C501B401A70196010E945D34AF
:105100007F936F938CE593E09F938F9380E092E081
:105110009F938F930E94AC378DB79EB708960FB6BA
:10512000F8949EBF0FBE8DBF8091FC119091FD1130
:10513000CB9760F0C0E3D0E0BE0160537E4FCE015C
:105140000E9458272196CB33D105B1F7DF91CF913B
:10515000FF90EF90DF90CF90BF90AF909F908F9097
:105160007F906F905F904F9008950E944D2880919E
:10517000BB12811109C08AE00E948D1680E092E086
:105180000E946B180C9407160895EF92FF920F93EC
:105190001F93CF93DF9380E390E00E9456158335F1
:1051A00009F048C081E390E00E9456158E3409F062
:1051B00049C08091FC119091FD11CB9770F000E0F7
:1051C00012E0C0E3D0E0CE010E941534F8018193D3
:1051D0008F012196CB33D105B1F70E94F5108AE0FB
:1051E0000E948D168091BB12882381F060918F13ED
:1051F00080918C1390918D130E94C3056BEF73E027
:1052000080918C1390918D130E94CA0586E192E0E3
:105210000E946B1880E092E00E946B1882E793E096
:105220000E946B18DF91CF911F910F91FF90EF902B
:105230000C940716893431F481E390E00E945615EE
:10524000843471F00E944D288091FC119091FD11E1
:10525000CC9718F260E08BE390E00E941D34BDCF44
:1052600069E673E080E092E00E9496378CEEE82ECB
:1052700081E1F82ED0E0C0E00DE613E0F701819166
:105280007F011F928F931F930F93CE018D5F9D4FD0
:105290009F938F930E94AC3722960F900F900F90A0
:1052A0000F900F900F90C231D10541F796CF1F920A
:1052B0000F920FB60F9211242F933F938F939F93CA
:1052C000AF93BF938091100C9091110CA091120C90
:1052D000B091130C30910F0C23E0230F2D3758F5AC
:1052E0000196A11DB11D20930F0C8093100C90937B
:1052F000110CA093120CB093130C80910B0C909195
:105300000C0CA0910D0CB0910E0C0196A11DB11DBD
:1053100080930B0C90930C0CA0930D0CB0930E0C7F
:10532000BF91AF919F918F913F912F910F900FBEA1
:105330000F901F90189526E8230F0296A11DB11D0E
:10534000D2CF1F920F920FB60F9211240BB60F926D
:105350002F933F934F935F936F937F938F939F937D
:10536000AF93BF93EF93FF938EEF91E10E94670697
:10537000FF91EF91BF91AF919F918F917F916F912D
:105380005F914F913F912F910F900BBE0F900FBEE9
:105390000F901F9018951F920F920FB60F92112425
:1053A0000BB60F922F935F936F937F938F939F937F
:1053B000AF93BF93EF93FF93E0910E12F0910F1212
:1053C0008081E0911412F091151282FD26C0208197
:1053D0008091171290E0019660E670E00E94B83468
:1053E00090911812981741F0E0911712F0E0E250F6
:1053F000FE4E258F80931712FF91EF91BF91AF91D1
:105400009F918F917F916F915F912F910F900BBE24
:105410000F900FBE0F901F9018958081EDCF1F92B7
:105420000F920FB60F9211240BB60F922F933F934A
:105430004F935F936F937F938F939F93AF93BF939C
:10544000EF93FF9348E251E064E271E090E080E086
:105450000E942707FF91EF91BF91AF919F918F918C
:105460007F916F915F914F913F912F910F900BBE64
:105470000F900FBE0F901F9018951F920F920FB6AE
:105480000F9211240BB60F922F933F934F935F937C
:105490006F937F938F939F93AF93BF93EF93FF93FC
:1054A00048EA50E064EA70E083E090E00E94270759
:1054B000FF91EF91BF91AF919F918F917F916F91EC
:1054C0005F914F913F912F910F900BBE0F900FBEA8
:1054D0000F901F9018951F920F920FB60F921124E4
:1054E0000BB60F922F933F934F935F936F937F93DE
:1054F0008F939F93AF93BF93EF93FF9348E950E04F
:1055000064E970E082E090E00E942707FF91EF914C
:10551000BF91AF919F918F917F916F915F914F91CB
:105520003F912F910F900BBE0F900FBE0F901F90C9
:1055300018951F920F920FB60F9211240BB60F926F
:105540002F933F934F935F936F937F938F939F938B
:10555000AF93BF93EF93FF9348E850E064E870E0A7
:1055600081E090E00E942707FF91EF91BF91AF91FA
:105570009F918F917F916F915F914F913F912F916B
:105580000F900BBE0F900FBE0F901F9018951F929B
:105590000F920FB60F9211240BB60F922F933F93D9
:1055A0004F935F936F937F938F939F93AF93BF932B
:1055B000EF93FF938091B900887F803609F44DC046
:1055C00008F040C0883209F4A7C028F5803109F4FA
:1055D0009BC0C8F4882309F4F7C0883009F494C04C
:1055E000FF91EF91BF91AF919F918F917F916F91BB
:1055F0005F914F913F912F910F900BBE0F900FBE77
:105600000F901F901895883109F486C0803241F7B9
:105610008093C50A14C0803409F49BC040F48033E1
:10562000B9F38833E9F68093C50A85ECAEC08035BE
:1056300009F483C0883509F494C0883489F60E943F
:105640001E19CECF883909F48AC038F5883729F079
:1056500050F4883611F0803719F683E08093C60A3B
:105660001092C40A55C0883809F479C0803919F0FD
:10567000803809F0B5CF8091C40A803208F06FC03D
:10568000E091C40A81E08E0F8093C40A8091BB0030
:10569000F0E0EC55F54F80833BC0803B39F0D0F40F
:1056A000803A09F477C0883A09F09ACF84E0809371
:1056B000C60A1092A30A1092A20AF0E0E0E019953F
:1056C0008091A20A81110FC081E08093A20A1092FA
:1056D000820A09C0803C09F4A8CF883C09F4A5CF10
:1056E000883B09F07DCFE091A30A81E08E0F809383
:1056F000A30AF0E0EE57F54F80818093BB009091B4
:10570000A30A8091A20A29C08091EB0A8093BB0072
:1057100085EC8093BC0064CF9091EA0A8091E90AFD
:10572000981758F5E091EA0A81E08E0F8093EA0A13
:10573000F0E0E753F54F8081E9CFE091EA0A81E09C
:105740008E0F8093EA0A8091BB00F0E0E753F54F9B
:1057500080839091EA0A8091E90A9817C8F285E857
:10576000D8CFE091EA0A81E08E0F8093EA0A809117
:10577000BB00F0E0E753F54F80838091C80A8111A8
:105780005ECF81E08093C70A84EA8093BC001092C8
:10579000C60A26CF85EC8093BC001092C60A809181
:1057A000C40A803230F4E091C40AF0E0EC55F54FC1
:1057B00010826091C40A70E084EA9AE0F0E0E0E0D0
:1057C00019951092C40A0CCF1092C50A38CF1092C6
:1057D00001121092001288EE93E0A0E0B0E08093F6
:1057E000021290930312A0930412B093051282EB5D
:1057F00092E09093FF118093FE1185EC90E09093DE
:105800000B1280930A1284EC90E090930D12809317
:105810000C1280EC90E090930F1280930E1281ECAA
:1058200090E0909311128093101282EC90E090938C
:1058300013128093121286EC90E0909315128093CD
:10584000141210921712109218121092191210922C
:105850001A12ACEEB1E190E080E041E2FC013E962C
:1058600021E030E08630910510F430E020E0E20FD6
:10587000F31F40935700E491ED9301968930910511
:1058800069F71092F9118FEF8093F5118093F6115B
:105890008093F7118093F8111092FD111092FC1172
:1058A00010929213109291138EEF91E190938D13B9
:1058B00080938C131092C3128CE280938F138BE32E
:1058C00080938E138FE28093901380E68093BE12B4
:1058D0008FE58093BF121092BD1210928813109220
:1058E000871310928A131092891381E08093851395
:1058F000E3E9F3E189ED93E1119211928E179F078D
:10590000D9F71092C2120895789484B5826084BD4C
:1059100084B5816084BD85B5826085BD85B58160B3
:1059200085BD80916E00816080936E001092810031
:1059300080918100826080938100809181008160EC
:1059400080938100809180008160809380008091AD
:10595000B10084608093B1008091B0008160809339
:10596000B0008091910082608093910080919100BD
:10597000816080939100809190008160809390007D
:105980008091A10082608093A1008091A10081603C
:105990008093A1008091A00081608093A0008091FD
:1059A0002101826080932101809121018160809397
:1059B00021018091200181608093200180917A00F3
:1059C000846080937A0080917A00826080937A006C
:1059D00080917A00816080937A0080917A0080685B
:1059E00080937A001092C100E0910E12F0910F1294
:1059F00082E08083E0910A12F0910B121082E09114
:105A00000C12F0910D1280E1808310921612E09139
:105A10001212F091131286E08083E0911012F0913F
:105A20001112808180618083E0911012F091111237
:105A3000808188608083E0911012F0911112808142
:105A400080688083E0911012F091111280818F7D27
:105A5000808380E090E19093FD118093FC1186ECAF
:105A600096E1909392138093911383E693E1909340
:105A70009413809393138FE793E1909396138093FD
:105A800095138DE793E19093C8138093C71383EE2A
:105A900093E1909398138093971384E29CE1909301
:105AA0009A138093991380EF93E19093BE138093A0
:105AB000BD1383E094E19093C0138093BF1385E7F7
:105AC0009AE19093D2138093D11386E594E1909359
:105AD0009C1380939B1385EC98E29093A61380937C
