:100000000C942E030C945F030C945F030C945F0319
:100010000C945F030C945F030C945F030C945F03D8
:100020000C945F030C945F030C945F030C945F03C8
:100030000C945F030C945F030C945F030C945F03B8
:100040000C945F030C94EC2A0C945F030C945F03F4
:100050000C945F030C945F030C945F030C94AA2927
:100060000C945F030C941E2A0C94F4290C945F03E7
:100070000C945F030C945F030C945F030C945F0378
:100080000C94BE2A0C945F030C945F030C945F03E2
:100090000C945F030C945F030C945F030C941A2B75
:1000A0000C945F030C945F030C94902A0C945F03F0
:1000B0000C945F030C945F030C945F030C94622A0E
:1000C0000C945F030C945F030C945F030C945F0328
:1000D0000C945F030C945F030C945F030C945F0318
:1000E0000C945F030C94BA080C94821A0C943B0491
:1000F0000C9467050C9418050C9486090C946509FA
:100100000C94F0130C94320A0C948C130C94182950
:100110000C9410140C9416040C9437040C948A0557
:100120000C9453050C9439050C94C3100C943F04A3
:100130000C9435080C944B050C94D3160C94940530
:100140000C9487080C940D250C94B8090C94B408F1
:100150000C943C240C947C240C94A7270C94FA0F48
:100160000C9469080C94C1180C94B6080C94D6062B
:100170000C9465280C942B0A0C942A060C94470ABC
:100180000C949E050C94A8050C94C2250C94AE0802
:100190000C9449040C94DA180C944F060C94310911
:1001A0000C9420050C9404040C94B2050C94400AA1
:1001B0000C9463140C9423040C948A130C94082953
:1001C0000C94E2160C94AC080C9477120C94E41C7A
:1001D0000C949A170C9443050C9419040C94B808C9
:1001E0000C94ED180C9462120C941F040C94951846
:1001F0000C94C2270C944E0A0C94EE050C9429041E
:100200000C94F9260C94CF220C94AE180C941B0677
:100210000C940E040C942D040C94311C0C9470134B
:100220000C9435180C9422250C940A0C0C94550A45
:100230000C9471050C94480E0C9425050C946323C2
:100240000C945F240C9445040C9431040C945E23AC
:100250000C94390A0C9412040C94FA240C94CE09D0
:100260000C94230A0C942C230C940C0A0C94B008C4
:100270000C943A2C0C9441060C9480050C94440484
:100280000C945D050C94501E0C9494260C94B208AA
:100290000C94FD130C9489060C9422260C94A9242A
:1002A0000C9410090C9436100C942F050C94AF107C
:1002B0000C940A046E2F61004F4B004F4B004F4BC4
:1002C00000427574746F6E20646F6573206E6F7476
:1002D0002066697420696E204D656D6F7279004FDC
:1002E000757470757420646F6573206E6F7420660A
:1002F000697420696E204D656D6F727900375365A2
:10030000676D656E7420646F6573206E6F74206610
:10031000697420696E204D656D6F72792100536597
:1003200072766F20646F6573206E6F7420666974D7
:1003300020696E204D656D6F727921004C43442019
:10034000646F6573206E6F742066697420696E2017
:100350004D656D6F72792100416E616C6F67496EFA
:1003600020646F6573206E6F742066697420696EF7
:10037000204D656D6F7279004F7574707574536898
:10038000696674657220646F6573206E6F74206691
:10039000697420696E204D656D6F727900496E70C9
:1003A00075745368696674657220646F6573206E36
:1003B0006F742066697420696E204D656D6F727967
:1003C00000446967496E4D757820646F6573206ECF
:1003D0006F742066697420696E204D656D6F727947
:1003E000004661696C757265206F6E20726561648C
:1003F000696E6720636F6E666967004D6F6269465C
:100400006C69676874204D656761204B61760045B3
:100410006E636F6465727320646F6573206E6F74B2
:100420002066697420696E204D656D6F7279004C8D
:10043000434420646F6573206E6F74206669742076
:10044000696E204D656D6F727921007E306D793354
:100450005B5F707F7B771F0D3D4F47000000000002
:10046000000000000000000000000000000000008C
:1004700000000000000000800180257E306D79338F
:100480005B5F707F7B00000009000000777F4E7E7D
:100490004F475F37307C000E00767E677E775B4685
:1004A0003E000000336D4E13780008007D1F0D3DA7
:1004B0004F477B373038000600151D6773055B0F0B
:1004C0001C000000276D4E007800004D46537465F7
:1004D0007070657220646F6573206E6F742066693A
:1004E0007420696E204D656D6F727900537465706C
:1004F00070657220646F6573206E6F742066697416
:1005000020696E204D656D6F7279210044657669B2
:100510006365427566666572204F766572666C6FBC
:100520007721004C6F6164696E6720636F6E666946
:1005300067206661696C6564000000210024002763
:10054000002A002D003000330001010000040107E3
:10055000010A0100002200250028002B002E003196
:1005600000340002010000050108010B0100002019
:10057000002300260029002C002F0032000001007B
:10058000000301060109010505050507050808081E
:1005900008020202020A0A08080404040401010114
:1005A000010101010103030303030303030407071C
:1005B000070C0C0C0C0C0C0C0C02020202060606BA
:1005C00006060606060B0B0B0B0B0B0B0B010210A2
:1005D000202008081020401020408002010201085D
:1005E000040201010204081020408080402010080D
:1005F0000402018004020180402010080402010866
:1006000004020101020408102040800102040810C5
:1006100020408000000A0B02090C0D0E080703049D
:1006200001000000000000000000000000000000C9
:1006300000000000000000000000000000000012A8
:100640001110000000000000000000000000000089
:10065000000000000000000000003A2C11241FBE22
:10066000CFEFD1E2DEBFCDBF00E00CBF13E0A0E0D2
:10067000B2E0EEEAF5E700E00BBF02C007900D9292
:10068000AC39B107D9F724E1ACE9B3E001C01D9260
:10069000A530B207E1F713E0CEE2D3E000E006C0F8
:1006A00021970109802FFE010E943335CD32D107F9
:1006B00080E00807A9F70E94D72C0C94D53A0C9437
:1006C0000000AC011092E4129091B4138091B31326
:1006D000FA01BF01641B750B2091E4123081309345
:1006E000E412931304C0921302C01092E4123081FA
:1006F000311104C0921721F0CB0108953817D1F3BE
:100700003196E7CF0F931F93CF93DF938091A81378
:10071000882309F446C0D0E0C0E0813029F482E0AB
:100720008093A813C8EED2E18091A913882341F1E8
:10073000209721F4C091AD13D091AE138E01CE015C
:100740000E946103892B29F42196F801808181118F
:10075000F5CFF8018081882309F1C8010E94610367
:10076000F801E80FF91F8081882311F0108231967B
:10077000F093AE13E093AD131093AC130093AB134F
:100780008091AB139091AC13892B59F081E0809349
:10079000A913DF91CF911F910F91089510E000E010
:1007A000EBCF80E0F6CF0E948203882351F081E0F6
:1007B0008093A9138093AA138091AB139091AC13EB
:1007C00008951092AA1390E080E00895815082313C
:1007D00008F05AC0E82FF0E08827EE50FC4F8F4F0A
:1007E0000C9433351204160404040A040E04440461
:1007F00019041F04230429042D04310437043B0485
:1008000044043F0445044904809180008F7780931D
:1008100080000895809180008F7DF9CF80918000C5
:10082000877FF5CF84B58F7784BD089584B58F7D9C
:10083000FBCF8091B0008F778093B00008958091B6
:10084000B0008F7DF9CF809190008F7780939000DA
:100850000895809190008F7DF9CF80919000877FDF
:10086000F5CF8091A0008F778093A00008958091AC
:10087000A0008F7DF9CF8091A000877FF5CF809178
:1008800020018F77809320010895809120018F7D32
:10089000F9CF80912001877FF5CFCF93DF93282F69
:1008A00030E0F901ED5EF94F8491F901E353FA4F1D
:1008B000D491F901E957FA4FC491CC23A1F08111E9
:1008C0000E94E603EC2FF0E0EE0FFF1FE359FA4F12
:1008D000A591B491EC91ED2381E090E009F480E0E2
:1008E000DF91CF91089580E090E0FACF1F93CF93EE
:1008F000DF93282F30E0F901ED5EF94F8491F90183
:10090000E353FA4FD491F901E957FA4FC491CC233C
:10091000A9F0162F81110E94E603EC2FF0E0EE0FF4
:10092000FF1FED5AFA4FA591B4918FB7F894EC914F
:10093000111108C0D095DE23DC938FBFDF91CF91DA
:100940001F910895DE2BF8CFCF93DF9390E0FC0149
:10095000E353FA4F249189579A4FFC0184918823DD
:10096000C9F090E0880F991FFC01E75CFA4FA59150
:10097000B491FC01ED5AFA4FC591D49161110DC0AB
:100980009FB7F8948C91209582238C93888128239B
:1009900028839FBFDF91CF910895623051F49FB7B4
:1009A000F8943C91822F809583238C93E8812E2BA1
:1009B000EFCF8FB7F894EC912E2B2C938FBFEACF0B
:1009C0001F93CF93DF93182FEB0161E00E94A404E3
:1009D000209739F460E0812FDF91CF911F910C9423
:1009E0007604CF3FD10511F461E0F5CFE12FF0E0BF
:1009F000ED5EF94FE491E150E23108F0B3C0F0E070
:100A00008827EA5FFA4F8F4F0C943335180520057D
:100A100025052F053905B20543054B0553055D0531
:100A20006705710580058A05B20594059E05A80530
:100A300084B5806884BDC7BDDF91CF911F910895B3
:100A400084B5806284BDC8BDF7CF80918000806886
:100A500080938000D0938900C0938800EDCF80916F
:100A60008000806280938000D0938B00C0938A00C6
:100A7000E3CF80918000886080938000D0938D00C8
:100A8000C0938C00D9CF8091B00080688093B00073
:100A9000C093B300D1CF8091B00080628093B0004A
:100AA000C093B400C9CF809190008068809390007B
:100AB000D0939900C0939800BFCF8091900080623E
:100AC00080939000D0939B00C0939A00B5CF809103
:100AD0009000886080939000D0939D00C0939C000C
:100AE000ABCF8091A00080688093A0008091A0008F
:100AF0008F7B8093A000D093A900C093A8009CCFC7
:100B00008091A00080628093A000D093AB00C0933E
:100B1000AA0092CF8091A00088608093A000D0931B
:100B2000AD00C093AC0088CF809120018068809395
:100B30002001D0932901C09328017ECF809120010C
:100B4000806280932001D0932B01C0932A0174CF3F
:100B500080912001886080932001D0932D01C09363
:100B60002C016ACFC038D1050CF03ECF33CF2FB760
:100B7000F8946091340C7091350C8091360C909102
:100B8000370C2FBF0895DC01ED91FC910190F081AD
:100B9000E02D1994EF92FF920F931F93CF93DF9361
:100BA0008C017B01D0E0C0E0F701EC0FFD1F6491E8
:100BB000662361F0D801ED91FC910190F081E02D68
:100BC000C8011995892B11F02196EECFCE01DF9146
:100BD000CF911F910F91FF90EF900895AF92BF9228
:100BE000CF92DF92EF92FF920F931F93CF93DF93F9
:100BF0006C017B018B01040F151FEB015E01AE1828
:100C0000BF08C017D10759F06991D601ED91FC9149
:100C10000190F081E02DC6011995892B79F7C50166
:100C2000DF91CF911F910F91FF90EF90DF90CF90C8
:100C3000BF90AF900895FC01538D448D252F30E077
:100C4000842F90E0821B930B541710F0CF960895D9
:100C500001970895FC01918D828D981779F0A28DEE
:100C6000AE0FBF2FB11D5D962C91828D8F5F60E618
:100C70000E94F134928F822F90E008958FEF9FEFC2
:100C80000895FC01918D828D981731F0828DE80FC7
:100C9000F11D858D90E008958FEF9FEF0895FC0181
:100CA000918D228D892F90E0805A9F4F821B910950
:100CB00060E670E00E940B35089582E292E10E94A6
:100CC0004F0621E0892B09F420E0822F0895FC01D2
:100CD000A48DA80FB92FB11DA358BF4F2C91848D9F
:100CE00090E001968F739927848FA689B7892C93FA
:100CF000A089B1898C91837080648C93938D848D4D
:100D0000981306C00288F389E02D80818F7D80834F
:100D10000895EF92FF920F931F93CF93DF93EC010F
:100D200081E0888F9B8D8C8D98131AC0E889F98992
:100D3000808185FF15C09FB7F894EE89FF89608395
:100D4000E889F98980818370806480839FBF81E016
:100D500090E0DF91CF911F910F91FF90EF90089558
:100D6000F62E0B8D10E00F5F1F4F0F731127E02E33
:100D70008C8D8E110CC00FB607FCFACFE889F9896B
:100D8000808185FFF5CFCE010E946706F1CFEB8D04
:100D9000EC0FFD2FF11DE358FF4FF0829FB7F89441
:100DA0000B8FEA89FB8980818062CFCFCF93DF935D
:100DB000EC01888D8823B9F0AA89BB89E889F98973
:100DC0008C9185FD03C0808186FD0DC00FB607FCA8
:100DD000F7CF8C9185FFF2CF808185FFEDCFCE01DB
:100DE0000E946706E9CFDF91CF91089580E090E0FF
:100DF000892B29F00E945D0681110E94000080E08D
:100E000090E0892B49F080E090E0892B29F00E9446
:100E1000000081110E94000080E090E0892B49F0E1
:100E200080E090E0892B29F00E94000081110E944F
:100E3000000080E090E0892B49F080E090E0892B71
:100E400029F00E94000081110C9400000895AF92D7
:100E5000BF92CF92DF92EF92FF920F931F93CF93A7
:100E6000DF936B017A01EC01CF55D44F28813CE030
:100E7000389F8001399F100D1124A090A00BB12C38
:100E800027FF1FC0FB011182108288818F5F88833A
:100E900088819801280F311D87FD3A95F6012A15A2
:100EA0003B051CF488818C30C4F1808191810496CB
:100EB00080349C4908F473C0F601808191810496C6
:100EC00070C088819801280F311D87FD3A952A1539
:100ED0003B05DCF68881A801480F511D87FD5A9516
:100EE000FA01EE0FFF1FE40FF51FE05FF44F808162
:100EF00086FFCBCF8881F801E80FF11D87FDFA95B9
:100F0000CF01EE0FFF1FE80FF91FE05FF44F808164
:100F100060E08F730E947604B8CF80819181288130
:100F2000A801420F511D27FD5A959A01FA01EE0FB3
:100F3000FF1FE20FF31FE05FF44F21813281820F28
:100F4000931FF7019183808388819801280F311DB9
:100F500087FD3A95F901EE0FFF1FE20FF31FE05FE7
:100F6000F44F808186FF22C08881080F111D87FD04
:100F70001A95F801EE0FFF1FE00FF11FE05FF44F2D
:100F8000808161E08F73DF91CF911F910F91FF906E
:100F9000EF90DF90CF90BF90AF900C94760480E4F8
:100FA0009CE9F701918380838FEF8883DF91CF9154
:100FB0001F910F91FF90EF90DF90CF90BF90AF9077
:100FC00008952091C60A260F3327331F2132310599
:100FD000ECF42091EA0AFC0190E080E0243069F012
:100FE00082E00895A091C60A2191AC014A55554F5F
:100FF000A40FB52FB11D2C930196861798F38091FD
:10100000C60A680F6093C60A80E0089581E00895DB
:1010100008958FEF9FEF08958FEF9FEF08958091D0
:101020009F0A90E09195819591090895CF93DF9360
:10103000CB01EA01642F0E94E107CE01DF91CF913D
:101040000895CF93DF931F92CDB7DEB7698361E038
:10105000CE0101960E94E10781E090E00F90DF91C0
:10106000CF91089590E080E00895CF93DF93FC0145
:101070002381222359F1EC0161E084810E94A404C0
:1010800061E08D810E94A4048B81843011F088304E
:10109000B1F461E08E810E94A40461E08F810E941E
:1010A000A4048FA58F3F91F061E00E94A4046EA577
:1010B00081E068278FA5DF91CF910C94760483306F
:1010C00011F0863071F761E08E81E9CFDF91CF9129
:1010D0000895CF93DF93FC0123812223A9F0EC0133
:1010E0000190F081E02D0480F581E02D60E01995FC
:1010F0008FA58F3F49F061E00E94A4046EA58FA5E3
:10110000DF91CF910C947604DF91CF910895DC01AB
:10111000ED91FC9111972481358147705527662701
:10112000772741505109610971094730510561051F
:10113000710570F4FA018827EF55F74F8F4F0C9423
:101140003335AC08AE08B008B208B408B608B80821
:1011500061E0CD01F901199465E0FBCF64E0F9CFBE
:1011600066E0F7CF62E0F5CF6AE0F3CF68E0F1CF59
:1011700069E0EFCFCF93DF93EC01CB01BA0126E01A
:1011800030E040E050E00E94B034623071058105EB
:10119000910589F16CF46115710581059105D1F016
:1011A0006130710581059105F9F0DF91CF910895C6
:1011B000643071058105910561F124F16530710597
:1011C0008105910591F7E881F9810480F581E02D91
:1011D00066E006C0E881F9810480F581E02D64E0D5
:1011E000CE01DF91CF911994E881F9810480F581D6
:1011F000E02D65E0F5CFE881F9810480F581E02DEF
:1012000061E0EECFE881F9810480F581E02D63E0B3
:10121000E7CFE881F9810480F581E02D62E0E0CF3D
:10122000DC01ED91FC910480F581E02D43705527A0
:1012300066277727423051056105710571F043300B
:1012400051056105710559F0413051056105710580
:1012500011F065E0199466E0FDCF6AE0FBCF69E02C
:10126000F9CFCF93DF93EC01CB01BA0123E030E05B
:1012700040E050E00E94B034613071058105910575
:1012800099F06230710581059105A9F0672B682BF3
:10129000692BC1F4E881F9810480F581E02D64E0D7
:1012A000CE01DF91CF911994E881F9810480F58115
:1012B000E02D61E0F5CFE881F9810480F581E02D32
:1012C00062E0EECFDF91CF910895DC01ED91FC91CA
:1012D0000480F581E02D437055276627772742303B
:1012E00051056105710571F04330510561057105C6
:1012F00059F0413051056105710511F062E0199412
:1013000063E0FDCF61E0FBCF60E0F9CFCF93DF93E7
:10131000EC01E881F9810480F581E02D8A8160E0AB
:10132000811162E0CE011995E881F9810480F5818F
:10133000E02D8A8161E0811163E0CE0119958CA5D1
:101340009DA58230910538F0880F991F880F991F4D
:1013500005970197F1F7E881F9810480F581E02D87
:101360008A8160E0811162E0CE01DF91CF91199412
:10137000CF93DF93EC0120E030E0A9016C897D89F7
:101380008E899F890E94503618162CF4E8A9F9A975
:10139000DF91CF911994EAA9FBA9FACFCF92DF92FE
:1013A000EF92FF920F931F93CF93DF93DC0113967D
:1013B000CC91C43039F0C83059F1C33019F0C6307F
:1013C00049F1C2E08C010C5F1F4FF12CE12CC62EBD
:1013D000D12CD1E0F8016481C6010E2C02C0959594
:1013E00087950A94E2F780FD6D270F5F1F4F80817C
:1013F0000E947604BFEFEB1AFB0AEC1658F3DF915C
:10140000CF911F910F91FF90EF90DF90CF900895B3
:10141000C4E0D8CFC3E0D6CFDC011396EC9113978C
:10142000E93008F042C0F0E08827E65EF54F8F4FC4
:101430000C943335230A2B0A320A390A400A550A1A
:10144000470A550A4E0AED91FC9111970084F185E7
:10145000E02DCD011994ED91FC9111970284F38553
:10146000E02DF7CFED91FC9111970484F585E02DE7
:10147000F0CFED91FC9111970684F785E02DE9CF2F
:10148000ED91FC9111970088F189E02DE2CFED916B
:10149000FC9111970288F389E02DDBCFED91FC914F
:1014A00011970488F589E02DD4CF08954F925F926B
:1014B0006F927F928F929F92AF92BF92CF92DF9264
:1014C000EF92FF920F931F93CF93DF93EC01C888A5
:1014D000D988EA88FB888C859D85AE85BF85C81A2A
:1014E000D90AEA0AFB0A6C897D898E899F899B014A
:1014F000AC010E94A7334B015C016C8D7D8D8E8DFC
:101500009F8D9B01AC010E943C359B01AC01C50144
:10151000B4010E94A8350E941A36C114D104E10416
:10152000F10409F0B1C062307105810591050CF03C
:10153000CBC01CA21DA21EA21FA21C8A1D8A1E8A2D
:101540001F8A1CAA1DAA1EAA1FAADF91CF911F9154
:101550000F91FF90EF90DF90CF90BF90AF909F9052
:101560008F907F906F905F904F90089510161106A6
:1015700012061306B4F46C157D058E059F051CF448
:101580002A812111A1C09B01AC0188279927DC0188
:10159000821B930BA40BB50B8CAB9DABAEABBFAB5F
:1015A00093C0011511052105310509F48DC06C1595
:1015B0007D058E059F050CF087C08A81882309F47C
:1015C00083C030952095109501951F4F2F4F3F4FA9
:1015D0000CAB1DAB2EAB3FAB77C001151105210540
:1015E000310509F471C08824992454018C189D0890
:1015F000AE08BF08681579058A059B050CF064C024
:101600008A81811161C0DDCFCCACDDACEEACFFAC2A
:10161000A7019601C701B6010E943C352B013C0190
:10162000C501B4010E94483320E030E040E850E4B6
:101630000E94A73320E030E040E85FE30E943C35A1
:101640009B01AC01C301B2010E94A8359B01AC0112
:10165000C701B6010E943B353B016C01FE01E05C15
:10166000FF4FE080F180028113819701A8010E9461
:101670005036181614F473018601C701D8018CAFD7
:101680009DAFAEAFBFAF3AC00CA91DA92EA93FA90F
:101690001C141D041E041F040CF468CF1016110640
:1016A000120613060CF099CF0027112798010C1988
:1016B0001D092E093F0960177107820793070CF077
:1016C00062CF2A8121115FCF8CA89DA8AEA8BFA8A8
:1016D00081149104A104B10409F096CF88AD99ADAD
:1016E000AAADBBAD8CAF9DAFAEAFBFAF81E01C1458
:1016F0001D041E041F040CF080E08A833FEF831A50
:10170000930AA30AB30A8CAA9DAAAEAABFAACCAC1C
:10171000DDACEEACFFACC701B6010E9421366CA374
:101720007DA38EA39FA3A701960160E074E284E7E6
:1017300099E40E94A8356C8B7D8B8E8B9F8B2A81C0
:10174000211103CF90586C8B7D8B8E8B9F8BFDCEA0
:101750008F929F92AF92BF92EF92FF920F931F933F
:10176000CF937C018B01C42F0E94B705F8018080C4
:101770009180A280B380DC01CB0188199909AA0964
:10178000BB094C2F50E070E060E084179507A60776
:10179000B70748F0F70119950E94B705F801608373
:1017A000718382839383CF911F910F91FF90EF906C
:1017B000BF90AF909F908F90089520919D0A309197
:1017C0009E0A280F311D81E02D3D354008F080E054
:1017D0000895FC0184818823E1F08181811119C081
:1017E00081E0818382819381FC01408951896289F2
:1017F0007389403659476E4F7F4F59F040E659E79D
:101800006EEF7FEFFC01408B518B628B738B0C94DE
:10181000560A08954F925F926F927F928F929F9295
:10182000AF92BF92DF92EF92FF920F931F93CF93ED
:10183000DF93D12C08E810E0B8E5EB2EB2E0FB2EE8
:10184000C4EB4C2E512C612C712C8091C004D81605
:1018500008F096C0ED2DF0E0EE0FFF1FE455FB4FB2
:10186000C081D18189899A89AB89BC894D855E8582
:101870006F85788984179507A607B70709F47AC09A
:10188000481759076A077B070CF076C00197A10932
:10189000B109898B9A8BAB8BBC8BA989BA89A03291
:1018A00082E0B807ACF52B854801821A910827FD24
:1018B0009394880C991C880C991C092C000CAA087C
:1018C000BB082C85C701821B910927FD93959C01BC
:1018D000220F331F220F331F032E000C440B550B16
:1018E000281939094A095B09A53BB10514F0A4EB95
:1018F000B0E0B7FF02C0B0E0A0E00E94DA34A3017C
:1019000092010E94B034820E931EA41EB51ED40113
:10191000EA85E03378F52B85C801821B910927FD04
:1019200093959C01220F331F220F331FA217B30779
:101930007CF02C85C701821B910927FD93959C01A2
:10194000220F331F220F331FA217B3070CF49D0180
:1019500022503109220F331F4FB7F8948E2F90E099
:10196000FC01EE0FFF1FE80FF91FE05FF44F328319
:1019700021834FBFD39469CF0196A11DB11D89CF9B
:10198000DF91CF911F910F91FF90EF90DF90BF906B
:10199000AF909F908F907F906F905F904F90089541
:1019A000EF92FF921F93CF93DF93EC01162F8C8160
:1019B00080FF10C0603170F46D837E0184E0E80E1A
:1019C000F11C612F617089910E9476041695EC16C6
:1019D000FD06B9F7DF91CF911F91FF90EF90089529
:1019E000DF92EF92FF920F931F93CF93DF937C01CF
:1019F000D62FD42EC0E00BE410E060E0F701828126
:101A00000E947604C8010197F1F76D2F661F6627C3
:101A1000661FF70181810E947604C8010197F1F7E2
:101A200061E0F70182810E947604C8010197F1F715
:101A3000CF5FDD0FDC12E1CFDF91CF911F910F91CE
:101A4000FF90EF90DF9008951F93CF93DF93EC0109
:101A5000162F60E088810E94760444E060E8CE01A1
:101A60000E94F00C48E0612FCE010E94F00C61E072
:101A70008881DF91CF911F910C947604AF92BF9231
:101A8000CF92DF92EF92FF920F931F93CF93DF934A
:101A9000EC01162F69017A0160E088810E947604CA
:101AA00043E060EACE010E94F00C612F660F660FE2
:101AB00046E0CE010E94F00C10E09BE4A92EB12C70
:101AC00060E08A810E947604C5010197F1F76C2DD0
:101AD000617089810E947604C5010197F1F761E088
:101AE0008A810E947604C5010197F1F71F5FF69481
:101AF000E794D794C7940113E3CF61E08881DF9125
:101B0000CF911F910F91FF90EF90DF90CF90BF90FA
:101B1000AF900C9476040F93FC01E60FF11D23A106
:101B200030E050E040E0660F08E00E943E0D0F916B
:101B300008959C014D3008F04BE0D901A60FB11D6E
:101B400093969C9193979170E42FF0E0E957FD4FA5
:101B50008081982B93969C93C9010C948B0DCF9206
:101B6000DF92EF92FF920F931F93CF93DF938C013D
:101B7000EB01683E734010F0C7EED3E08AE0E82E38
:101B8000F12CCE01B7010E940B356B01482F62E0AA
:101B9000C8010E94990DC601B7010E940B35482F5C
:101BA00061E0C8010E94990DCE0164E670E00E94D8
:101BB0000B35462F60E0C801DF91CF911F910F9147
:101BC000FF90EF90DF90CF900C94990D0F93FC0154
:101BD000E60FF11D23A130E050E040E0660F08E081
:101BE0000E943E0D0F9108959C01DC01A60FB11DCE
:101BF00093969C91939790714E3008F04DE0E42FAE
:101C0000F0E0E758FD4F8081982B93969C93C90193
:101C10000C94E60DFC0194A19F7E80E1689FB001C9
:101C20001124692B64A361E0CF010C94E60DCF93DE
:101C3000DF93EC0161E089810E94A40461E08A8164
:101C40000E94A40461E088810E94A40461E088816C
:101C50000E94760461E08A810E94760461E08981B5
:101C60000E947604FE013396A3961192EC17FD07AD
:101C7000E1F7DF91CF910895DC01842FE0918C048E
:101C8000F0918D04309719F04D915C91199408955D
:101C90004F925F926F927F928F929F92AF92BF927C
:101CA000CF92DF92FF920F931F93CF93DF93F12C8C
:101CB00080918204F81608F0EEC0EF2DF0E0EE0FF0
:101CC000FF1FE65AFB4FC081D1818A81882309F426
:101CD000B3C088810E944D048C0189810E944D040B
:101CE0006C010E94B7054B015C0181E090E0CD28BA
:101CF00011F090E080E0880F991F21E0012B09F09E
:101D000020E0922F982B4B8D5C8D6D8D7E8D9501F3
:101D10008401041B150B260B370BB901A8014536AE
:101D200051056105710508F489C08885823008F481
:101D300085C08B8E9C8EAD8EBE8E81508887EE8541
:101D40009E1709F445C0888503E310E0873010F43E
:101D500001E010E06D8524E0E202F0011124492F3A
:101D6000092E000C550BE42BF52BE759FD4F708124
:101D700070039001719F300D1124062E02C0220FB6
:101D8000331F0A94E2F7EF85F8892E0F3F1F388B37
:101D90002F874C0F5D1FFA0141854423C1F04B880A
:101DA0005C886D887E884F8A588E698E7A8E8B8A81
:101DB0009C8AAD8ABE8A02C0359527956A95E2F75E
:101DC0003A8B298B8C3008F08BE08F5F88879E8759
:101DD00009891A898D819E810817190769F198016F
:101DE000281B390BC901E0915804F091590469018D
:101DF000CC0CDD1C309709F44BC04B815C812F5C0F
:101E00003F4F23363105E0F597FD30C0688180E013
:101E10001995C00ED11E31E4C3163FE1D30654F02C
:101E20008F85988983709927988B8F871A8A198A4A
:101E300010E000E01E830D83F3943ACF4F89588D54
:101E4000698D7A8D95018401041B150B260B370BC8
:101E5000B901A801453F51406105710508F46FCFF4
:101E60008B8E9C8EAD8EBE8E188669CF698182E086
:101E70001995C8018C199D09803C904E8CF2DACFDF
:101E800097FD03C0688181E0C3CF698183E0F0CF13
:101E900037FDEFCFBECFDF91CF911F910F91FF9014
:101EA000DF90CF90BF90AF909F908F907F906F907A
:101EB0005F904F900895CF92DF92EF92FF920F9331
:101EC0001F93CF93DF936C017A0180915604909118
:101ED0005704892B31F1D60113968C9100E181FDD5
:101EE00008E0EB01CE25DF2510E0C0FF13C0809194
:101EF000560490915704892B69F0E0915404F091B5
:101F00005504309739F0D6014D915C91612F8E2D9B
:101F100081701995D695C795F694E7941F5F0113C4
:101F2000E4CFDF91CF911F910F91FF90EF90DF9061
:101F3000CF900895AF92BF92CF92DF92EF92FF922F
:101F40000F931F93CF93DF931F92CDB7DEB7C0904F
:101F50005604D0905704C114D10409F43FC0FC01C9
:101F6000238130E1B32E21FF02C028E0B22EA62E3D
:101F70008C01F60185818683F12CE12CBA946B2DBE
:101F8000C6010E94D00CF80182810E944D04898311
:101F9000F80182810E944D048983EE0CFF1C298187
:101FA00081E090E0211102C090E080E0E82AF92A67
:101FB000B110E4CFF6016681C6010E94D00CF80191
:101FC000648175816E157F0549F0AA2021F0A70173
:101FD000C8010E945B0FF801F582E4820F90DF9147
:101FE000CF911F910F91FF90EF90DF90CF90BF9016
:101FF000AF900895CF93C0E080915304C81768F460
:10200000EC2FF0E0EE0FFF1FE55BFB4F61E08081FE
:1020100091810E949A0FCF5FEFCFCF910895DC019D
:10202000E0914904F0914A04309761F013968C9145
:102030001397882339F04D915C91119712966C910A
:1020400081E019940895DC01E0914904F0914A047B
:10205000309759F013968C911397811106C04D91CA
:102060005C91119712966C91199408951F93CF93D8
:10207000DF9310E0809148041817F0F4E12FF0E0AE
:10208000EE0FFF1FE054FC4FC081D1818A810E9476
:102090004D049B81891751F091E0811101C090E0BE
:1020A0009B83811105C0CE010E9423101F5FE2CFE8
:1020B000CE010E940F10FACFDF91CF911F910895AA
:1020C000FC01A08DB0E01396AA0FBB1FA80FB91F8B
:1020D000868997892D913C91821B930B978B868BD8
:1020E0008281863308F0865320917B00982F987068
:1020F000277F922B90937B008770806480937C0075
:1021000080917A00806480937A0080917A0086FDC5
:10211000FCCF9091780080917900A08DB0E013966B
:10212000AA0FBB1FAE0FBF1F8927982789278D9342
:102130009C93A08DB0E01396AA0FBB1FAE0FBF1FDC
:10214000868997892D913C91820F931F978B868B5F
:10215000808D8F5F808F808D8770808F0895CF9363
:10216000C0E08091BF03C81760F4EC2FF0E0EE0FE1
:10217000FF1FE156FC4F808191810E946010CF5F6C
:10218000F0CFCF910895CF93C0E08091BF03C817DF
:10219000B8F5EC2FF0E0EE0FFF1FE156FC4FA081E9
:1021A000B18156968D919C91579723E0969587958E
:1021B0002A95E1F713962D913C911497AC01421B9F
:1021C000530B9A0157FF03C031952195310915969C
:1021D0004C9115974217130609F084F414969C93BA
:1021E0008E931397E0919D03F0919E03309731F009
:1021F0004D915C91119712966C911995CF5FC5CF57
:10220000CF9108950E94B7056093F80B7093F90B76
:102210008093FA0B9093FB0B08950F931F93CF932A
:10222000DF93082F162FD42FC8E06D2F661F662767
:10223000661F802F0E947604DD0F61E0812F0E94CF
:10224000760460E0812F0E947604C15071F7DF911F
:10225000CF911F910F910895EF92FF920F931F93CB
:10226000CF93DF931F921F92CDB7DEB78C014983C6
:102270002A83660F771FF801E688F788EE0CFF1CAB
:10228000CF01801B910B8E159F0514F41192F8CF8E
:102290008981F801E60FF71F81838A81808360E0DE
:1022A000F80184890E9476041E141F046CF4F1E086
:1022B000EF1AF108F801EE0DFF1D4081F801628967
:1022C00080890E940D11F0CF61E0F80184890F90A0
:1022D0000F90DF91CF911F910F91FF90EF900C9491
:1022E000760477FD0DC0FC012689378962177307D4
:1022F0003CF420E0411101C021E04CE00C942C1191
:102300000895FF920F931F93CF93DF93F82EC0E0B1
:102310008091A304C817B8F4EC2FF0E0EE0FFF1F74
:10232000EC55FB4F00811181D0E0F801808D8D17B5
:1023300041F06D2F70E04F2DC8010E947111DF5FD9
:10234000F4CFCF5FE5CFDF91CF911F910F91FF9039
:1023500008950F931F93CF93DF93FC01208D2223C9
:10236000F9F06217E8F4062F10E04423B1F0EC0115
:1023700086899789081719073CF42FEF240F4AE044
:10238000B801CF010E942C1140E0B801CE01DF91CD
:10239000CF911F910F910C94711141E0B801F7CFCB
:1023A000DF91CF911F910F910895FF920F931F938B
:1023B000CF93DF93EC0160E088810E947604FB807C
:1023C0000F2D10E00C5F1F4F0C0F1D1FFF2049F059
:1023D000F80142918F0169818A810E940D11FA945E
:1023E000F5CF61E08881DF91CF911F910F91FF9030
:1023F0000C9476049F92AF92BF92CF92DF92EF92AD
:10240000FF920F931F93CF93DF93EC01C62E61E0F1
:102410008B810E94760461E08A810E94760410E03C
:102420008D81181708F03FC0DB80BC8087E0E82E64
:10243000F12C00E061E08D2D0E9476048B2D0E942E
:102440004D040E2C01C0880F0A94EAF7082B60E0B7
:102450008D2D0E94760481E0E81AF10858F75E019C
:10246000A10EB11CF501D780D016D9F0CC20B9F05F
:10247000912E990C990C990CE02EF12C8D2D8E2516
:1024800080FF07C04E2D4170692D6F0DCE010E9457
:102490003C0ED694E694F394F8E0FF12EFCFF501EA
:1024A00007831F5FBDCF60E08A81DF91CF911F91CD
:1024B0000F91FF90EF90DF90CF90BF90AF909F90E3
:1024C0000C947604CF93C0E080918B04C81768F415
:1024D000EC2FF0E0EE0FFF1FED57FB4F61E0808126
:1024E00091810E94FA11CF5FEFCFCF9108957F9233
:1024F0008F929F92AF92BF92CF92DF92EF92FF9214
:102500000F931F93CF93DF93C0E080914804C817C7
:1025100060F4EC2FF0E0EE0FFF1FE054FC4F8081E1
:1025200091810E940F10CF5FF0CFC0E080914804EE
:10253000C81760F4EC2FF0E0EE0FFF1FE054FC4FE3
:10254000808191810E942310CF5FF0CF10E08091B5
:102550008B04181708F057C0E12FF0E0EE0FFF1FB3
:10256000ED57FB4FC081D18160E0CE010E94FA118E
:102570006E0187E0C80ED11C4601712CF12CE12CB4
:102580008D818E151F04D9F0D4F0F40181914F0193
:1025900000E0A82EB12C80FF06C041E0672D600F3F
:1025A000CE010E943C0EB594A7948A2D0F5F08308F
:1025B00081F7FFEFEF1AFF0A88E0780EE1CFF12CE8
:1025C000912C812C8D8188151904D9F0D4F0F60155
:1025D00081916F0100E0A82EB12C80FD06C040E083
:1025E0006F2D600FCE010E943C0EB594A7948A2DEA
:1025F0000F5F083081F7FFEF8F1A9F0A88E0F80E0F
:10260000E1CF1F5FA4CF0E94021110E0809153041C
:102610001817E0F4E12FF0E0EE0FFF1FE55BFB4F32
:10262000C081D18160E0CE010E949A0F4C815D8112
:1026300070E060E0CE010E945B0F4C815D816FEF26
:102640007FEFCE010E945B0F1F5FE0CFC0E0809163
:10265000BF03C81718F5EC2FF0E0EE0FFF1FE1568F
:10266000FC4FA081B18156968D919C91579723E0A4
:10267000969587952A95E1F714969C938E931397D8
:10268000E0919D03F0919E03309731F04D915C9164
:10269000119712966C911995CF5FD9CFDF91CF9199
:1026A0001F910F91FF90EF90DF90CF90BF90AF9070
:1026B0009F908F907F9008950E948203882359F005
:1026C00081E08093A9138093AA138091AB1390911A
:1026D000AC130C94AB321092AA1390E080E00895F2
:1026E0001F93CF93DF930E945C13EC010E945C1355
:1026F000182F0E945C13CC0FDD1FCC55DB4F482FE9
:10270000612F888199810E94A911DF91CF911F913A
:102710000C9402110C9470137F928F929F92AF923F
:10272000BF92CF92DF92EF92FF920F931F93CF93BE
:10273000DF930E945C13EC010E945C138C010E94E9
:10274000D3034C010E945C135C010E945C13CC0F0C
:10275000DD1FCC55DB4FE880F980F701208D222367
:1027600081F1C7E0D0E0712C6C01DD241127BB247E
:102770004C2F4F5F96010C2E02C0359527950A9479
:10278000E2F720FF1CC0F7012689378902171307DB
:10279000ACF4F401E70DF11DE081F0E0E55BFB4FE7
:1027A0002491B5010C2E02C0759567950A94E2F745
:1027B00060FD2068B801C7010E942C117394219715
:1027C000B8F6DF91CF911F910F91FF90EF90DF90BE
:1027D000CF90BF90AF909F908F907F900C940211FC
:1027E000CF930E945C13C82F0E945C13BC018C2FF6
:1027F0000E94E004CF910C9402110E945C1320917E
:10280000120C821760F4FC01FF27EE0FFF1FE2504D
:10281000F44F808191810E94E90B0C94021108957C
:102820000F931F930E945C132091120C821708F0E3
:1028300047C0FC01FF27EE0FFF1FE250F44FA081BD
:10284000B1811296ED91FC91139714861586168628
:102850001786108A118A128A138A14AA15AA16AA30
:1028600017AA14A215A216A217A2148A158A168AEC
:10287000178A1C968C911C978823F1F012968D91E3
:102880009C9113971A964C9150E05195419551099E
:10289000052E000C660B770BFC010089118922893B
:1028A0003389401751076207730731F0408B518B12
:1028B000628B738B0E94560A1F910F910C94021128
:1028C0001F910F9108958F929F92AF92BF92CF92D6
:1028D000DF92EF92FF921F93CF93DF930E945C13DE
:1028E000EC010E945C13BC018091C0048C171D0692
:1028F00009F00CF4DCC0CC0FDD1FC455DB4F099090
:10290000D881C02DCD80DE800D2C000CEE08FF0894
:1029100089809A80092C000CAA08BB082F81388571
:10292000032E000C440B550B2C193D094E095F0971
:10293000072E000C880B990B681979098A099B09E5
:102940000E947E342B813C81032E000C440B550BDE
:10295000281939094A095B090E94B034BA01A90152
:102960004C0D5D1D6E1D7F1D052E000C660B770B3B
:102970008D859E85AF85B88984179507A607B7070B
:1029800009F45CC04D875E876F87788B89858111DC
:1029900055C08A85803308F04FC0188161E0812FCF
:1029A0000E94A4048A85282F30E0F901EE0FFF1F52
:1029B000E20FF31FE05FF44F1F739081907C912B27
:1029C00090831B861C862CE0622F0E94F134829F2C
:1029D000B001112430E020E0AB01420F531FFA0197
:1029E000EE0FFF1FE40FF51FE05FF44F908196FD9F
:1029F00016C02F5F3F4F2C30310571F7813059F5EC
:102A00001092800082E080938100109285001092E5
:102A10008400B19A80916F00826080936F00EA8594
:102A20008E2F90E0FC01EE0FFF1FE80FF91FE05F13
:102A3000F44F80818064808381E08987DF91CF912A
:102A40001F91FF90EF90DF90CF90BF90AF909F903D
:102A50008F900C940211823061F410929000809358
:102A60009100109295001092940088BB80937100A1
:102A7000D6CF833069F41092A00082E08093A10049
:102A80001092A5001092A40089BB80937200C7CF5A
:102A90008111C5CF1092200182E080932101109214
:102AA0002501109224018ABB80937300B8CFDF9177
:102AB000CF911F91FF90EF90DF90CF90BF90AF909C
:102AC0009F908F90089520912012309121128217AB
:102AD000930710F40C94683480E008950F931F93CB
:102AE000CF93DF938C01EB01F801808191819C01F0
:102AF0002F5F3F4F318320830E94631528813981E6
:102B0000A9014F5F5F4F59834883285C334FF90118
:102B1000808328813981283EF3E03F0760F48A33BF
:102B200019F7295C334FF901108281E0DF91CF91D1
:102B30001F910F91089580E0F9CFEF92FF920F93CC
:102B40001F93CF93DF93EC01E0902012F0902112BD
:102B5000888199818C010F5F1F4F198308830E9420
:102B60006315E016F10650F08A3391F781E0DF91AA
:102B7000CF911F910F91FF90EF90089580E0F7CFD4
:102B8000AF92BF92CF92DF92EF92FF920F931F937B
:102B9000CF93DF9300D01F92CDB7DEB75C011982CF
:102BA0001A821B821C82CE0101967C0110E000E09B
:102BB0006C01F501808191819C012F5F3F4F318332
:102BC00020830E946315F7018083F8018E3241F063
:102BD0000F5F1F4F8FEFE81AF80A0430110549F70D
:102BE000EC0DFD1D1082C6010E94AB320F900F90BC
:102BF0000F900F90DF91CF911F910F91FF90EF9069
:102C0000DF90CF90BF90AF900895FB01019000201E
:102C1000E9F73197AF01461B570BDC01ED91FC91B1
:102C20000280F381E02D19948091DF128823A1F0B6
:102C30006091B2138091B0139091B1130E94C305BB
:102C40008091E712882341F060EC72E08091B0132C
:102C50009091B1130E9405161092E6121092DF12A5
:102C600080E008958F929F92AF92BF92EF92FF9271
:102C70000F931F93CF93DF93CDB7DEB7A1970FB616
:102C8000F894DEBF0FBECDBF7C01FA01CB0119A2C3
:102C9000223008F42AE08E010F5D1F4F822E912C06
:102CA000B12CA12CBF01A50194010E948E34F90121
:102CB000CA016A300CF5605DD8016E938D01232B3B
:102CC000242B252B79F790E080E0109721F0BD01AF
:102CD000C7010E940516A1960FB6F894DEBF0FBE7D
:102CE000CDBFDF91CF911F910F91FF90EF90BF90DB
:102CF000AF909F908F900895695CDECFCF939091B5
:102D0000DF129923A9F0C82F6091B3138091B013FB
:102D10009091B1130E94C3054C2F50E070E060E029
:102D20002AE08091B0139091B113CF910C94321698
:102D3000CF9108959091DF12911110C091E090937E
:102D4000DF129093E612482F50E070E060E02AE036
:102D50008091B0139091B1130C9432160895CF93D3
:102D6000DF939091DF1291111AC0EB010E949A1625
:102D70008091DF12882379F06091B3138091B013B2
:102D80009091B1130E94C305BE018091B013909140
:102D9000B1130E94CA05DF91CF910C94141680E004
:102DA000DF91CF9108950E94B7056093F80B70935F
:102DB000F90B8093FA0B9093FB0B64EB72E085E0C8
:102DC0000C94AF161F93CF93DF9310924804109288
:102DD00082041092F70B9091A304E4EAF4E080E0FF
:102DE000981731F0A191B19158961C928F5FF8CF4E
:102DF0001092A3043091C004CCEAD4E020E0321752
:102E0000D1F0A991B99119968C911997882389F0DD
:102E10001A96EC911A978E2F90E0FC01EE0FFF1F8F
:102E2000E80FF91FE05FF44F80818F7B8083199654
:102E30001C922F5FE4CF1092C0049091120CEEEF21
:102E4000FBE080E0981729F0A191B1911C928F5F6F
:102E5000F9CF1092120C20918E0430E0AFE8B4E06C
:102E6000C5E9D4E090E080E08217930784F4E9910B
:102E7000F991309719F044A9411114AAED91FD91EF
:102E8000309719F043A9411113AA0196EDCF109282
:102E90008E041092BF0390919C03EBE9F4E080E074
:102EA000981759F0A191B19118962C911897222357
:102EB00011F018961C928F5FF3CF10929C039091A3
:102EC0008B04E3E8F4E080E0981731F0A191B19130
:102ED00016961C928F5FF8CF10928B0410E0E09151
:102EE00053041E1798F4F0E0EE0FFF1FE55BFB4F55
:102EF000C081D1818B8180FF07C062E08A810E94FE
:102F0000A4048B818E7F8B831F5FE9CF10925304C3
:102F10001092A60B1092A50B1092FD0B10929E0A18
:102F200010929D0A68EB72E085E0DF91CF911F91CE
:102F30000C94AF166BEB72E08FE00C94AF162091FF
:102F40009D0A30919E0A820F932F911D90939E0AA5
:102F500080939D0A8C3D954040F06CE075E085E0E3
:102F60000E94AF1690E080E00895C9018F539B4FF7
:102F70000895CF92DF92EF92FF920F931F93CF931A
:102F8000DF9390918204943109F45EC07901142F8B
:102F9000C62ED82E8FE10E94DD0B81110DC06FE08F
:102FA00074E085E0DF91CF911F910F91FF90EF903A
:102FB000DF90CF900C94AF168FE10E949F17EC0129
:102FC000892B09F01A8200918204E02FF0E0EE0FC5
:102FD000FF1FE65AFB4FD183C0831E821D82FC82F5
:102FE000EB82D882C98285E0819FF0011124E05BE9
:102FF000FD4FDE01199601900D928A95E1F762E08E
:103000008D2D0E94A40462E089810E94A4041E8682
:10301000188A1F861A8A198A18861F8A188E198E8E
:103020001A8E84EF91E0A0E0B0E08B8B9C8BAD8B8F
:10303000BE8B81E08A838EEA98E190935904809355
:1030400058040F5F00938204DF91CF911F910F917D
:10305000FF90EF90DF90CF90089581E08093FD0B7B
:103060006EEB72E081E10C94AF16CF93DF930E9478
:1030700002118AE00E949A168091A50B9091A60BEE
:10308000892B91F18BE390E00E946315C82F80910A
:10309000DF12882379F06091B3138091B01390917F
:1030A000B1130E94C3056C2F8091B0139091B1139E
:1030B0000E94C305C1E0D0E08091A50B9091A60BC2
:1030C000C817D90788F4CE01CB960E94631590915A
:1030D000DF12992339F0682F8091B0139091B113CA
:1030E0000E94C3052196E8CFDF91CF910C9414166E
:1030F000CF93DF932091DF122223A1F0EC016091A6
:10310000B3138091B0139091B1130E94C30520971F
:1031100049F0BE018091B0139091B113DF91CF912E
:103120000C940516DF91CF9108950F931F93CF93C1
:10313000DF93C82FD62F8A018DE10E949A16C8010D
:103140000E9478188D2F0E947E168C2F0E947E166A
:10315000DF91CF911F910F910C9414160F931F9331
:10316000CF93C82F8A0186E00E949A16C8010E9458
:1031700078188C2F0E947E16CF911F910F910C947E
:1031800014160F931F93CF93DF93C82FD62F8A0166
:103190008EE10E949A16C8010E9478188D2F0E9415
:1031A0007E168C2F0E947E16DF91CF911F910F917A
:1031B0000C9414160F931F93CF93C82F8A0187E0A6
:1031C0000E949A16C8010E9478188C2F0E947E16C1
:1031D000CF911F910F910C941416CF92DF92EF9222
:1031E000FF92CF93DF936C01EA018CE10E949A1663
:1031F000CE010E9478188091DF12882321F160911E
:10320000B3138091B0139091B1130E94C305C09184
:10321000B013D091B1130D2C000CEE08FF082AE07A
:10322000B701A601F7FE0CC06DE2CE010E94C305F6
:1032300044275527BA014C195D096E097F092AE018
:10324000CE010E943216DF91CF91FF90EF90DF9078
:10325000CF900C9414161F93CF93DF9385ED80933A
:10326000BC008091A20A9091A30AA091A40AB091F7
:10327000A50A0796A11DB11D23E0B695A7959795C0
:1032800087952A95D1F72091BC0024FD03C01092A8
:10329000EA0A52C04091A20A5091A30A6091A40A7E
:1032A0007091A50A452B462B472B69F30097A10582
:1032B000B10541F025E32A95F1F700000197A10936
:1032C000B109E1CF8091A10AC1E0C093A00A88238F
:1032D00099F1D091B8001091BA008091BC008A7B1E
:1032E0008093BC0060E084E10E94760460E085E1A8
:1032F0000E9476041092EA0AC093EC0A1092EB0A3C
:1033000061E084E10E94760461E085E10E94760438
:103310008091B9008E7F8093B9008091B9008D7F34
:103320008093B90088E48093B80085E48093BC0062
:103330001093BA00D093B800DF91CF911F910895F8
:103340004F925F926F927F928F929F92AF92BF92B5
:10335000CF92DF92EF92FF92CF93DF93EC016A015D
:103360007B0120E030E0A901CB01B6010E9441338E
:1033700087FF04C0F7FAF094F7F8F0948C8C9D8CDA
:10338000AE8CBF8CA7019601C501B4010E944133E8
:10339000882309F449C06CA97DA98EA99FA90E9420
:1033A00048332B013C01A7019601C501B4010E94DD
:1033B000A8359B01AC01C301B2010E94A7330E9452
:1033C0001A366CAB7DAB8EAB9FABA701960160E06C
:1033D00070E080E090E40E94A8350E945B3626E50C
:1033E0003EE04DE25FE30E94A73320E034E244E791
:1033F00059E40E94A73368AF79AF8AAF9BAFCC8EF8
:10340000DD8EEE8EFF8ECE01DF91CF91FF90EF909B
:10341000DF90CF90BF90AF909F908F907F906F90F4
:103420005F904F900C94560ADF91CF91FF90EF90F0
:10343000DF90CF90BF90AF909F908F907F906F90D4
:103440005F904F900895EF920F93CF93DF93EC012D
:1034500088E992E0998388836B831C861D861E868B
:103460001F86188A198A1A8A1B8A1C8A1D8A1E8A34
:103470001F8A80E090E0A0E8BFE3888F998FAA8F31
:10348000BB8F1C8E1D8E1E8E1F8E88A399A3AAA390
:10349000BBA31CA21DA21EA21FA261E070E07DA71B
:1034A0006CA73FEF3FA718A619A61AA61BA64C8328
:1034B0002D830E83EF821EA61CAA1DAA1EAA1FAA78
:1034C00018AE19AE1AAE1BAE1CAE1DAE1EAE1FAEB0
:1034D000FE01E05CFF4F80839183A283B3831A8255
:1034E000188619861A861B86CE010E94350840E090
:1034F00050E060E87FE3CE01DF91CF910F91EF9034
:103500000C94A0198F929F92AF92BF92CF92DF92AC
:10351000EF92FF920F931F93CF93DF930E945C1360
:10352000EC010E945C138C010E945C137C01809171
:10353000120CC81708F078C0DD27CC0FDD1FC25071
:10354000D44FC880D980F601C281D381B80190E000
:1035500080E00E9446334B015C01288D398D4A8DF5
:103560005B8D0E9441338823F1F1888E998EAA8E5B
:10357000BB8E8E01005C1F4FA501940160E074E2D8
:1035800084E799E40E94A835F801608371838283FF
:1035900093838CA99DA9AEA9BFA9181619061A066E
:1035A0001B060CF56C897D898E899F899B01AC0176
:1035B0000E94A7334B015C016C8D7D8D8E8D9F8D9C
:1035C0009B01AC010E943C359B01AC01C501B401DB
:1035D0000E94A8350E941A366CAB7DAB8EAB9FABB8
:1035E000CE010E94560AB70190E080E00E94463367
:1035F0004B015C0120E030E0A9010E9441338823A7
:1036000099F0B501A401F60182819381DF91CF91F8
:103610001F910F91FF90EF90DF90CF90BF90AF90F0
:103620009F908F900C94A019DF91CF911F910F91D3
:10363000FF90EF90DF90CF90BF90AF909F908F90D2
:1036400008954F925F926F927F928F929F92AF9266
:10365000BF92CF92DF92EF92FF920F931F93CF937F
:10366000DF93D02E9091120C9A3009F44AC00E2D9F
:10367000B22EE42E162FF82E8EE00E94DD0B811163
:1036800015C06CEE74E085E0DF91CF911F910F9132
:10369000FF90EF90DF90CF90BF90AF909F908F9072
:1036A0007F906F905F904F900C94AF168EE00E94C9
:1036B0009F17EC01892B09F01882E091120CF0E0C1
:1036C000EE0FFF1FE250F44FD183C08384E40E94C9
:1036D000DD0B811127C06BEC74E085E00E94AF1612
:1036E000C091120CDD2051F0EC2FF0E0EE0FFF1F27
:1036F000E250F44F808191810E94E90BCF5FC0932B
:10370000120CDF91CF911F910F91FF90EF90DF90FE
:10371000CF90BF90AF909F908F907F906F905F9071
:103720004F900895013009F48EC028F0023009F45A
:1037300096C01882D5CF84E4FE100EC01B110CC0B9
:103740000E949F174C01892B99F095E0E92E04E027
:10375000212F4F2D61E009C00E949F174C01892B3A
:1037600039F00F2D212F4B2D64E0C4010E94231A44
:103770009B828A82EA80FB8020E030E048EC53E4C0
:10378000F701608D718D828D938D0E944133882366
:1037900009F440C080E090E0A8ECB3E4F701808F2A
:1037A000918FA28FB38F80E090E4ACE1B5E4E05C50
:1037B000FF4F80839183A283B383F70184A995A9E6
:1037C000A6A9B7A9181619061A061B061CF56489BE
:1037D0007589868997899B01AC010E94A7332B01CB
:1037E0003C01F701648D758D868D978D9B01AC0131
:1037F0000E943C359B01AC01C301B2010E94A83577
:103800000E941A36F70164AB75AB86AB97ABC70164
:103810000E94560A40E050E068E474E48A819B818B
:103820000E94A019DC8281E08D83DD2021F062E01E
:103830008D2D0E94A404CA86AB8681E088831982FC
:103840008D878C874DCF84E40E949F174C01892B74
:1038500009F48ECF0F2D212F4B2D68E086CF84E405
:103860006FCF8F929F92AF92BF92CF92DF92EF92E3
:10387000FF92CF93DF930E945C13EC01B82E0E945D
:103880008203882309F48FC081E08093A913809379
:10389000AA138091AB139091AC130E94C9326B01B3
:1038A0007C018091120CB81608F083C0DD27CC0F84
:1038B000DD1FC250D44F0990D881C02D19828E814E
:1038C0009F81A885B985C816D906EA06FB0609F4C2
:1038D0005EC08A819B81DC011C968D909D90AD908D
:1038E000BC901F972B85222351F02D85222339F080
:1038F000ED91FC910280F381E02D19951D868C8558
:10390000882379F0C814D904EA04FB0454F48E81A6
:103910009F81A885B985C816D906EA06FB060CF46E
:103920001C868C85811110C08C149D04AE04BF04CC
:103930005CF48E819F81A885B9858C159D05AE05A7
:10394000BF0514F481E08C878A819B814A852C8590
:10395000429FA0011124052E000C660B770B4C0D25
:103960005D1D6E1D7F1DFC0180889188A288B38833
:10397000481559056A057B0531F0408B518B628BE8
:10398000738B0E94560ACE82DF82E886F986DF9129
:10399000CF91FF90EF90DF90CF90BF90AF909F902E
:1039A0008F900C9402111092AA13C12CD12C760185
:1039B00078CFDF91CF91FF90EF90DF90CF90BF90C5
:1039C000AF909F908F900895FF920F931F93CF9386
:1039D000DF930E945C13EC010E94D3038C010E94D0
:1039E0005C13F82ECC0FDD1FC556DB4F0990D88134
:1039F000C02D8885882369F163EC72E0C8010E94BC
:103A0000F93201E010E0009709F10E94AB3298858D
:103A1000992391F0982F9770980101C0220F9A95E1
:103A2000EAF7869586958695FE01E80FF11D84815B
:103A3000FF2049F0282B248363EC72E090E080E0C3
:103A40000E94F932E0CF20952823F5CFCE010E94C5
:103A5000D511DF91CF911F910F91FF900C9402111E
:103A60006F927F928F929F92AF92BF92CF92DF928E
:103A7000EF92FF920F931F93CF93DF93EC01CB0153
:103A800065EC72E00E94F9328C018AE0E82EF12C9C
:103A900094E6692E712C28EEC22E23E0D22E011559
:103AA000110509F4EEC06DE370E0C8010E94D5373E
:103AB000812C912C5401009749F0FC011192CF0107
:103AC0000E94AB324C01990FAA08BB0867EC72E068
:103AD000C8010E94E037892B09F053C08401F0E14E
:103AE0008F16F7E29F0608F049C060E080ED881667
:103AF00087E0980608F061E0CE010E940A0EC80136
:103B0000B7010E940B355B01482F63E0CE010E9494
:103B1000F40DC501B7010E940B35482F62E0CE01BC
:103B20000E94F40DC801B3010E940B35CB01B7010F
:103B30000E940B35482F61E0CE010E94F40DC801B0
:103B4000B6010E940B35462F60E0CE010E94F40DB5
:103B50008DA18F7E8DA362E0CE010E94E60D8EA125
:103B600080618EA363E0CE010E94E60D65EC72E0F9
:103B700090E080E00E94F9328C0191CF0FE017E2D3
:103B8000BACF6EEC72E0C8010E94E037892B09F0D1
:103B900046C08401E0E18E16E7E29E06E8F560E0AB
:103BA000F0ED8F16F7E09F0608F061E0CE010E946D
:103BB0000A0EC801B7010E940B355B01482F63E074
:103BC000CE010E94F40DC501B7010E940B35482FAC
:103BD00062E0CE010E94F40DC801B3010E940B35D2
:103BE000CB01B7010E940B35482F61E0CE010E9446
:103BF000F40DC801B6010E940B35462F60E0CE01DE
:103C00000E94F40D8DA180618DA362E0CE010E941F
:103C1000E60D8EA18F7EA5CF0FE017E2C6CF65ED32
:103C200072E0C8010E94E037892B09F09FCF8A9487
:103C30008928D9F445E060E0CE010E94F40D4BE004
:103C400061E0CE010E94F40D4CE062E0CE010E94E2
:103C5000F40D4DE063E0CE010E94F40D60E0CE0172
:103C60000E940A0E8DA18F7ECFCF4DE060E0CE0185
:103C70000E94F40D4DE061E0CE010E94F40D4DE094
:103C8000E4CFDF91CF911F910F91FF90EF90DF90E4
:103C9000CF90BF90AF909F908F907F906F9008953E
:103CA0002F923F924F925F926F927F928F929F924C
:103CB000AF92BF92CF92DF92EF92FF920F931F933A
:103CC000CF93DF93CDB7DEB7C854D1090FB6F894C0
:103CD000DEBF0FBECDBF0E945C1327969FAF8EAF95
:103CE00027970E94D3037C0180E29E012F5F3F4F04
:103CF00025963FAF2EAF2597F901282F11922A95CF
:103D0000E9F71E0131E2230E311CF10111928A956F
:103D1000E9F74FE150E0B701CE0101960E94F0377C
:103D20004FE150E0B701C1010E94F03700919504C6
:103D300010919604F80184A9882309F43AC365EC2C
:103D400072E0C7010E94F9326C01EAE04E2E512C5C
:103D5000612C712CC114D10409F42BC36DE370E004
:103D6000C6010E94D53723969FAF8EAF2397009749
:103D7000B9F1FC011192CF012396FFAFEEAF23976B
:103D80004AE050E0BE016F5B7F4F0E94A831F62EE3
:103D9000E72E28968FAF289729969FAF29976CED2D
:103DA00072E0C6010E94E037892B19F5F80182A95B
:103DB000806882AB6FE0C8010E948B0DF80182A978
:103DC0008F7B82AB6FE0C8010E948B0DF80184A14C
:103DD0008E7F84A36F2D7E2DC8010E94AF0D57C02A
:103DE000F12CE12C28961FAE289729961FAE299713
:103DF000D6CF63EE72E0C6010E94E037892BA1F4B2
:103E0000F80182A98F7782AB6FE0C8010E948B0D09
:103E1000F80182A9806482AB6FE0C8010E948B0D1B
:103E2000F80184A18160D5CF6BEE72E0C6010E94DB
:103E3000E037892BA1F5C701C92EDE2CF8EECF168D
:103E4000F3E0DF0620F077EEC72E73E0D72E6AE0AE
:103E5000E62EF12CC601B7010E940B355B01482FFD
:103E600065E0C8010E94990DC501B7010E940B359C
:103E7000482F64E0C8010E94990DC60164E670E015
:103E80000E940B35462F63E0C8010E94990D65EC36
:103E900072E090E080E00E94F9326C015BCF62EF4B
:103EA00072E0C6010E94E037892B09F060C08F2CB8
:103EB0009E2C2896AFAC28972996BFAC299720EA6C
:103EC000821626E8920621E0A206B10438F05FE9E6
:103ED000852E56E8952EAA24A394B12CC501B401D1
:103EE000A30192010E948E3469017A01462F6AE093
:103EF000C8010E94990DC701B601A30192010E9459
:103F00008E34462F69E0C8010E94990DC501B401A5
:103F100024E630E040E050E00E948E34CA01B9014E
:103F2000A30192010E948E34462F68E0C8010E94CE
:103F3000990DC501B40128EE33E040E050E00E9445
:103F40008E34CA01B901A30192010E948E34462F1A
:103F500067E0C8010E94990DC501B40120E137E274
:103F600040E050E00E948E34422F66E08DCF69EF32
:103F700072E0C6010E94E037892B09F054C0C701E6
:103F8000E92EF82EF80181A990A927A52E7F9E7F02
:103F90008E7FF0E1EF16F7E2FF06DCF531EFE31676
:103FA00038EDF30644F0F7FC0AC0E114F104A9F57A
:103FB000F80190AB0BC041EFE42E48EDF42EF194E4
:103FC000E194F108F80190AB93A9892B81AB27A765
:103FD0004CE06EE0C8010E94990D4CE06DE0C80114
:103FE0000E94990DC70164E670E00E941F35CB0165
:103FF0006AE070E00E941F35482F6CE0C8010E9403
:10400000990DC70168EE73E00E941F35462F6BE0E3
:104010003BCF3FE0E32E37E2F32EF80133A9932B99
:1040200090AB832BD3CF6FEF72E0C6010E94E037D5
:10403000892BC9F58F2DF80191A920A937A543A98E
:1040400084367CF58D392CF0F7FC04C02E7F242BB0
:1040500003C08DE981952E7FF80120AB9E7F942BC4
:1040600091AB316037A76AE00E94FD34F82E492FEA
:104070006CE0C8010E94990D4F2D6BE0C8010E94B1
:10408000990DF80180A9817080AB81A9817081AB05
:104090006DE0C8010E948B0D6EE0C8010E948B0D7F
:1040A000F6CE83E6D3CF66E073E0C6010E94E03728
:1040B000892BE1F4F11017C08BE0F82E4F2D60E052
:1040C000C8010E94990D4F2D61E0C8010E94990D11
:1040D0004F2D62E0C8010E94990DF80184A18E7FE6
:1040E00084A36FE0DACFBAE0FB2EE8CF61E173E0A2
:1040F000C6010E94E037892BA1F4F1100FC0ABE09C
:10410000FA2E4F2D63E0C8010E94990D4F2D64E0F7
:10411000C8010E94990D4F2D65E0B6CEFAE0FF2E42
:10412000F0CF6CE173E0C6010E94E037892BF1F417
:10413000F11019C0EBE0FE2E4F2D66E0C8010E9481
:10414000990D4F2D67E0C8010E94990D4F2D68E031
:10415000C8010E94990D4F2D69E0C8010E94990D78
:104160004F2D6AE091CE7AE0F72EE6CF67E273E05A
:10417000C6010E94E037892B29F5F80181A9F110C9
:1041800016C08E7F81AB6BE0F62E4F2D6BE0C80121
:104190000E94990D4F2D6CE0C8010E94990D4F2D82
:1041A0006DE0C8010E94990D4F2D6EE06DCE8160CB
:1041B00081AB80A98E7F80AB87A58E7F87A75AE0D1
:1041C000F52EE3CF61E373E0C6010E94E037892B4F
:1041D00061F4F80186A18E7F91E0F11001C090E0BA
:1041E000892BF80186A363E058CF6BE373E0C60127
:1041F0000E94E037892B61F4F80180A58E7F91E061
:10420000F11001C090E0892BF80180A765E045CF4F
:1042100065E473E0C6010E94E037892B61F4F80180
:1042200086A58E7F91E0F11001C090E0892BF80106
:1042300086A76BE032CF6FE473E0C6010E94E037DF
:10424000892B09F07EC0F80184A58E7F92A99F7DFD
:10425000F1103CC0906292AB816084A76FE0C8010E
:104260000E948B0D69E0C8010E948B0DF80182A9A4
:104270008F7E82AB83A58E7F83A76FE0C8010E94EB
:104280008B0D68E0C8010E948B0DF80182A9846043
:1042900082AB82A5816082A76FE0C8010E948B0D6E
:1042A00067E0C8010E948B0DF80182A9877F82AB6D
:1042B00081A58E7F81A76FE0C8010E948B0D66E00B
:1042C000C8010E948B0DF80110AEE1CD92AB84A71E
:1042D0006FE0C8010E948B0D69E0C8010E948B0D40
:1042E000F80182A9806182AB83A5816083A76FE01A
:1042F000C8010E948B0D68E0C8010E948B0DF80177
:1043000082A98B7F82AB82A58E7F82A76FE0C801D6
:104310000E948B0D67E0C8010E948B0DF80182A9F5
:10432000886082AB81A5816081A76FE0C8010E948F
:104330008B0D66E0C8010E948B0D21E0F80120AFD3
:10434000A6CD6CE573E0C6010E94E037892B91F49D
:10435000F80182A98F7721E030E0F11002C030E04F
:1043600020E03695322F222737952795822BF801AA
:1043700082ABB7CE68E673E0C6010E94E037892BB6
:1043800079F4F80182A98F7B21E030E0F11002C0BE
:1043900030E020E096E0220F331F9A95E1F7E6CF58
:1043A00065E773E0C6010E94E037892B09F06FCD05
:1043B00011CD27962EAD3FAD27972130310539F528
:1043C0008091910490919204FC0123A9BE016F5F3A
:1043D0007F4F21112CC00E940211C85BDF4F0FB626
:1043E000F894DEBF0FBECDBFDF91CF911F910F912B
:1043F000FF90EF90DF90CF90BF90AF909F908F9005
:104400007F906F905F904F903F902F9008952796E8
:104410002EAD3FAD279722303105E9F68091930408
:1044200090919404FC0123A92223A9F2B1010E94D6
:10443000301DD1CFEF92FF920F931F93CF93DF9355
:1044400010918E04133009F451C0F42E062FE82E7B
:1044500087E30E94DD0B81110BC06FE274E085E001
:10446000DF91CF911F910F91FF90EF900C94AF16B9
:1044700087E390E00E94B036EC01E882F9820A837B
:10448000E12FF0E0EE0FFF1FE157FB4FD183C08318
:10449000ECAA0DABFEAA81E08BABCE010E94170EF9
:1044A00060E3CE010E94240D62E5CE010E94240D3E
:1044B00062E0CE010E94240D66E0CE010E94240D30
:1044C000F12C04E020E030E0A9016F2DCE010E9424
:1044D0003E0DF39480E2F812F4CFA39680E1FE0142
:1044E00011928A95E9F71F5F10938E04DF91CF91A7
:1044F0001F910F91FF90EF9008952F923F924F924E
:104500005F926F927F928F929F92AF92BF92CF9263
:10451000DF92EF92FF920F931F93CF93DF9300D020
:104520001F92CDB7DEB78091A50B9091A60B892B7A
:1045300009F4F6C48BE390E09A8389831C821B8282
:10454000CE0101960E94C015882309F4E9C420E138
:10455000D22E3CE0B32E48E0942E54EB652E712C05
:1045600088248A94EFEFE80FEF3008F0A7C00E2EF2
:10457000000CFF0B8827E054FD4D8F4F0C94333512
:10458000CF22FA242C2363233C24A92422250D25A1
:104590005F242226C22594265E23F9267C24CE01A0
:1045A00001960E94C015C82E809148048434D9F128
:1045B00084E00E94DD0B61EC72E0882309F462C4A0
:1045C000EB80FC8084E00E949F178C010097C1F073
:1045D000DC011296CC921297C701885C934F8D93A1
:1045E0009C9362E08C2D0E94A404F80182810E94B9
:1045F0004D0421E0892B09F420E0D80113962C9377
:1046000080914804E82FF0E0EE0FFF1FE054FC4FCC
:1046100011830083EAEDF8E1F0934A04E093490442
:104620008F5F80934804BE016D5F7F4FCE0101967E
:104630000E946E15182FCE0101960E94C015882386
:1046400009F46BC411118ECF10921F1061EE73E04C
:1046500085E00E94AF1664C4CE0101960E94C01589
:10466000F82E8091F70B883249F182E00E94DD0B31
:104670006FED72E0882309F405C382E00E949F1762
:104680008C01009771F0DC01FC9211961C9261E0A4
:104690008F2D0E94A404F801618170E080810E9446
:1046A000E0048091F70BE82FF0E0EE0FFF1FE955D3
:1046B000F44F118300838F5F8093F70BCE01019637
:1046C0000E949D15B7CFCE0101960E94C015282EDD
:1046D000CE0101960E94C015482ECE0101960E947F
:1046E000C015382ECE0101960E94C015A82ECE010D
:1046F00001960E94C015582E8091A3048430F1F2D7
:1047000089E10E94DD0B6DEF72E0882309F4BAC2E3
:1047100089E10E949F178C01009719F0DC015896DF
:104720001C92E22C022C000CFF08C090A304EC2D7C
:10473000F0E0EE0FFF1FEC55FB4F11830083F801F3
:10474000F18AE08A832D330C990B938B828B842D15
:10475000440C990B958B848B252D2150330B2830DD
:10476000310508F45CC088E090E0D80157969C932E
:104770008E93569761E0822D0E94A40461E0F801B7
:1047800082890E94A40461E0D80154968C910E9411
:10479000A40461E0F80184890E947604D80151964E
:1047A000FC92EE925097F12CE12CF80186899789C2
:1047B000E816F906B4F520E04FE0B701C8010E9401
:1047C0002C11D80156968D919C91E816F90634F477
:1047D00027E04BE0B701C8010E942C1120E049E01E
:1047E000B701C8010E942C11F80186899789E81643
:1047F000F90664F44424439420E0442DB701C80131
:104800000E942C114394F9E04F12F6CF41E0B7011A
:10481000C8010E9471112FEFE21AF20AC6CF852D4E
:10482000A3CF508E512CF801808D581608F54A2DD3
:10483000652DC8010E94A911E52CF12C40E0B701BB
:10484000C8010E947111D80156968D919C91E8166D
:10485000F90664F44424439420E0442DB701C801D0
:104860000E942C114394B9E04B12F6CF5394DBCF46
:10487000C394C092A30422CFCE0101960E94C0151A
:10488000182FCE0101960E94C015F82ECE01019678
:104890000E94C015582ECE0101960E94C015482EC8
:1048A000CE0101960E94C015A12CC12CE12C00E084
:1048B000242D452D6F2D812F0E94211BFFCECE016F
:1048C00001960E94C015182FCE0101960E94C015B6
:1048D000F82ECE0101960E94C015582ECE010196E9
:1048E0000E94C015482ECE0101960E94C015A12C31
:1048F000C12CE12C082FDCCFCE0101960E94C015FF
:10490000182FCE0101960E94C015F82ECE010196F7
:104910000E94C015582ECE0101960E94C015482E47
:10492000CE0101960E94C015082FCE0101960E946B
:10493000C015E82ECE0101960E94C015C82ECE01EA
:1049400001960E94C015AA24A3948111B1CFA12C75
:10495000AFCFCE0101960E94C015182F8091C004E0
:104960008A3009F4ABCE87E10E94DD0B6EE173E083
:10497000882309F487C187E10E949F17FC01892BD6
:10498000B9F08091A00B803398F591E0980F909347
:10499000A00B828790E0DC01AA0FBB1FA80FB91FF4
:1049A000A05FB44F28EB3BE012963C932E931197F7
:1049B0008091C004A82FB0E0AA0FBB1FA455BB4F25
:1049C000ED93FC931186158616861786108A118A38
:1049D000128A138A148A1282118274826382168266
:1049E00015827086678210838F5F8093C00466CEC5
:1049F0008286DECFCE0101960E94C015182FCE010F
:104A000001960E94C0152B813C81285C334F40E009
:104A1000682F812F0E94B91706CECE0101960E9401
:104A2000C015182FCE0101960E94C015082FCE0187
:104A300001960E94C0152B813C81285C334F482F82
:104A4000602FE7CFCE0101960E94C015CE010196DE
:104A50000E94C015CE0101960E94C015082F81301A
:104A600009F082C010918E04133009F427CE89E337
:104A70000E94DD0B6CE373E0882309F403C189E332
:104A800090E00E94B0367C01DC01BC9211969C92B1
:104A900011978BE012968C931297D3960C93D39721
:104AA000E12FF0E0EE0FFF1FEB56FB4FF182E082AB
:104AB000D596BC92D597D6968C93D697D7969C923E
:104AC000D797D4960C93C7010E94170E60E3C701D5
:104AD0000E94240D62E5C7010E94240D62E0C70117
:104AE0000E94240D66E0C7010E94240DC12C04E041
:104AF00020E030E0A9016C2DC7010E943E0DC39457
:104B0000B0E2CB12F4CFF701B396DF012D2D1D9249
:104B10002A95E9F761E08AE00E94A40461E08AE056
:104B20000E947604D701D2968C91D2978160D2965A
:104B30008C936FE0C7010E948B0DF70182A9826000
:104B400082AB6FE0C7010E948B0DD70197968C91C5
:104B50009797816097968C9364E0C7010E948B0DB4
:104B60001F5F10938E04AACD42E261E280E2023020
:104B700031F0033009F0A2CD45E264E283E20E9405
:104B80001A229CCDCE0101960E94C015C82ECE01DE
:104B900001960E94C015A82E8091BF03803109F4B0
:104BA00042CD8DE10E94DD0B68E573E0882309F4B6
:104BB00069C10B811C818DE10E949F177C010097C8
:104BC00069F1FC013696DF012D2D1D922A95E9F73A
:104BD000DC0157961C921E92569758961C92589735
:104BE0001596AC9215971296CC921297085C134FBB
:104BF0000D931C9362E08C2D0E94A40418E0C70161
:104C00000E9460101150D9F7F7018689978943E017
:104C1000969587954A95E1F7948383838091BF03A6
:104C2000E82FF0E0EE0FFF1FE156FC4FF182E0822B
:104C30002DEE38E130939E0320939D038F5F809388
:104C4000BF03F1CCCE0101960E94C015A82ECE0163
:104C500001960E94C015382ECE0101960E94C01503
:104C6000482ECE0101960E94C015582E80919C03BB
:104C7000843009F423CD89E00E94DD0B811106C048
:104C800068E773E085E00E94AF1618CD89E00E94C6
:104C90009F178C01C0909C03EC2CF12CEE0CFF1C98
:104CA000F701E556FB4F9183808381E0D801189688
:104CB0008C931897AC9211963C92119712964C9245
:104CC000129713965C9261E08A2D0E94A40461E021
:104CD000F80181810E94A40461E0D80112968C91B0
:104CE0000E94A404F8019381349680E0981719F08B
:104CF00011928F5FFBCFC8010E94D511F701E556D5
:104D0000FB4F80819181DC0113963C91FC0134962C
:104D100020E0321719F011922F5FFBCF0E94D511BE
:104D2000C394C0929C03CACCCE0101960E94C015C8
:104D3000C82ECE0101960E94C015482ECE010196C4
:104D40000E94C015582ECE0101960E94C015A82EB3
:104D500080918B04843009F466CC8BE00E94DD0BDB
:104D60006DE973E0882309F48DC0EB80FC808BE053
:104D70000E949F178C01009731F0FC011682178268
:104D8000108611861286E0918B04F0E0EE0FFF1F73
:104D9000ED57FB4F11830083F801C2824382548296
:104DA000C701885C934F91838083A58261E08C2D3D
:104DB0000E94A40461E0D80113968C910E94A4047F
:104DC00060E0F80184810E94A40481E0D801169675
:104DD0008C9360E0C8010E94FA11E5E9F8E1F093D4
:104DE0008D04E0938C0480918B048F5F80938B04FF
:104DF0001ACCCE0101960E94C015C82ECE01019694
:104E00000E94C015F82ECE0101960E94C015082FF1
:104E1000CE0101960E94C015182FCE0101960E9466
:104E2000C015F092191200931A1210931B1280935E
:104E30001C1210921D1209E112E161E0D8018D915E
:104E40008D010E94A404B2E10D311B07B1F78091DE
:104E50001D12816080931D1260E089E192E10E9441
:104E6000D00CCE0101960E94C015A82E809153044B
:104E7000843009F4D8CB86E00E94DD0B811106C096
:104E800061EC73E085E00E94AF16CDCB0B811C81F5
:104E900086E00E949F177C01009759F0E9E1F2E15A
:104EA000F0935704E0935604DC0115961C921E9271
:104EB0001497E0915304F0E0EE0FFF1FE55BFB4F0A
:104EC000F182E082F701C282085C134F11830083F4
:104ED000F1E0AF16F1F0D70113961C9262E08C2D31
:104EE0000E94A404D70113968C91139781601396A6
:104EF0008C9360E0C7010E949A0FE1ECF8E1F09317
:104F00005504E0935404809153048F5F80935304BD
:104F10008ACB82E0F7018383E1CF112309F494CB9C
:104F20000F900F900F900F90DF91CF911F910F91E5
:104F3000FF90EF90DF90CF90BF90AF909F908F90B9
:104F40007F906F905F904F903F902F9008950E94B8
:104F50007D220C942D18FF920F931F93CF93DF9314
:104F60008C01EB01F8800E946834F81621F06F2D57
:104F7000C8010E947034CE01DF91CF911F910F9133
:104F8000FF900895AF92BF92CF92DF92EF92FF927F
:104F90000F931F93CF93DF930E9402110E94D303BC
:104FA0006C01EC0109900020E9F72197C81BD90B8F
:104FB000DD27E090A50BF090A60BC70101968C0FA2
:104FC0009D1F883D954008F053C05E018FEFA81AE1
:104FD000B80A2BE3E20EF11C95012E0D3F1D8091C6
:104FE0002012909121128217930778F010E000E0D0
:104FF000B601600F711FC701800F911F0E94AB2780
:105000000F5F1F4F0A151B0598F34091A50B509198
:10501000A60BC40FD51FD093A60BC093A50B8091F0
:10502000DF12811147C085E00E949A168091DF123D
:10503000882391F06091B3138091B0139091B113D4
:105040000E94C305AE0170E060E02AE08091B013D9
:105050009091B1130E943216DF91CF911F910F9161
:10506000FF90EF90DF90CF90BF90AF900C9414160C
:105070008091DF1281111EC085E00E949A168091F6
:10508000DF12882349F36091B3138091B01390919C
:10509000B1130E94C305C091B013D091B1136DE25A
:1050A000CE010E94C3052AE041E050E060E070E0DC
:1050B000CE01D0CFDF91CF911F910F91FF90EF9054
:1050C000DF90CF90BF90AF900895CF93DF930E9471
:1050D000D303FC0190E3A6E1B2E001900D929A9512
:1050E000E1F78091201290912112892B29F063E23F
:1050F00090E080E00E947034809120129091211203
:10510000C09760F0D0E0C0E0BE016A5E7D4F21969E
:10511000CE010E94AB27CF32D105B1F78091DF12CB
:1051200081110BC085E00E949A1686E192E00E94F0
:105130007818DF91CF910C941416DF91CF910895D8
:105140004F925F926F927F928F929F92AF92BF9297
:10515000CF92DF92EF92FF92CF93DF930E94B70539
:10516000611571058105910511F00E949F310E9422
:1051700050312B013C010E9450314B015C01CC2489
:10518000CA948FE0D82EE12CF12CC301B201A70103
:1051900096010E94B0347F936F93C501B401A701BB
:1051A00096010E94B0347F936F9380E893E09F93C1
:1051B0008F9380E092E09F938F930E94FF378DB78B
:1051C0009EB708960FB6F8949EBF0FBE8DBF809114
:1051D000201290912112CB9760F0C0E3D0E0BE0185
:1051E00060537E4FCE010E94AB272196CB33D10571
:1051F000B1F7DF91CF91FF90EF90DF90CF90BF900C
:10520000AF909F908F907F906F905F904F90089598
:105210000E94A0288091DF12811109C08AE00E94BB
:105220009A1680E092E00E9478180C941416089563
:10523000EF92FF920F931F93CF93DF9380E390E061
:105240000E946315833509F048C081E390E00E9415
:1052500063158E3409F049C080912012909121127B
:10526000CB9770F000E012E0C0E3D0E0CE010E94E6
:105270006834F80181938F012196CB33D105B1F7C2
:105280000E9402118AE00E949A168091DF12882300
:1052900081F06091B3138091B0139091B1130E948B
:1052A000C3056BEF73E08091B0139091B1130E942E
:1052B000CA0586E192E00E94781880E092E00E94A0
:1052C000781886E993E00E947818DF91CF911F91BA
:1052D0000F91FF90EF900C941416893431F481E310
:1052E00090E00E946315843471F00E94A0288091A0
:1052F000201290912112CC9718F260E08BE390E09D
:105300000E947034BDCF6DE873E080E092E00E94AF
:10531000E93780E1E82E82E1F82ED0E0C0E001E933
:1053200013E0F70181917F011F928F931F930F93D9
:10533000CE018D5F9D4F9F938F930E94FF372296E2
:105340000F900F900F900F900F900F90C231D105DA
:1053500041F796CF1F920F920FB60F9211242F9301
:105360003F938F939F93AF93BF938091340C909111
:10537000350CA091360CB091370C3091330C23E0F2
:10538000230F2D3758F50196A11DB11D2093330C25
:105390008093340C9093350CA093360CB093370C5B
:1053A00080912F0C9091300CA091310CB091320C67
:1053B0000196A11DB11D80932F0C9093300CA093EA
:1053C000310CB093320CBF91AF919F918F913F916F
:1053D0002F910F900FBE0F901F90189526E8230F66
:1053E0000296A11DB11DD2CF1F920F920FB60F9240
:1053F00011240BB60F922F933F934F935F936F93AC
:105400007F938F939F93AF93BF93EF93FF9382E22A
:1054100092E10E946706FF91EF91BF91AF919F913A
:105420008F917F916F915F914F913F912F910F904D
:105430000BBE0F900FBE0F901F9018951F920F92EA
:105440000FB60F9211240BB60F922F935F936F93A9
:105450007F938F939F93AF93BF93EF93FF93E091CD
:105460003212F09133128081E0913812F0913912AA
:1054700082FD26C0208180913B1290E0019660E67B
:1054800070E00E940B3590913C12981741F0E0912A
:105490003B12F0E0EE5DFD4E258F80933B12FF91B5
:1054A000EF91BF91AF919F918F917F916F915F919C
:1054B0002F910F900BBE0F900FBE0F901F9018955D
:1054C0008081EDCF1F920F920FB60F9211240BB671
:1054D0000F922F933F934F935F936F937F938F938D
:1054E0009F93AF93BF93EF93FF9348E251E064E241
:1054F00071E090E080E00E942707FF91EF91BF915B
:10550000AF919F918F917F916F915F914F913F915B
:105510002F910F900BBE0F900FBE0F901F901895FC
:105520001F920F920FB60F9211240BB60F922F936A
:105530003F934F935F936F937F938F939F93AF931B
:10554000BF93EF93FF9348EA50E064EA70E083E092
:1055500090E00E942707FF91EF91BF91AF919F913B
:105560008F917F916F915F914F913F912F910F900C
:105570000BBE0F900FBE0F901F9018951F920F92A9
:105580000FB60F9211240BB60F922F933F934F93A8
:105590005F936F937F938F939F93AF93BF93EF939B
:1055A000FF9348E950E064E970E082E090E00E94F7
:1055B0002707FF91EF91BF91AF919F918F917F91BD
:1055C0006F915F914F913F912F910F900BBE0F9074
:1055D0000FBE0F901F9018951F920F920FB60F924B
:1055E00011240BB60F922F933F934F935F936F93BA
:1055F0007F938F939F93AF93BF93EF93FF9348E86D
:1056000050E064E870E081E090E00E942707FF919D
:10561000EF91BF91AF919F918F917F916F915F912A
:105620004F913F912F910F900BBE0F900FBE0F9097
:105630001F9018951F920F920FB60F9211240BB660
:105640000F922F933F934F935F936F937F938F931B
:105650009F93AF93BF93EF93FF938091B900887F9F
:10566000803609F44DC008F040C0883209F4A7C064
:1056700028F5803109F49BC0C8F4882309F4F7C0E9
:10568000883009F494C0FF91EF91BF91AF919F9141
:105690008F917F916F915F914F913F912F910F90DB
:1056A0000BBE0F900FBE0F901F901895883109F414
:1056B00086C0803241F78093E90A14C0803409F42F
:1056C0009BC040F48033B9F38833E9F68093E90A4C
:1056D00085ECAEC0803509F483C0883509F494C0E8
:1056E000883489F60E942B19CECF883909F48AC0F4
:1056F00038F5883729F050F4883611F0803719F6DC
:1057000083E08093EA0A1092E80A55C0883809F4C9
:1057100079C0803919F0803809F0B5CF8091E80A56
:10572000803208F06FC0E091E80A81E08E0F80932C
:10573000E80A8091BB00F0E0E853F54F80833BC05E
:10574000803B39F0D0F4803A09F477C0883A09F008
:105750009ACF84E08093EA0A1092C70A1092C60A90
:10576000F0E0E0E019958091C60A81110FC081E058
:105770008093C60A1092A60A09C0803C09F4A8CFFB
:10578000883C09F4A5CF883B09F07DCFE091C70A9A
:1057900081E08E0F8093C70AF0E0EA55F54F8081D3
:1057A0008093BB009091C70A8091C60A29C080915E
:1057B0000F0B8093BB0085EC8093BC0064CF90916D
:1057C0000E0B80910D0B981758F5E0910E0B81E0B0
:1057D0008E0F80930E0BF0E0E351F54F8081E9CFFF
:1057E000E0910E0B81E08E0F80930E0B8091BB0039
:1057F000F0E0E351F54F808390910E0B80910D0BFB
:105800009817C8F285E8D8CFE0910E0B81E08E0F93
:1058100080930E0B8091BB00F0E0E351F54F808345
:105820008091EC0A81115ECF81E08093EB0A84EADB
:105830008093BC001092EA0A26CF85EC8093BC00CE
:105840001092EA0A8091E80A803230F4E091E80A86
:10585000F0E0E853F54F10826091E80A70E088ECC0
:105860009AE0F0E0E0E019951092E80A0CCF10926F
:10587000E90A38CF109225121092241288EE93E094
:10588000A0E0B0E08093261290932712A0932812F4
:10589000B093291282EB92E090932312809322120C
:1058A00085EC90E090932F1280932E1284EC90E080
:1058B000909331128093301280EC90E090933312E9
:1058C0008093321281EC90E09093351280933412E1
:1058D00082EC90E0909337128093361286EC90E041
:1058E000909339128093381210923B1210923C120E
:1058F00010923D1210923E12A0E1B2E190E080E0E1
:1059000041E2FC013E9621E030E08630910510F442
:1059100030E020E0E20FF31F40935700E491ED9355
:1059200001968930910569F710921D128FEF8093CF
:10593000191280931A1280931B1280931C121092DA
:105940002112109220121092B6131092B51382E217
:1059500092E19093B1138093B0131092E7128CE20E
:105960008093B3138BE38093B2138FE28093B413CD
:1059700080E68093E2128FE58093E3121092E112A9
:105980001092AC131092AB131092AE131092AD1391
:1059900081E08093A913E7EBF3E18DEF93E111929E
:1059A00011928E179F07D9F71092E61208957894F6
:1059B00084B5826084BD84B5816084BD85B5826014
:1059C00085BD85B5816085BD80916E0081608093C5
:1059D0006E0010928100809181008260809381002E
:1059E000809181008160809381008091800081603E
:1059F000809380008091B10084608093B100809199
:105A0000B00081608093B0008091910082608093AB
:105A1000910080919100816080939100809190002D
:105A20008160809390008091A10082608093A100AA
:105A30008091A10081608093A1008091A00081608D
:105A40008093A00080912101826080932101809148
:105A500021018160809321018091200181608093E8
:105A6000200180917A00846080937A0080917A008E
:105A7000826080937A0080917A00816080937A00BE
:105A800080917A00806880937A001092C100E09142
:105A90003212F091331282E08083E0912E12F09165
:105AA0002F121082E0913012F091311280E1808348
:105AB00010923A12E0913612F091371286E080830C
:105AC000E0913412F0913512808180618083E09101
:105AD0003412F0913512808188608083E091341215
